{
	"contracts/SmartContractWallet.sol": {
		"SmartContractWallet": {
			"abi": [
				{
					"inputs": [],
					"stateMutability": "nonpayable",
					"type": "constructor"
				},
				{
					"inputs": [
						{
							"internalType": "address",
							"name": "",
							"type": "address"
						}
					],
					"name": "allowance",
					"outputs": [
						{
							"internalType": "uint256",
							"name": "",
							"type": "uint256"
						}
					],
					"stateMutability": "view",
					"type": "function"
				},
				{
					"inputs": [],
					"name": "confirmationsFromGuardiansForReset",
					"outputs": [
						{
							"internalType": "uint256",
							"name": "",
							"type": "uint256"
						}
					],
					"stateMutability": "view",
					"type": "function"
				},
				{
					"inputs": [
						{
							"internalType": "address",
							"name": "",
							"type": "address"
						}
					],
					"name": "guardians",
					"outputs": [
						{
							"internalType": "bool",
							"name": "",
							"type": "bool"
						}
					],
					"stateMutability": "view",
					"type": "function"
				},
				{
					"inputs": [
						{
							"internalType": "address",
							"name": "",
							"type": "address"
						}
					],
					"name": "isAllowedToSend",
					"outputs": [
						{
							"internalType": "bool",
							"name": "",
							"type": "bool"
						}
					],
					"stateMutability": "view",
					"type": "function"
				},
				{
					"inputs": [],
					"name": "owner",
					"outputs": [
						{
							"internalType": "address payable",
							"name": "",
							"type": "address"
						}
					],
					"stateMutability": "view",
					"type": "function"
				},
				{
					"inputs": [
						{
							"internalType": "address payable",
							"name": "_newOwner",
							"type": "address"
						}
					],
					"name": "proposeNewOwner",
					"outputs": [],
					"stateMutability": "nonpayable",
					"type": "function"
				},
				{
					"inputs": [
						{
							"internalType": "address",
							"name": "_for",
							"type": "address"
						},
						{
							"internalType": "uint256",
							"name": "_amount",
							"type": "uint256"
						}
					],
					"name": "setAllowance",
					"outputs": [],
					"stateMutability": "nonpayable",
					"type": "function"
				},
				{
					"inputs": [
						{
							"internalType": "address",
							"name": "_guardian",
							"type": "address"
						},
						{
							"internalType": "bool",
							"name": "_isGuardian",
							"type": "bool"
						}
					],
					"name": "setGuardian",
					"outputs": [],
					"stateMutability": "nonpayable",
					"type": "function"
				},
				{
					"inputs": [
						{
							"internalType": "address payable",
							"name": "_to",
							"type": "address"
						},
						{
							"internalType": "uint256",
							"name": "_amount",
							"type": "uint256"
						},
						{
							"internalType": "bytes",
							"name": "_payload",
							"type": "bytes"
						}
					],
					"name": "transfer",
					"outputs": [
						{
							"internalType": "bytes",
							"name": "",
							"type": "bytes"
						}
					],
					"stateMutability": "nonpayable",
					"type": "function"
				},
				{
					"stateMutability": "payable",
					"type": "receive"
				}
			],
			"devdoc": {
				"kind": "dev",
				"methods": {},
				"version": 1
			},
			"evm": {
				"assembly": "    /* \"contracts/SmartContractWallet.sol\":57:2298  contract SmartContractWallet{... */\n  mstore(0x40, 0x80)\n    /* \"contracts/SmartContractWallet.sol\":479:537  constructor(){... */\n  callvalue\n  dup1\n  iszero\n  tag_1\n  jumpi\n  0x00\n  dup1\n  revert\ntag_1:\n  pop\n    /* \"contracts/SmartContractWallet.sol\":519:529  msg.sender */\n  caller\n    /* \"contracts/SmartContractWallet.sol\":502:507  owner */\n  0x00\n  dup1\n    /* \"contracts/SmartContractWallet.sol\":502:530  owner = payable (msg.sender) */\n  0x0100\n  exp\n  dup2\n  sload\n  dup2\n  0xffffffffffffffffffffffffffffffffffffffff\n  mul\n  not\n  and\n  swap1\n  dup4\n  0xffffffffffffffffffffffffffffffffffffffff\n  and\n  mul\n  or\n  swap1\n  sstore\n  pop\n    /* \"contracts/SmartContractWallet.sol\":57:2298  contract SmartContractWallet{... */\n  dataSize(sub_0)\n  dup1\n  dataOffset(sub_0)\n  0x00\n  codecopy\n  0x00\n  return\nstop\n\nsub_0: assembly {\n        /* \"contracts/SmartContractWallet.sol\":57:2298  contract SmartContractWallet{... */\n      mstore(0x40, 0x80)\n      jumpi(tag_1, lt(calldatasize, 0x04))\n      shr(0xe0, calldataload(0x00))\n      dup1\n      0x3e5beab9\n      gt\n      tag_12\n      jumpi\n      dup1\n      0x3e5beab9\n      eq\n      tag_7\n      jumpi\n      dup1\n      0x83012be1\n      eq\n      tag_8\n      jumpi\n      dup1\n      0x8da5cb5b\n      eq\n      tag_9\n      jumpi\n      dup1\n      0xb1f8100d\n      eq\n      tag_10\n      jumpi\n      dup1\n      0xbe45fd62\n      eq\n      tag_11\n      jumpi\n      jump(tag_2)\n    tag_12:\n      dup1\n      0x0633b14a\n      eq\n      tag_3\n      jumpi\n      dup1\n      0x0bc605ad\n      eq\n      tag_4\n      jumpi\n      dup1\n      0x2b8a1c5a\n      eq\n      tag_5\n      jumpi\n      dup1\n      0x310ec4a7\n      eq\n      tag_6\n      jumpi\n      jump(tag_2)\n    tag_1:\n      jumpi(tag_2, calldatasize)\n      stop\n    tag_2:\n      0x00\n      dup1\n      revert\n        /* \"contracts/SmartContractWallet.sol\":227:269  mapping (address => bool) public guardians */\n    tag_3:\n      callvalue\n      dup1\n      iszero\n      tag_15\n      jumpi\n      0x00\n      dup1\n      revert\n    tag_15:\n      pop\n      tag_16\n      0x04\n      dup1\n      calldatasize\n      sub\n      dup2\n      add\n      swap1\n      tag_17\n      swap2\n      swap1\n      tag_18\n      jump\t// in\n    tag_17:\n      tag_19\n      jump\t// in\n    tag_16:\n      mload(0x40)\n      tag_20\n      swap2\n      swap1\n      tag_21\n      jump\t// in\n    tag_20:\n      mload(0x40)\n      dup1\n      swap2\n      sub\n      swap1\n      return\n        /* \"contracts/SmartContractWallet.sol\":173:220  mapping (address=> bool) public isAllowedToSend */\n    tag_4:\n      callvalue\n      dup1\n      iszero\n      tag_22\n      jumpi\n      0x00\n      dup1\n      revert\n    tag_22:\n      pop\n      tag_23\n      0x04\n      dup1\n      calldatasize\n      sub\n      dup2\n      add\n      swap1\n      tag_24\n      swap2\n      swap1\n      tag_18\n      jump\t// in\n    tag_24:\n      tag_25\n      jump\t// in\n    tag_23:\n      mload(0x40)\n      tag_26\n      swap2\n      swap1\n      tag_21\n      jump\t// in\n    tag_26:\n      mload(0x40)\n      dup1\n      swap2\n      sub\n      swap1\n      return\n        /* \"contracts/SmartContractWallet.sol\":543:722  function setGuardian(address _guardian, bool _isGuardian) public {... */\n    tag_5:\n      callvalue\n      dup1\n      iszero\n      tag_27\n      jumpi\n      0x00\n      dup1\n      revert\n    tag_27:\n      pop\n      tag_28\n      0x04\n      dup1\n      calldatasize\n      sub\n      dup2\n      add\n      swap1\n      tag_29\n      swap2\n      swap1\n      tag_30\n      jump\t// in\n    tag_29:\n      tag_31\n      jump\t// in\n    tag_28:\n      stop\n        /* \"contracts/SmartContractWallet.sol\":1266:1577  function setAllowance(address _for, uint _amount) public {... */\n    tag_6:\n      callvalue\n      dup1\n      iszero\n      tag_32\n      jumpi\n      0x00\n      dup1\n      revert\n    tag_32:\n      pop\n      tag_33\n      0x04\n      dup1\n      calldatasize\n      sub\n      dup2\n      add\n      swap1\n      tag_34\n      swap2\n      swap1\n      tag_35\n      jump\t// in\n    tag_34:\n      tag_36\n      jump\t// in\n    tag_33:\n      stop\n        /* \"contracts/SmartContractWallet.sol\":126:167  mapping (address=> uint) public allowance */\n    tag_7:\n      callvalue\n      dup1\n      iszero\n      tag_37\n      jumpi\n      0x00\n      dup1\n      revert\n    tag_37:\n      pop\n      tag_38\n      0x04\n      dup1\n      calldatasize\n      sub\n      dup2\n      add\n      swap1\n      tag_39\n      swap2\n      swap1\n      tag_18\n      jump\t// in\n    tag_39:\n      tag_40\n      jump\t// in\n    tag_38:\n      mload(0x40)\n      tag_41\n      swap2\n      swap1\n      tag_42\n      jump\t// in\n    tag_41:\n      mload(0x40)\n      dup1\n      swap2\n      sub\n      swap1\n      return\n        /* \"contracts/SmartContractWallet.sol\":414:473  uint public constant confirmationsFromGuardiansForReset = 3 */\n    tag_8:\n      callvalue\n      dup1\n      iszero\n      tag_43\n      jumpi\n      0x00\n      dup1\n      revert\n    tag_43:\n      pop\n      tag_44\n      tag_45\n      jump\t// in\n    tag_44:\n      mload(0x40)\n      tag_46\n      swap2\n      swap1\n      tag_42\n      jump\t// in\n    tag_46:\n      mload(0x40)\n      dup1\n      swap2\n      sub\n      swap1\n      return\n        /* \"contracts/SmartContractWallet.sol\":91:119  address payable public owner */\n    tag_9:\n      callvalue\n      dup1\n      iszero\n      tag_47\n      jumpi\n      0x00\n      dup1\n      revert\n    tag_47:\n      pop\n      tag_48\n      tag_49\n      jump\t// in\n    tag_48:\n      mload(0x40)\n      tag_50\n      swap2\n      swap1\n      tag_51\n      jump\t// in\n    tag_50:\n      mload(0x40)\n      dup1\n      swap2\n      sub\n      swap1\n      return\n        /* \"contracts/SmartContractWallet.sol\":729:1260  function proposeNewOwner(address  payable _newOwner) public {... */\n    tag_10:\n      callvalue\n      dup1\n      iszero\n      tag_52\n      jumpi\n      0x00\n      dup1\n      revert\n    tag_52:\n      pop\n      tag_53\n      0x04\n      dup1\n      calldatasize\n      sub\n      dup2\n      add\n      swap1\n      tag_54\n      swap2\n      swap1\n      tag_55\n      jump\t// in\n    tag_54:\n      tag_56\n      jump\t// in\n    tag_53:\n      stop\n        /* \"contracts/SmartContractWallet.sol\":1582:2260  function transfer(address payable _to, uint _amount, bytes memory _payload) public returns (bytes memory){... */\n    tag_11:\n      callvalue\n      dup1\n      iszero\n      tag_57\n      jumpi\n      0x00\n      dup1\n      revert\n    tag_57:\n      pop\n      tag_58\n      0x04\n      dup1\n      calldatasize\n      sub\n      dup2\n      add\n      swap1\n      tag_59\n      swap2\n      swap1\n      tag_60\n      jump\t// in\n    tag_59:\n      tag_61\n      jump\t// in\n    tag_58:\n      mload(0x40)\n      tag_62\n      swap2\n      swap1\n      tag_63\n      jump\t// in\n    tag_62:\n      mload(0x40)\n      dup1\n      swap2\n      sub\n      swap1\n      return\n        /* \"contracts/SmartContractWallet.sol\":227:269  mapping (address => bool) public guardians */\n    tag_19:\n      mstore(0x20, 0x03)\n      dup1\n      0x00\n      mstore\n      keccak256(0x00, 0x40)\n      0x00\n      swap2\n      pop\n      sload\n      swap1\n      0x0100\n      exp\n      swap1\n      div\n      0xff\n      and\n      dup2\n      jump\t// out\n        /* \"contracts/SmartContractWallet.sol\":173:220  mapping (address=> bool) public isAllowedToSend */\n    tag_25:\n      mstore(0x20, 0x02)\n      dup1\n      0x00\n      mstore\n      keccak256(0x00, 0x40)\n      0x00\n      swap2\n      pop\n      sload\n      swap1\n      0x0100\n      exp\n      swap1\n      div\n      0xff\n      and\n      dup2\n      jump\t// out\n        /* \"contracts/SmartContractWallet.sol\":543:722  function setGuardian(address _guardian, bool _isGuardian) public {... */\n    tag_31:\n        /* \"contracts/SmartContractWallet.sol\":640:645  owner */\n      0x00\n      dup1\n      sload\n      swap1\n      0x0100\n      exp\n      swap1\n      div\n      0xffffffffffffffffffffffffffffffffffffffff\n      and\n        /* \"contracts/SmartContractWallet.sol\":626:645  msg.sender == owner */\n      0xffffffffffffffffffffffffffffffffffffffff\n      and\n        /* \"contracts/SmartContractWallet.sol\":626:636  msg.sender */\n      caller\n        /* \"contracts/SmartContractWallet.sol\":626:645  msg.sender == owner */\n      0xffffffffffffffffffffffffffffffffffffffff\n      and\n      eq\n        /* \"contracts/SmartContractWallet.sol\":618:671  require(msg.sender == owner, \"you are not the owner\") */\n      tag_65\n      jumpi\n      mload(0x40)\n      0x08c379a000000000000000000000000000000000000000000000000000000000\n      dup2\n      mstore\n      0x04\n      add\n      tag_66\n      swap1\n      tag_67\n      jump\t// in\n    tag_66:\n      mload(0x40)\n      dup1\n      swap2\n      sub\n      swap1\n      revert\n    tag_65:\n        /* \"contracts/SmartContractWallet.sol\":704:715  _isGuardian */\n      dup1\n        /* \"contracts/SmartContractWallet.sol\":681:690  guardians */\n      0x03\n        /* \"contracts/SmartContractWallet.sol\":681:701  guardians[_guardian] */\n      0x00\n        /* \"contracts/SmartContractWallet.sol\":691:700  _guardian */\n      dup5\n        /* \"contracts/SmartContractWallet.sol\":681:701  guardians[_guardian] */\n      0xffffffffffffffffffffffffffffffffffffffff\n      and\n      0xffffffffffffffffffffffffffffffffffffffff\n      and\n      dup2\n      mstore\n      0x20\n      add\n      swap1\n      dup2\n      mstore\n      0x20\n      add\n      0x00\n      keccak256\n      0x00\n        /* \"contracts/SmartContractWallet.sol\":681:715  guardians[_guardian] = _isGuardian */\n      0x0100\n      exp\n      dup2\n      sload\n      dup2\n      0xff\n      mul\n      not\n      and\n      swap1\n      dup4\n      iszero\n      iszero\n      mul\n      or\n      swap1\n      sstore\n      pop\n        /* \"contracts/SmartContractWallet.sol\":543:722  function setGuardian(address _guardian, bool _isGuardian) public {... */\n      pop\n      pop\n      jump\t// out\n        /* \"contracts/SmartContractWallet.sol\":1266:1577  function setAllowance(address _for, uint _amount) public {... */\n    tag_36:\n        /* \"contracts/SmartContractWallet.sol\":1355:1360  owner */\n      0x00\n      dup1\n      sload\n      swap1\n      0x0100\n      exp\n      swap1\n      div\n      0xffffffffffffffffffffffffffffffffffffffff\n      and\n        /* \"contracts/SmartContractWallet.sol\":1341:1360  msg.sender == owner */\n      0xffffffffffffffffffffffffffffffffffffffff\n      and\n        /* \"contracts/SmartContractWallet.sol\":1341:1351  msg.sender */\n      caller\n        /* \"contracts/SmartContractWallet.sol\":1341:1360  msg.sender == owner */\n      0xffffffffffffffffffffffffffffffffffffffff\n      and\n      eq\n        /* \"contracts/SmartContractWallet.sol\":1333:1397  require(msg.sender == owner, \"you are not the owner, aborting!\") */\n      tag_69\n      jumpi\n      mload(0x40)\n      0x08c379a000000000000000000000000000000000000000000000000000000000\n      dup2\n      mstore\n      0x04\n      add\n      tag_70\n      swap1\n      tag_71\n      jump\t// in\n    tag_70:\n      mload(0x40)\n      dup1\n      swap2\n      sub\n      swap1\n      revert\n    tag_69:\n        /* \"contracts/SmartContractWallet.sol\":1426:1433  _amount */\n      dup1\n        /* \"contracts/SmartContractWallet.sol\":1408:1417  allowance */\n      0x01\n        /* \"contracts/SmartContractWallet.sol\":1408:1423  allowance[_for] */\n      0x00\n        /* \"contracts/SmartContractWallet.sol\":1418:1422  _for */\n      dup5\n        /* \"contracts/SmartContractWallet.sol\":1408:1423  allowance[_for] */\n      0xffffffffffffffffffffffffffffffffffffffff\n      and\n      0xffffffffffffffffffffffffffffffffffffffff\n      and\n      dup2\n      mstore\n      0x20\n      add\n      swap1\n      dup2\n      mstore\n      0x20\n      add\n      0x00\n      keccak256\n        /* \"contracts/SmartContractWallet.sol\":1408:1433  allowance[_for] = _amount */\n      dup2\n      swap1\n      sstore\n      pop\n        /* \"contracts/SmartContractWallet.sol\":1457:1458  0 */\n      0x00\n        /* \"contracts/SmartContractWallet.sol\":1447:1454  _amount */\n      dup2\n        /* \"contracts/SmartContractWallet.sol\":1447:1458  _amount > 0 */\n      gt\n        /* \"contracts/SmartContractWallet.sol\":1444:1571  if(_amount > 0){... */\n      iszero\n      tag_72\n      jumpi\n        /* \"contracts/SmartContractWallet.sol\":1497:1501  true */\n      0x01\n        /* \"contracts/SmartContractWallet.sol\":1473:1488  isAllowedToSend */\n      0x02\n        /* \"contracts/SmartContractWallet.sol\":1473:1494  isAllowedToSend[_for] */\n      0x00\n        /* \"contracts/SmartContractWallet.sol\":1489:1493  _for */\n      dup5\n        /* \"contracts/SmartContractWallet.sol\":1473:1494  isAllowedToSend[_for] */\n      0xffffffffffffffffffffffffffffffffffffffff\n      and\n      0xffffffffffffffffffffffffffffffffffffffff\n      and\n      dup2\n      mstore\n      0x20\n      add\n      swap1\n      dup2\n      mstore\n      0x20\n      add\n      0x00\n      keccak256\n      0x00\n        /* \"contracts/SmartContractWallet.sol\":1473:1501  isAllowedToSend[_for] = true */\n      0x0100\n      exp\n      dup2\n      sload\n      dup2\n      0xff\n      mul\n      not\n      and\n      swap1\n      dup4\n      iszero\n      iszero\n      mul\n      or\n      swap1\n      sstore\n      pop\n        /* \"contracts/SmartContractWallet.sol\":1444:1571  if(_amount > 0){... */\n      jump(tag_73)\n    tag_72:\n        /* \"contracts/SmartContractWallet.sol\":1555:1560  false */\n      0x00\n        /* \"contracts/SmartContractWallet.sol\":1531:1546  isAllowedToSend */\n      0x02\n        /* \"contracts/SmartContractWallet.sol\":1531:1552  isAllowedToSend[_for] */\n      0x00\n        /* \"contracts/SmartContractWallet.sol\":1547:1551  _for */\n      dup5\n        /* \"contracts/SmartContractWallet.sol\":1531:1552  isAllowedToSend[_for] */\n      0xffffffffffffffffffffffffffffffffffffffff\n      and\n      0xffffffffffffffffffffffffffffffffffffffff\n      and\n      dup2\n      mstore\n      0x20\n      add\n      swap1\n      dup2\n      mstore\n      0x20\n      add\n      0x00\n      keccak256\n      0x00\n        /* \"contracts/SmartContractWallet.sol\":1531:1560  isAllowedToSend[_for] = false */\n      0x0100\n      exp\n      dup2\n      sload\n      dup2\n      0xff\n      mul\n      not\n      and\n      swap1\n      dup4\n      iszero\n      iszero\n      mul\n      or\n      swap1\n      sstore\n      pop\n        /* \"contracts/SmartContractWallet.sol\":1444:1571  if(_amount > 0){... */\n    tag_73:\n        /* \"contracts/SmartContractWallet.sol\":1266:1577  function setAllowance(address _for, uint _amount) public {... */\n      pop\n      pop\n      jump\t// out\n        /* \"contracts/SmartContractWallet.sol\":126:167  mapping (address=> uint) public allowance */\n    tag_40:\n      mstore(0x20, 0x01)\n      dup1\n      0x00\n      mstore\n      keccak256(0x00, 0x40)\n      0x00\n      swap2\n      pop\n      swap1\n      pop\n      sload\n      dup2\n      jump\t// out\n        /* \"contracts/SmartContractWallet.sol\":414:473  uint public constant confirmationsFromGuardiansForReset = 3 */\n    tag_45:\n        /* \"contracts/SmartContractWallet.sol\":472:473  3 */\n      0x03\n        /* \"contracts/SmartContractWallet.sol\":414:473  uint public constant confirmationsFromGuardiansForReset = 3 */\n      dup2\n      jump\t// out\n        /* \"contracts/SmartContractWallet.sol\":91:119  address payable public owner */\n    tag_49:\n      0x00\n      dup1\n      sload\n      swap1\n      0x0100\n      exp\n      swap1\n      div\n      0xffffffffffffffffffffffffffffffffffffffff\n      and\n      dup2\n      jump\t// out\n        /* \"contracts/SmartContractWallet.sol\":729:1260  function proposeNewOwner(address  payable _newOwner) public {... */\n    tag_56:\n        /* \"contracts/SmartContractWallet.sol\":807:816  guardians */\n      0x03\n        /* \"contracts/SmartContractWallet.sol\":807:828  guardians[msg.sender] */\n      0x00\n        /* \"contracts/SmartContractWallet.sol\":817:827  msg.sender */\n      caller\n        /* \"contracts/SmartContractWallet.sol\":807:828  guardians[msg.sender] */\n      0xffffffffffffffffffffffffffffffffffffffff\n      and\n      0xffffffffffffffffffffffffffffffffffffffff\n      and\n      dup2\n      mstore\n      0x20\n      add\n      swap1\n      dup2\n      mstore\n      0x20\n      add\n      0x00\n      keccak256\n      0x00\n      swap1\n      sload\n      swap1\n      0x0100\n      exp\n      swap1\n      div\n      0xff\n      and\n        /* \"contracts/SmartContractWallet.sol\":799:868  require(guardians[msg.sender], \"you are not guardian of this wallet\") */\n      tag_75\n      jumpi\n      mload(0x40)\n      0x08c379a000000000000000000000000000000000000000000000000000000000\n      dup2\n      mstore\n      0x04\n      add\n      tag_76\n      swap1\n      tag_77\n      jump\t// in\n    tag_76:\n      mload(0x40)\n      dup1\n      swap2\n      sub\n      swap1\n      revert\n    tag_75:\n        /* \"contracts/SmartContractWallet.sol\":935:940  false */\n      0x00\n        /* \"contracts/SmartContractWallet.sol\":882:940  nextOwnerGuardianVotedBool[_newOwner][msg.sender] == false */\n      iszero\n      iszero\n        /* \"contracts/SmartContractWallet.sol\":882:908  nextOwnerGuardianVotedBool */\n      0x05\n        /* \"contracts/SmartContractWallet.sol\":882:919  nextOwnerGuardianVotedBool[_newOwner] */\n      0x00\n        /* \"contracts/SmartContractWallet.sol\":909:918  _newOwner */\n      dup4\n        /* \"contracts/SmartContractWallet.sol\":882:919  nextOwnerGuardianVotedBool[_newOwner] */\n      0xffffffffffffffffffffffffffffffffffffffff\n      and\n      0xffffffffffffffffffffffffffffffffffffffff\n      and\n      dup2\n      mstore\n      0x20\n      add\n      swap1\n      dup2\n      mstore\n      0x20\n      add\n      0x00\n      keccak256\n        /* \"contracts/SmartContractWallet.sol\":882:931  nextOwnerGuardianVotedBool[_newOwner][msg.sender] */\n      0x00\n        /* \"contracts/SmartContractWallet.sol\":920:930  msg.sender */\n      caller\n        /* \"contracts/SmartContractWallet.sol\":882:931  nextOwnerGuardianVotedBool[_newOwner][msg.sender] */\n      0xffffffffffffffffffffffffffffffffffffffff\n      and\n      0xffffffffffffffffffffffffffffffffffffffff\n      and\n      dup2\n      mstore\n      0x20\n      add\n      swap1\n      dup2\n      mstore\n      0x20\n      add\n      0x00\n      keccak256\n      0x00\n      swap1\n      sload\n      swap1\n      0x0100\n      exp\n      swap1\n      div\n      0xff\n      and\n        /* \"contracts/SmartContractWallet.sol\":882:940  nextOwnerGuardianVotedBool[_newOwner][msg.sender] == false */\n      iszero\n      iszero\n      eq\n        /* \"contracts/SmartContractWallet.sol\":874:966  require(nextOwnerGuardianVotedBool[_newOwner][msg.sender] == false, \"You are already voted\") */\n      tag_78\n      jumpi\n      mload(0x40)\n      0x08c379a000000000000000000000000000000000000000000000000000000000\n      dup2\n      mstore\n      0x04\n      add\n      tag_79\n      swap1\n      tag_80\n      jump\t// in\n    tag_79:\n      mload(0x40)\n      dup1\n      swap2\n      sub\n      swap1\n      revert\n    tag_78:\n        /* \"contracts/SmartContractWallet.sol\":991:1000  nextOwner */\n      0x04\n      0x00\n      swap1\n      sload\n      swap1\n      0x0100\n      exp\n      swap1\n      div\n      0xffffffffffffffffffffffffffffffffffffffff\n      and\n        /* \"contracts/SmartContractWallet.sol\":978:1000  _newOwner != nextOwner */\n      0xffffffffffffffffffffffffffffffffffffffff\n      and\n        /* \"contracts/SmartContractWallet.sol\":978:987  _newOwner */\n      dup2\n        /* \"contracts/SmartContractWallet.sol\":978:1000  _newOwner != nextOwner */\n      0xffffffffffffffffffffffffffffffffffffffff\n      and\n      eq\n        /* \"contracts/SmartContractWallet.sol\":975:1075  if(_newOwner != nextOwner){... */\n      tag_81\n      jumpi\n        /* \"contracts/SmartContractWallet.sol\":1023:1032  _newOwner */\n      dup1\n        /* \"contracts/SmartContractWallet.sol\":1011:1020  nextOwner */\n      0x04\n      0x00\n        /* \"contracts/SmartContractWallet.sol\":1011:1032  nextOwner = _newOwner */\n      0x0100\n      exp\n      dup2\n      sload\n      dup2\n      0xffffffffffffffffffffffffffffffffffffffff\n      mul\n      not\n      and\n      swap1\n      dup4\n      0xffffffffffffffffffffffffffffffffffffffff\n      and\n      mul\n      or\n      swap1\n      sstore\n      pop\n        /* \"contracts/SmartContractWallet.sol\":1064:1065  0 */\n      0x00\n        /* \"contracts/SmartContractWallet.sol\":1042:1061  guardiansReserCount */\n      0x06\n        /* \"contracts/SmartContractWallet.sol\":1042:1065  guardiansReserCount = 0 */\n      dup2\n      swap1\n      sstore\n      pop\n        /* \"contracts/SmartContractWallet.sol\":975:1075  if(_newOwner != nextOwner){... */\n    tag_81:\n        /* \"contracts/SmartContractWallet.sol\":1084:1103  guardiansReserCount */\n      0x06\n      0x00\n        /* \"contracts/SmartContractWallet.sol\":1084:1105  guardiansReserCount++ */\n      dup2\n      sload\n      dup1\n      swap3\n      swap2\n      swap1\n      tag_82\n      swap1\n      tag_83\n      jump\t// in\n    tag_82:\n      swap2\n      swap1\n      pop\n      sstore\n      pop\n        /* \"contracts/SmartContractWallet.sol\":472:473  3 */\n      0x03\n        /* \"contracts/SmartContractWallet.sol\":1117:1136  guardiansReserCount */\n      sload(0x06)\n        /* \"contracts/SmartContractWallet.sol\":1117:1174  guardiansReserCount >= confirmationsFromGuardiansForReset */\n      lt\n        /* \"contracts/SmartContractWallet.sol\":1114:1254  if(guardiansReserCount >= confirmationsFromGuardiansForReset){... */\n      tag_84\n      jumpi\n        /* \"contracts/SmartContractWallet.sol\":1193:1202  nextOwner */\n      0x04\n      0x00\n      swap1\n      sload\n      swap1\n      0x0100\n      exp\n      swap1\n      div\n      0xffffffffffffffffffffffffffffffffffffffff\n      and\n        /* \"contracts/SmartContractWallet.sol\":1185:1190  owner */\n      0x00\n      dup1\n        /* \"contracts/SmartContractWallet.sol\":1185:1202  owner = nextOwner */\n      0x0100\n      exp\n      dup2\n      sload\n      dup2\n      0xffffffffffffffffffffffffffffffffffffffff\n      mul\n      not\n      and\n      swap1\n      dup4\n      0xffffffffffffffffffffffffffffffffffffffff\n      and\n      mul\n      or\n      swap1\n      sstore\n      pop\n        /* \"contracts/SmartContractWallet.sol\":1241:1242  0 */\n      0x00\n        /* \"contracts/SmartContractWallet.sol\":1212:1221  nextOwner */\n      0x04\n      0x00\n        /* \"contracts/SmartContractWallet.sol\":1212:1244  nextOwner = payable (address(0)) */\n      0x0100\n      exp\n      dup2\n      sload\n      dup2\n      0xffffffffffffffffffffffffffffffffffffffff\n      mul\n      not\n      and\n      swap1\n      dup4\n      0xffffffffffffffffffffffffffffffffffffffff\n      and\n      mul\n      or\n      swap1\n      sstore\n      pop\n        /* \"contracts/SmartContractWallet.sol\":1114:1254  if(guardiansReserCount >= confirmationsFromGuardiansForReset){... */\n    tag_84:\n        /* \"contracts/SmartContractWallet.sol\":729:1260  function proposeNewOwner(address  payable _newOwner) public {... */\n      pop\n      jump\t// out\n        /* \"contracts/SmartContractWallet.sol\":1582:2260  function transfer(address payable _to, uint _amount, bytes memory _payload) public returns (bytes memory){... */\n    tag_61:\n        /* \"contracts/SmartContractWallet.sol\":1674:1686  bytes memory */\n      0x60\n        /* \"contracts/SmartContractWallet.sol\":1719:1724  owner */\n      0x00\n      dup1\n      sload\n      swap1\n      0x0100\n      exp\n      swap1\n      div\n      0xffffffffffffffffffffffffffffffffffffffff\n      and\n        /* \"contracts/SmartContractWallet.sol\":1705:1724  msg.sender == owner */\n      0xffffffffffffffffffffffffffffffffffffffff\n      and\n        /* \"contracts/SmartContractWallet.sol\":1705:1715  msg.sender */\n      caller\n        /* \"contracts/SmartContractWallet.sol\":1705:1724  msg.sender == owner */\n      0xffffffffffffffffffffffffffffffffffffffff\n      and\n      eq\n        /* \"contracts/SmartContractWallet.sol\":1697:1761  require(msg.sender == owner, \"You are not the owner, aborting!\") */\n      tag_86\n      jumpi\n      mload(0x40)\n      0x08c379a000000000000000000000000000000000000000000000000000000000\n      dup2\n      mstore\n      0x04\n      add\n      tag_87\n      swap1\n      tag_88\n      jump\t// in\n    tag_87:\n      mload(0x40)\n      dup1\n      swap2\n      sub\n      swap1\n      revert\n    tag_86:\n        /* \"contracts/SmartContractWallet.sol\":1789:1794  owner */\n      0x00\n      dup1\n      sload\n      swap1\n      0x0100\n      exp\n      swap1\n      div\n      0xffffffffffffffffffffffffffffffffffffffff\n      and\n        /* \"contracts/SmartContractWallet.sol\":1775:1794  msg.sender != owner */\n      0xffffffffffffffffffffffffffffffffffffffff\n      and\n        /* \"contracts/SmartContractWallet.sol\":1775:1785  msg.sender */\n      caller\n        /* \"contracts/SmartContractWallet.sol\":1775:1794  msg.sender != owner */\n      0xffffffffffffffffffffffffffffffffffffffff\n      and\n      eq\n        /* \"contracts/SmartContractWallet.sol\":1772:2078  if(msg.sender != owner){... */\n      tag_89\n      jumpi\n        /* \"contracts/SmartContractWallet.sol\":1817:1832  isAllowedToSend */\n      0x02\n        /* \"contracts/SmartContractWallet.sol\":1817:1844  isAllowedToSend[msg.sender] */\n      0x00\n        /* \"contracts/SmartContractWallet.sol\":1833:1843  msg.sender */\n      caller\n        /* \"contracts/SmartContractWallet.sol\":1817:1844  isAllowedToSend[msg.sender] */\n      0xffffffffffffffffffffffffffffffffffffffff\n      and\n      0xffffffffffffffffffffffffffffffffffffffff\n      and\n      dup2\n      mstore\n      0x20\n      add\n      swap1\n      dup2\n      mstore\n      0x20\n      add\n      0x00\n      keccak256\n      0x00\n      swap1\n      sload\n      swap1\n      0x0100\n      exp\n      swap1\n      div\n      0xff\n      and\n        /* \"contracts/SmartContractWallet.sol\":1809:1921  require(isAllowedToSend[msg.sender], \"You are not allowed to send anything from this smart contract, Aborting!\") */\n      tag_90\n      jumpi\n      mload(0x40)\n      0x08c379a000000000000000000000000000000000000000000000000000000000\n      dup2\n      mstore\n      0x04\n      add\n      tag_91\n      swap1\n      tag_92\n      jump\t// in\n    tag_91:\n      mload(0x40)\n      dup1\n      swap2\n      sub\n      swap1\n      revert\n    tag_90:\n        /* \"contracts/SmartContractWallet.sol\":1968:1975  _amount */\n      dup3\n        /* \"contracts/SmartContractWallet.sol\":1943:1952  allowance */\n      0x01\n        /* \"contracts/SmartContractWallet.sol\":1943:1964  allowance[msg.sender] */\n      0x00\n        /* \"contracts/SmartContractWallet.sol\":1953:1963  msg.sender */\n      caller\n        /* \"contracts/SmartContractWallet.sol\":1943:1964  allowance[msg.sender] */\n      0xffffffffffffffffffffffffffffffffffffffff\n      and\n      0xffffffffffffffffffffffffffffffffffffffff\n      and\n      dup2\n      mstore\n      0x20\n      add\n      swap1\n      dup2\n      mstore\n      0x20\n      add\n      0x00\n      keccak256\n      sload\n        /* \"contracts/SmartContractWallet.sol\":1943:1975  allowance[msg.sender] >= _amount */\n      lt\n      iszero\n        /* \"contracts/SmartContractWallet.sol\":1935:2020  require(allowance[msg.sender] >= _amount, \"You are sending more than your allowance\") */\n      tag_93\n      jumpi\n      mload(0x40)\n      0x08c379a000000000000000000000000000000000000000000000000000000000\n      dup2\n      mstore\n      0x04\n      add\n      tag_94\n      swap1\n      tag_95\n      jump\t// in\n    tag_94:\n      mload(0x40)\n      dup1\n      swap2\n      sub\n      swap1\n      revert\n    tag_93:\n        /* \"contracts/SmartContractWallet.sol\":2060:2067  _amount */\n      dup3\n        /* \"contracts/SmartContractWallet.sol\":2035:2044  allowance */\n      0x01\n        /* \"contracts/SmartContractWallet.sol\":2035:2056  allowance[msg.sender] */\n      0x00\n        /* \"contracts/SmartContractWallet.sol\":2045:2055  msg.sender */\n      caller\n        /* \"contracts/SmartContractWallet.sol\":2035:2056  allowance[msg.sender] */\n      0xffffffffffffffffffffffffffffffffffffffff\n      and\n      0xffffffffffffffffffffffffffffffffffffffff\n      and\n      dup2\n      mstore\n      0x20\n      add\n      swap1\n      dup2\n      mstore\n      0x20\n      add\n      0x00\n      keccak256\n      0x00\n        /* \"contracts/SmartContractWallet.sol\":2035:2067  allowance[msg.sender] -= _amount */\n      dup3\n      dup3\n      sload\n      tag_96\n      swap2\n      swap1\n      tag_97\n      jump\t// in\n    tag_96:\n      swap3\n      pop\n      pop\n      dup2\n      swap1\n      sstore\n      pop\n        /* \"contracts/SmartContractWallet.sol\":1772:2078  if(msg.sender != owner){... */\n    tag_89:\n        /* \"contracts/SmartContractWallet.sol\":2089:2101  bool success */\n      0x00\n        /* \"contracts/SmartContractWallet.sol\":2103:2126  bytes memory returnData */\n      dup1\n        /* \"contracts/SmartContractWallet.sol\":2130:2133  _to */\n      dup6\n        /* \"contracts/SmartContractWallet.sol\":2130:2138  _to.call */\n      0xffffffffffffffffffffffffffffffffffffffff\n      and\n        /* \"contracts/SmartContractWallet.sol\":2146:2153  _amount */\n      dup6\n        /* \"contracts/SmartContractWallet.sol\":2155:2163  _payload */\n      dup6\n        /* \"contracts/SmartContractWallet.sol\":2130:2164  _to.call{value: _amount}(_payload) */\n      mload(0x40)\n      tag_98\n      swap2\n      swap1\n      tag_99\n      jump\t// in\n    tag_98:\n      0x00\n      mload(0x40)\n      dup1\n      dup4\n      sub\n      dup2\n      dup6\n      dup8\n      gas\n      call\n      swap3\n      pop\n      pop\n      pop\n      returndatasize\n      dup1\n      0x00\n      dup2\n      eq\n      tag_102\n      jumpi\n      mload(0x40)\n      swap2\n      pop\n      and(add(returndatasize, 0x3f), not(0x1f))\n      dup3\n      add\n      0x40\n      mstore\n      returndatasize\n      dup3\n      mstore\n      returndatasize\n      0x00\n      0x20\n      dup5\n      add\n      returndatacopy\n      jump(tag_101)\n    tag_102:\n      0x60\n      swap2\n      pop\n    tag_101:\n      pop\n        /* \"contracts/SmartContractWallet.sol\":2088:2164  (bool success, bytes memory returnData) = _to.call{value: _amount}(_payload) */\n      swap2\n      pop\n      swap2\n      pop\n        /* \"contracts/SmartContractWallet.sol\":2183:2190  success */\n      dup2\n        /* \"contracts/SmartContractWallet.sol\":2175:2226  require(success, \"Aborting, call was not executed\") */\n      tag_103\n      jumpi\n      mload(0x40)\n      0x08c379a000000000000000000000000000000000000000000000000000000000\n      dup2\n      mstore\n      0x04\n      add\n      tag_104\n      swap1\n      tag_105\n      jump\t// in\n    tag_104:\n      mload(0x40)\n      dup1\n      swap2\n      sub\n      swap1\n      revert\n    tag_103:\n        /* \"contracts/SmartContractWallet.sol\":2243:2253  returnData */\n      dup1\n        /* \"contracts/SmartContractWallet.sol\":2236:2253  return returnData */\n      swap3\n      pop\n      pop\n      pop\n        /* \"contracts/SmartContractWallet.sol\":1582:2260  function transfer(address payable _to, uint _amount, bytes memory _payload) public returns (bytes memory){... */\n      swap4\n      swap3\n      pop\n      pop\n      pop\n      jump\t// out\n        /* \"#utility.yul\":7:82   */\n    tag_106:\n        /* \"#utility.yul\":40:46   */\n      0x00\n        /* \"#utility.yul\":73:75   */\n      0x40\n        /* \"#utility.yul\":67:76   */\n      mload\n        /* \"#utility.yul\":57:76   */\n      swap1\n      pop\n        /* \"#utility.yul\":7:82   */\n      swap1\n      jump\t// out\n        /* \"#utility.yul\":88:205   */\n    tag_107:\n        /* \"#utility.yul\":197:198   */\n      0x00\n        /* \"#utility.yul\":194:195   */\n      dup1\n        /* \"#utility.yul\":187:199   */\n      revert\n        /* \"#utility.yul\":211:328   */\n    tag_108:\n        /* \"#utility.yul\":320:321   */\n      0x00\n        /* \"#utility.yul\":317:318   */\n      dup1\n        /* \"#utility.yul\":310:322   */\n      revert\n        /* \"#utility.yul\":334:460   */\n    tag_109:\n        /* \"#utility.yul\":371:378   */\n      0x00\n        /* \"#utility.yul\":411:453   */\n      0xffffffffffffffffffffffffffffffffffffffff\n        /* \"#utility.yul\":404:409   */\n      dup3\n        /* \"#utility.yul\":400:454   */\n      and\n        /* \"#utility.yul\":389:454   */\n      swap1\n      pop\n        /* \"#utility.yul\":334:460   */\n      swap2\n      swap1\n      pop\n      jump\t// out\n        /* \"#utility.yul\":466:562   */\n    tag_110:\n        /* \"#utility.yul\":503:510   */\n      0x00\n        /* \"#utility.yul\":532:556   */\n      tag_165\n        /* \"#utility.yul\":550:555   */\n      dup3\n        /* \"#utility.yul\":532:556   */\n      tag_109\n      jump\t// in\n    tag_165:\n        /* \"#utility.yul\":521:556   */\n      swap1\n      pop\n        /* \"#utility.yul\":466:562   */\n      swap2\n      swap1\n      pop\n      jump\t// out\n        /* \"#utility.yul\":568:690   */\n    tag_111:\n        /* \"#utility.yul\":641:665   */\n      tag_167\n        /* \"#utility.yul\":659:664   */\n      dup2\n        /* \"#utility.yul\":641:665   */\n      tag_110\n      jump\t// in\n    tag_167:\n        /* \"#utility.yul\":634:639   */\n      dup2\n        /* \"#utility.yul\":631:666   */\n      eq\n        /* \"#utility.yul\":621:684   */\n      tag_168\n      jumpi\n        /* \"#utility.yul\":680:681   */\n      0x00\n        /* \"#utility.yul\":677:678   */\n      dup1\n        /* \"#utility.yul\":670:682   */\n      revert\n        /* \"#utility.yul\":621:684   */\n    tag_168:\n        /* \"#utility.yul\":568:690   */\n      pop\n      jump\t// out\n        /* \"#utility.yul\":696:835   */\n    tag_112:\n        /* \"#utility.yul\":742:747   */\n      0x00\n        /* \"#utility.yul\":780:786   */\n      dup2\n        /* \"#utility.yul\":767:787   */\n      calldataload\n        /* \"#utility.yul\":758:787   */\n      swap1\n      pop\n        /* \"#utility.yul\":796:829   */\n      tag_170\n        /* \"#utility.yul\":823:828   */\n      dup2\n        /* \"#utility.yul\":796:829   */\n      tag_111\n      jump\t// in\n    tag_170:\n        /* \"#utility.yul\":696:835   */\n      swap3\n      swap2\n      pop\n      pop\n      jump\t// out\n        /* \"#utility.yul\":841:1170   */\n    tag_18:\n        /* \"#utility.yul\":900:906   */\n      0x00\n        /* \"#utility.yul\":949:951   */\n      0x20\n        /* \"#utility.yul\":937:946   */\n      dup3\n        /* \"#utility.yul\":928:935   */\n      dup5\n        /* \"#utility.yul\":924:947   */\n      sub\n        /* \"#utility.yul\":920:952   */\n      slt\n        /* \"#utility.yul\":917:1036   */\n      iszero\n      tag_172\n      jumpi\n        /* \"#utility.yul\":955:1034   */\n      tag_173\n      tag_107\n      jump\t// in\n    tag_173:\n        /* \"#utility.yul\":917:1036   */\n    tag_172:\n        /* \"#utility.yul\":1075:1076   */\n      0x00\n        /* \"#utility.yul\":1100:1153   */\n      tag_174\n        /* \"#utility.yul\":1145:1152   */\n      dup5\n        /* \"#utility.yul\":1136:1142   */\n      dup3\n        /* \"#utility.yul\":1125:1134   */\n      dup6\n        /* \"#utility.yul\":1121:1143   */\n      add\n        /* \"#utility.yul\":1100:1153   */\n      tag_112\n      jump\t// in\n    tag_174:\n        /* \"#utility.yul\":1090:1153   */\n      swap2\n      pop\n        /* \"#utility.yul\":1046:1163   */\n      pop\n        /* \"#utility.yul\":841:1170   */\n      swap3\n      swap2\n      pop\n      pop\n      jump\t// out\n        /* \"#utility.yul\":1176:1266   */\n    tag_113:\n        /* \"#utility.yul\":1210:1217   */\n      0x00\n        /* \"#utility.yul\":1253:1258   */\n      dup2\n        /* \"#utility.yul\":1246:1259   */\n      iszero\n        /* \"#utility.yul\":1239:1260   */\n      iszero\n        /* \"#utility.yul\":1228:1260   */\n      swap1\n      pop\n        /* \"#utility.yul\":1176:1266   */\n      swap2\n      swap1\n      pop\n      jump\t// out\n        /* \"#utility.yul\":1272:1381   */\n    tag_114:\n        /* \"#utility.yul\":1353:1374   */\n      tag_177\n        /* \"#utility.yul\":1368:1373   */\n      dup2\n        /* \"#utility.yul\":1353:1374   */\n      tag_113\n      jump\t// in\n    tag_177:\n        /* \"#utility.yul\":1348:1351   */\n      dup3\n        /* \"#utility.yul\":1341:1375   */\n      mstore\n        /* \"#utility.yul\":1272:1381   */\n      pop\n      pop\n      jump\t// out\n        /* \"#utility.yul\":1387:1597   */\n    tag_21:\n        /* \"#utility.yul\":1474:1478   */\n      0x00\n        /* \"#utility.yul\":1512:1514   */\n      0x20\n        /* \"#utility.yul\":1501:1510   */\n      dup3\n        /* \"#utility.yul\":1497:1515   */\n      add\n        /* \"#utility.yul\":1489:1515   */\n      swap1\n      pop\n        /* \"#utility.yul\":1525:1590   */\n      tag_179\n        /* \"#utility.yul\":1587:1588   */\n      0x00\n        /* \"#utility.yul\":1576:1585   */\n      dup4\n        /* \"#utility.yul\":1572:1589   */\n      add\n        /* \"#utility.yul\":1563:1569   */\n      dup5\n        /* \"#utility.yul\":1525:1590   */\n      tag_114\n      jump\t// in\n    tag_179:\n        /* \"#utility.yul\":1387:1597   */\n      swap3\n      swap2\n      pop\n      pop\n      jump\t// out\n        /* \"#utility.yul\":1603:1719   */\n    tag_115:\n        /* \"#utility.yul\":1673:1694   */\n      tag_181\n        /* \"#utility.yul\":1688:1693   */\n      dup2\n        /* \"#utility.yul\":1673:1694   */\n      tag_113\n      jump\t// in\n    tag_181:\n        /* \"#utility.yul\":1666:1671   */\n      dup2\n        /* \"#utility.yul\":1663:1695   */\n      eq\n        /* \"#utility.yul\":1653:1713   */\n      tag_182\n      jumpi\n        /* \"#utility.yul\":1709:1710   */\n      0x00\n        /* \"#utility.yul\":1706:1707   */\n      dup1\n        /* \"#utility.yul\":1699:1711   */\n      revert\n        /* \"#utility.yul\":1653:1713   */\n    tag_182:\n        /* \"#utility.yul\":1603:1719   */\n      pop\n      jump\t// out\n        /* \"#utility.yul\":1725:1858   */\n    tag_116:\n        /* \"#utility.yul\":1768:1773   */\n      0x00\n        /* \"#utility.yul\":1806:1812   */\n      dup2\n        /* \"#utility.yul\":1793:1813   */\n      calldataload\n        /* \"#utility.yul\":1784:1813   */\n      swap1\n      pop\n        /* \"#utility.yul\":1822:1852   */\n      tag_184\n        /* \"#utility.yul\":1846:1851   */\n      dup2\n        /* \"#utility.yul\":1822:1852   */\n      tag_115\n      jump\t// in\n    tag_184:\n        /* \"#utility.yul\":1725:1858   */\n      swap3\n      swap2\n      pop\n      pop\n      jump\t// out\n        /* \"#utility.yul\":1864:2332   */\n    tag_30:\n        /* \"#utility.yul\":1929:1935   */\n      0x00\n        /* \"#utility.yul\":1937:1943   */\n      dup1\n        /* \"#utility.yul\":1986:1988   */\n      0x40\n        /* \"#utility.yul\":1974:1983   */\n      dup4\n        /* \"#utility.yul\":1965:1972   */\n      dup6\n        /* \"#utility.yul\":1961:1984   */\n      sub\n        /* \"#utility.yul\":1957:1989   */\n      slt\n        /* \"#utility.yul\":1954:2073   */\n      iszero\n      tag_186\n      jumpi\n        /* \"#utility.yul\":1992:2071   */\n      tag_187\n      tag_107\n      jump\t// in\n    tag_187:\n        /* \"#utility.yul\":1954:2073   */\n    tag_186:\n        /* \"#utility.yul\":2112:2113   */\n      0x00\n        /* \"#utility.yul\":2137:2190   */\n      tag_188\n        /* \"#utility.yul\":2182:2189   */\n      dup6\n        /* \"#utility.yul\":2173:2179   */\n      dup3\n        /* \"#utility.yul\":2162:2171   */\n      dup7\n        /* \"#utility.yul\":2158:2180   */\n      add\n        /* \"#utility.yul\":2137:2190   */\n      tag_112\n      jump\t// in\n    tag_188:\n        /* \"#utility.yul\":2127:2190   */\n      swap3\n      pop\n        /* \"#utility.yul\":2083:2200   */\n      pop\n        /* \"#utility.yul\":2239:2241   */\n      0x20\n        /* \"#utility.yul\":2265:2315   */\n      tag_189\n        /* \"#utility.yul\":2307:2314   */\n      dup6\n        /* \"#utility.yul\":2298:2304   */\n      dup3\n        /* \"#utility.yul\":2287:2296   */\n      dup7\n        /* \"#utility.yul\":2283:2305   */\n      add\n        /* \"#utility.yul\":2265:2315   */\n      tag_116\n      jump\t// in\n    tag_189:\n        /* \"#utility.yul\":2255:2315   */\n      swap2\n      pop\n        /* \"#utility.yul\":2210:2325   */\n      pop\n        /* \"#utility.yul\":1864:2332   */\n      swap3\n      pop\n      swap3\n      swap1\n      pop\n      jump\t// out\n        /* \"#utility.yul\":2338:2415   */\n    tag_117:\n        /* \"#utility.yul\":2375:2382   */\n      0x00\n        /* \"#utility.yul\":2404:2409   */\n      dup2\n        /* \"#utility.yul\":2393:2409   */\n      swap1\n      pop\n        /* \"#utility.yul\":2338:2415   */\n      swap2\n      swap1\n      pop\n      jump\t// out\n        /* \"#utility.yul\":2421:2543   */\n    tag_118:\n        /* \"#utility.yul\":2494:2518   */\n      tag_192\n        /* \"#utility.yul\":2512:2517   */\n      dup2\n        /* \"#utility.yul\":2494:2518   */\n      tag_117\n      jump\t// in\n    tag_192:\n        /* \"#utility.yul\":2487:2492   */\n      dup2\n        /* \"#utility.yul\":2484:2519   */\n      eq\n        /* \"#utility.yul\":2474:2537   */\n      tag_193\n      jumpi\n        /* \"#utility.yul\":2533:2534   */\n      0x00\n        /* \"#utility.yul\":2530:2531   */\n      dup1\n        /* \"#utility.yul\":2523:2535   */\n      revert\n        /* \"#utility.yul\":2474:2537   */\n    tag_193:\n        /* \"#utility.yul\":2421:2543   */\n      pop\n      jump\t// out\n        /* \"#utility.yul\":2549:2688   */\n    tag_119:\n        /* \"#utility.yul\":2595:2600   */\n      0x00\n        /* \"#utility.yul\":2633:2639   */\n      dup2\n        /* \"#utility.yul\":2620:2640   */\n      calldataload\n        /* \"#utility.yul\":2611:2640   */\n      swap1\n      pop\n        /* \"#utility.yul\":2649:2682   */\n      tag_195\n        /* \"#utility.yul\":2676:2681   */\n      dup2\n        /* \"#utility.yul\":2649:2682   */\n      tag_118\n      jump\t// in\n    tag_195:\n        /* \"#utility.yul\":2549:2688   */\n      swap3\n      swap2\n      pop\n      pop\n      jump\t// out\n        /* \"#utility.yul\":2694:3168   */\n    tag_35:\n        /* \"#utility.yul\":2762:2768   */\n      0x00\n        /* \"#utility.yul\":2770:2776   */\n      dup1\n        /* \"#utility.yul\":2819:2821   */\n      0x40\n        /* \"#utility.yul\":2807:2816   */\n      dup4\n        /* \"#utility.yul\":2798:2805   */\n      dup6\n        /* \"#utility.yul\":2794:2817   */\n      sub\n        /* \"#utility.yul\":2790:2822   */\n      slt\n        /* \"#utility.yul\":2787:2906   */\n      iszero\n      tag_197\n      jumpi\n        /* \"#utility.yul\":2825:2904   */\n      tag_198\n      tag_107\n      jump\t// in\n    tag_198:\n        /* \"#utility.yul\":2787:2906   */\n    tag_197:\n        /* \"#utility.yul\":2945:2946   */\n      0x00\n        /* \"#utility.yul\":2970:3023   */\n      tag_199\n        /* \"#utility.yul\":3015:3022   */\n      dup6\n        /* \"#utility.yul\":3006:3012   */\n      dup3\n        /* \"#utility.yul\":2995:3004   */\n      dup7\n        /* \"#utility.yul\":2991:3013   */\n      add\n        /* \"#utility.yul\":2970:3023   */\n      tag_112\n      jump\t// in\n    tag_199:\n        /* \"#utility.yul\":2960:3023   */\n      swap3\n      pop\n        /* \"#utility.yul\":2916:3033   */\n      pop\n        /* \"#utility.yul\":3072:3074   */\n      0x20\n        /* \"#utility.yul\":3098:3151   */\n      tag_200\n        /* \"#utility.yul\":3143:3150   */\n      dup6\n        /* \"#utility.yul\":3134:3140   */\n      dup3\n        /* \"#utility.yul\":3123:3132   */\n      dup7\n        /* \"#utility.yul\":3119:3141   */\n      add\n        /* \"#utility.yul\":3098:3151   */\n      tag_119\n      jump\t// in\n    tag_200:\n        /* \"#utility.yul\":3088:3151   */\n      swap2\n      pop\n        /* \"#utility.yul\":3043:3161   */\n      pop\n        /* \"#utility.yul\":2694:3168   */\n      swap3\n      pop\n      swap3\n      swap1\n      pop\n      jump\t// out\n        /* \"#utility.yul\":3174:3292   */\n    tag_120:\n        /* \"#utility.yul\":3261:3285   */\n      tag_202\n        /* \"#utility.yul\":3279:3284   */\n      dup2\n        /* \"#utility.yul\":3261:3285   */\n      tag_117\n      jump\t// in\n    tag_202:\n        /* \"#utility.yul\":3256:3259   */\n      dup3\n        /* \"#utility.yul\":3249:3286   */\n      mstore\n        /* \"#utility.yul\":3174:3292   */\n      pop\n      pop\n      jump\t// out\n        /* \"#utility.yul\":3298:3520   */\n    tag_42:\n        /* \"#utility.yul\":3391:3395   */\n      0x00\n        /* \"#utility.yul\":3429:3431   */\n      0x20\n        /* \"#utility.yul\":3418:3427   */\n      dup3\n        /* \"#utility.yul\":3414:3432   */\n      add\n        /* \"#utility.yul\":3406:3432   */\n      swap1\n      pop\n        /* \"#utility.yul\":3442:3513   */\n      tag_204\n        /* \"#utility.yul\":3510:3511   */\n      0x00\n        /* \"#utility.yul\":3499:3508   */\n      dup4\n        /* \"#utility.yul\":3495:3512   */\n      add\n        /* \"#utility.yul\":3486:3492   */\n      dup5\n        /* \"#utility.yul\":3442:3513   */\n      tag_120\n      jump\t// in\n    tag_204:\n        /* \"#utility.yul\":3298:3520   */\n      swap3\n      swap2\n      pop\n      pop\n      jump\t// out\n        /* \"#utility.yul\":3526:3630   */\n    tag_121:\n        /* \"#utility.yul\":3571:3578   */\n      0x00\n        /* \"#utility.yul\":3600:3624   */\n      tag_206\n        /* \"#utility.yul\":3618:3623   */\n      dup3\n        /* \"#utility.yul\":3600:3624   */\n      tag_109\n      jump\t// in\n    tag_206:\n        /* \"#utility.yul\":3589:3624   */\n      swap1\n      pop\n        /* \"#utility.yul\":3526:3630   */\n      swap2\n      swap1\n      pop\n      jump\t// out\n        /* \"#utility.yul\":3636:3778   */\n    tag_122:\n        /* \"#utility.yul\":3739:3771   */\n      tag_208\n        /* \"#utility.yul\":3765:3770   */\n      dup2\n        /* \"#utility.yul\":3739:3771   */\n      tag_121\n      jump\t// in\n    tag_208:\n        /* \"#utility.yul\":3734:3737   */\n      dup3\n        /* \"#utility.yul\":3727:3772   */\n      mstore\n        /* \"#utility.yul\":3636:3778   */\n      pop\n      pop\n      jump\t// out\n        /* \"#utility.yul\":3784:4038   */\n    tag_51:\n        /* \"#utility.yul\":3893:3897   */\n      0x00\n        /* \"#utility.yul\":3931:3933   */\n      0x20\n        /* \"#utility.yul\":3920:3929   */\n      dup3\n        /* \"#utility.yul\":3916:3934   */\n      add\n        /* \"#utility.yul\":3908:3934   */\n      swap1\n      pop\n        /* \"#utility.yul\":3944:4031   */\n      tag_210\n        /* \"#utility.yul\":4028:4029   */\n      0x00\n        /* \"#utility.yul\":4017:4026   */\n      dup4\n        /* \"#utility.yul\":4013:4030   */\n      add\n        /* \"#utility.yul\":4004:4010   */\n      dup5\n        /* \"#utility.yul\":3944:4031   */\n      tag_122\n      jump\t// in\n    tag_210:\n        /* \"#utility.yul\":3784:4038   */\n      swap3\n      swap2\n      pop\n      pop\n      jump\t// out\n        /* \"#utility.yul\":4044:4182   */\n    tag_123:\n        /* \"#utility.yul\":4125:4157   */\n      tag_212\n        /* \"#utility.yul\":4151:4156   */\n      dup2\n        /* \"#utility.yul\":4125:4157   */\n      tag_121\n      jump\t// in\n    tag_212:\n        /* \"#utility.yul\":4118:4123   */\n      dup2\n        /* \"#utility.yul\":4115:4158   */\n      eq\n        /* \"#utility.yul\":4105:4176   */\n      tag_213\n      jumpi\n        /* \"#utility.yul\":4172:4173   */\n      0x00\n        /* \"#utility.yul\":4169:4170   */\n      dup1\n        /* \"#utility.yul\":4162:4174   */\n      revert\n        /* \"#utility.yul\":4105:4176   */\n    tag_213:\n        /* \"#utility.yul\":4044:4182   */\n      pop\n      jump\t// out\n        /* \"#utility.yul\":4188:4343   */\n    tag_124:\n        /* \"#utility.yul\":4242:4247   */\n      0x00\n        /* \"#utility.yul\":4280:4286   */\n      dup2\n        /* \"#utility.yul\":4267:4287   */\n      calldataload\n        /* \"#utility.yul\":4258:4287   */\n      swap1\n      pop\n        /* \"#utility.yul\":4296:4337   */\n      tag_215\n        /* \"#utility.yul\":4331:4336   */\n      dup2\n        /* \"#utility.yul\":4296:4337   */\n      tag_123\n      jump\t// in\n    tag_215:\n        /* \"#utility.yul\":4188:4343   */\n      swap3\n      swap2\n      pop\n      pop\n      jump\t// out\n        /* \"#utility.yul\":4349:4694   */\n    tag_55:\n        /* \"#utility.yul\":4416:4422   */\n      0x00\n        /* \"#utility.yul\":4465:4467   */\n      0x20\n        /* \"#utility.yul\":4453:4462   */\n      dup3\n        /* \"#utility.yul\":4444:4451   */\n      dup5\n        /* \"#utility.yul\":4440:4463   */\n      sub\n        /* \"#utility.yul\":4436:4468   */\n      slt\n        /* \"#utility.yul\":4433:4552   */\n      iszero\n      tag_217\n      jumpi\n        /* \"#utility.yul\":4471:4550   */\n      tag_218\n      tag_107\n      jump\t// in\n    tag_218:\n        /* \"#utility.yul\":4433:4552   */\n    tag_217:\n        /* \"#utility.yul\":4591:4592   */\n      0x00\n        /* \"#utility.yul\":4616:4677   */\n      tag_219\n        /* \"#utility.yul\":4669:4676   */\n      dup5\n        /* \"#utility.yul\":4660:4666   */\n      dup3\n        /* \"#utility.yul\":4649:4658   */\n      dup6\n        /* \"#utility.yul\":4645:4667   */\n      add\n        /* \"#utility.yul\":4616:4677   */\n      tag_124\n      jump\t// in\n    tag_219:\n        /* \"#utility.yul\":4606:4677   */\n      swap2\n      pop\n        /* \"#utility.yul\":4562:4687   */\n      pop\n        /* \"#utility.yul\":4349:4694   */\n      swap3\n      swap2\n      pop\n      pop\n      jump\t// out\n        /* \"#utility.yul\":4700:4817   */\n    tag_125:\n        /* \"#utility.yul\":4809:4810   */\n      0x00\n        /* \"#utility.yul\":4806:4807   */\n      dup1\n        /* \"#utility.yul\":4799:4811   */\n      revert\n        /* \"#utility.yul\":4823:4940   */\n    tag_126:\n        /* \"#utility.yul\":4932:4933   */\n      0x00\n        /* \"#utility.yul\":4929:4930   */\n      dup1\n        /* \"#utility.yul\":4922:4934   */\n      revert\n        /* \"#utility.yul\":4946:5048   */\n    tag_127:\n        /* \"#utility.yul\":4987:4993   */\n      0x00\n        /* \"#utility.yul\":5038:5040   */\n      0x1f\n        /* \"#utility.yul\":5034:5041   */\n      not\n        /* \"#utility.yul\":5029:5031   */\n      0x1f\n        /* \"#utility.yul\":5022:5027   */\n      dup4\n        /* \"#utility.yul\":5018:5032   */\n      add\n        /* \"#utility.yul\":5014:5042   */\n      and\n        /* \"#utility.yul\":5004:5042   */\n      swap1\n      pop\n        /* \"#utility.yul\":4946:5048   */\n      swap2\n      swap1\n      pop\n      jump\t// out\n        /* \"#utility.yul\":5054:5234   */\n    tag_128:\n        /* \"#utility.yul\":5102:5179   */\n      0x4e487b7100000000000000000000000000000000000000000000000000000000\n        /* \"#utility.yul\":5099:5100   */\n      0x00\n        /* \"#utility.yul\":5092:5180   */\n      mstore\n        /* \"#utility.yul\":5199:5203   */\n      0x41\n        /* \"#utility.yul\":5196:5197   */\n      0x04\n        /* \"#utility.yul\":5189:5204   */\n      mstore\n        /* \"#utility.yul\":5223:5227   */\n      0x24\n        /* \"#utility.yul\":5220:5221   */\n      0x00\n        /* \"#utility.yul\":5213:5228   */\n      revert\n        /* \"#utility.yul\":5240:5521   */\n    tag_129:\n        /* \"#utility.yul\":5323:5350   */\n      tag_225\n        /* \"#utility.yul\":5345:5349   */\n      dup3\n        /* \"#utility.yul\":5323:5350   */\n      tag_127\n      jump\t// in\n    tag_225:\n        /* \"#utility.yul\":5315:5321   */\n      dup2\n        /* \"#utility.yul\":5311:5351   */\n      add\n        /* \"#utility.yul\":5453:5459   */\n      dup2\n        /* \"#utility.yul\":5441:5451   */\n      dup2\n        /* \"#utility.yul\":5438:5460   */\n      lt\n        /* \"#utility.yul\":5417:5435   */\n      0xffffffffffffffff\n        /* \"#utility.yul\":5405:5415   */\n      dup3\n        /* \"#utility.yul\":5402:5436   */\n      gt\n        /* \"#utility.yul\":5399:5461   */\n      or\n        /* \"#utility.yul\":5396:5484   */\n      iszero\n      tag_226\n      jumpi\n        /* \"#utility.yul\":5464:5482   */\n      tag_227\n      tag_128\n      jump\t// in\n    tag_227:\n        /* \"#utility.yul\":5396:5484   */\n    tag_226:\n        /* \"#utility.yul\":5504:5514   */\n      dup1\n        /* \"#utility.yul\":5500:5502   */\n      0x40\n        /* \"#utility.yul\":5493:5515   */\n      mstore\n        /* \"#utility.yul\":5283:5521   */\n      pop\n        /* \"#utility.yul\":5240:5521   */\n      pop\n      pop\n      jump\t// out\n        /* \"#utility.yul\":5527:5656   */\n    tag_130:\n        /* \"#utility.yul\":5561:5567   */\n      0x00\n        /* \"#utility.yul\":5588:5608   */\n      tag_229\n      tag_106\n      jump\t// in\n    tag_229:\n        /* \"#utility.yul\":5578:5608   */\n      swap1\n      pop\n        /* \"#utility.yul\":5617:5650   */\n      tag_230\n        /* \"#utility.yul\":5645:5649   */\n      dup3\n        /* \"#utility.yul\":5637:5643   */\n      dup3\n        /* \"#utility.yul\":5617:5650   */\n      tag_129\n      jump\t// in\n    tag_230:\n        /* \"#utility.yul\":5527:5656   */\n      swap2\n      swap1\n      pop\n      jump\t// out\n        /* \"#utility.yul\":5662:5969   */\n    tag_131:\n        /* \"#utility.yul\":5723:5727   */\n      0x00\n        /* \"#utility.yul\":5813:5831   */\n      0xffffffffffffffff\n        /* \"#utility.yul\":5805:5811   */\n      dup3\n        /* \"#utility.yul\":5802:5832   */\n      gt\n        /* \"#utility.yul\":5799:5855   */\n      iszero\n      tag_232\n      jumpi\n        /* \"#utility.yul\":5835:5853   */\n      tag_233\n      tag_128\n      jump\t// in\n    tag_233:\n        /* \"#utility.yul\":5799:5855   */\n    tag_232:\n        /* \"#utility.yul\":5873:5902   */\n      tag_234\n        /* \"#utility.yul\":5895:5901   */\n      dup3\n        /* \"#utility.yul\":5873:5902   */\n      tag_127\n      jump\t// in\n    tag_234:\n        /* \"#utility.yul\":5865:5902   */\n      swap1\n      pop\n        /* \"#utility.yul\":5957:5961   */\n      0x20\n        /* \"#utility.yul\":5951:5955   */\n      dup2\n        /* \"#utility.yul\":5947:5962   */\n      add\n        /* \"#utility.yul\":5939:5962   */\n      swap1\n      pop\n        /* \"#utility.yul\":5662:5969   */\n      swap2\n      swap1\n      pop\n      jump\t// out\n        /* \"#utility.yul\":5975:6121   */\n    tag_132:\n        /* \"#utility.yul\":6072:6078   */\n      dup3\n        /* \"#utility.yul\":6067:6070   */\n      dup2\n        /* \"#utility.yul\":6062:6065   */\n      dup4\n        /* \"#utility.yul\":6049:6079   */\n      calldatacopy\n        /* \"#utility.yul\":6113:6114   */\n      0x00\n        /* \"#utility.yul\":6104:6110   */\n      dup4\n        /* \"#utility.yul\":6099:6102   */\n      dup4\n        /* \"#utility.yul\":6095:6111   */\n      add\n        /* \"#utility.yul\":6088:6115   */\n      mstore\n        /* \"#utility.yul\":5975:6121   */\n      pop\n      pop\n      pop\n      jump\t// out\n        /* \"#utility.yul\":6127:6550   */\n    tag_133:\n        /* \"#utility.yul\":6204:6209   */\n      0x00\n        /* \"#utility.yul\":6229:6294   */\n      tag_237\n        /* \"#utility.yul\":6245:6293   */\n      tag_238\n        /* \"#utility.yul\":6286:6292   */\n      dup5\n        /* \"#utility.yul\":6245:6293   */\n      tag_131\n      jump\t// in\n    tag_238:\n        /* \"#utility.yul\":6229:6294   */\n      tag_130\n      jump\t// in\n    tag_237:\n        /* \"#utility.yul\":6220:6294   */\n      swap1\n      pop\n        /* \"#utility.yul\":6317:6323   */\n      dup3\n        /* \"#utility.yul\":6310:6315   */\n      dup2\n        /* \"#utility.yul\":6303:6324   */\n      mstore\n        /* \"#utility.yul\":6355:6359   */\n      0x20\n        /* \"#utility.yul\":6348:6353   */\n      dup2\n        /* \"#utility.yul\":6344:6360   */\n      add\n        /* \"#utility.yul\":6393:6396   */\n      dup5\n        /* \"#utility.yul\":6384:6390   */\n      dup5\n        /* \"#utility.yul\":6379:6382   */\n      dup5\n        /* \"#utility.yul\":6375:6391   */\n      add\n        /* \"#utility.yul\":6372:6397   */\n      gt\n        /* \"#utility.yul\":6369:6481   */\n      iszero\n      tag_239\n      jumpi\n        /* \"#utility.yul\":6400:6479   */\n      tag_240\n      tag_126\n      jump\t// in\n    tag_240:\n        /* \"#utility.yul\":6369:6481   */\n    tag_239:\n        /* \"#utility.yul\":6490:6544   */\n      tag_241\n        /* \"#utility.yul\":6537:6543   */\n      dup5\n        /* \"#utility.yul\":6532:6535   */\n      dup3\n        /* \"#utility.yul\":6527:6530   */\n      dup6\n        /* \"#utility.yul\":6490:6544   */\n      tag_132\n      jump\t// in\n    tag_241:\n        /* \"#utility.yul\":6210:6550   */\n      pop\n        /* \"#utility.yul\":6127:6550   */\n      swap4\n      swap3\n      pop\n      pop\n      pop\n      jump\t// out\n        /* \"#utility.yul\":6569:6907   */\n    tag_134:\n        /* \"#utility.yul\":6624:6629   */\n      0x00\n        /* \"#utility.yul\":6673:6676   */\n      dup3\n        /* \"#utility.yul\":6666:6670   */\n      0x1f\n        /* \"#utility.yul\":6658:6664   */\n      dup4\n        /* \"#utility.yul\":6654:6671   */\n      add\n        /* \"#utility.yul\":6650:6677   */\n      slt\n        /* \"#utility.yul\":6640:6762   */\n      tag_243\n      jumpi\n        /* \"#utility.yul\":6681:6760   */\n      tag_244\n      tag_125\n      jump\t// in\n    tag_244:\n        /* \"#utility.yul\":6640:6762   */\n    tag_243:\n        /* \"#utility.yul\":6798:6804   */\n      dup2\n        /* \"#utility.yul\":6785:6805   */\n      calldataload\n        /* \"#utility.yul\":6823:6901   */\n      tag_245\n        /* \"#utility.yul\":6897:6900   */\n      dup5\n        /* \"#utility.yul\":6889:6895   */\n      dup3\n        /* \"#utility.yul\":6882:6886   */\n      0x20\n        /* \"#utility.yul\":6874:6880   */\n      dup7\n        /* \"#utility.yul\":6870:6887   */\n      add\n        /* \"#utility.yul\":6823:6901   */\n      tag_133\n      jump\t// in\n    tag_245:\n        /* \"#utility.yul\":6814:6901   */\n      swap2\n      pop\n        /* \"#utility.yul\":6630:6907   */\n      pop\n        /* \"#utility.yul\":6569:6907   */\n      swap3\n      swap2\n      pop\n      pop\n      jump\t// out\n        /* \"#utility.yul\":6913:7726   */\n    tag_60:\n        /* \"#utility.yul\":7007:7013   */\n      0x00\n        /* \"#utility.yul\":7015:7021   */\n      dup1\n        /* \"#utility.yul\":7023:7029   */\n      0x00\n        /* \"#utility.yul\":7072:7074   */\n      0x60\n        /* \"#utility.yul\":7060:7069   */\n      dup5\n        /* \"#utility.yul\":7051:7058   */\n      dup7\n        /* \"#utility.yul\":7047:7070   */\n      sub\n        /* \"#utility.yul\":7043:7075   */\n      slt\n        /* \"#utility.yul\":7040:7159   */\n      iszero\n      tag_247\n      jumpi\n        /* \"#utility.yul\":7078:7157   */\n      tag_248\n      tag_107\n      jump\t// in\n    tag_248:\n        /* \"#utility.yul\":7040:7159   */\n    tag_247:\n        /* \"#utility.yul\":7198:7199   */\n      0x00\n        /* \"#utility.yul\":7223:7284   */\n      tag_249\n        /* \"#utility.yul\":7276:7283   */\n      dup7\n        /* \"#utility.yul\":7267:7273   */\n      dup3\n        /* \"#utility.yul\":7256:7265   */\n      dup8\n        /* \"#utility.yul\":7252:7274   */\n      add\n        /* \"#utility.yul\":7223:7284   */\n      tag_124\n      jump\t// in\n    tag_249:\n        /* \"#utility.yul\":7213:7284   */\n      swap4\n      pop\n        /* \"#utility.yul\":7169:7294   */\n      pop\n        /* \"#utility.yul\":7333:7335   */\n      0x20\n        /* \"#utility.yul\":7359:7412   */\n      tag_250\n        /* \"#utility.yul\":7404:7411   */\n      dup7\n        /* \"#utility.yul\":7395:7401   */\n      dup3\n        /* \"#utility.yul\":7384:7393   */\n      dup8\n        /* \"#utility.yul\":7380:7402   */\n      add\n        /* \"#utility.yul\":7359:7412   */\n      tag_119\n      jump\t// in\n    tag_250:\n        /* \"#utility.yul\":7349:7412   */\n      swap3\n      pop\n        /* \"#utility.yul\":7304:7422   */\n      pop\n        /* \"#utility.yul\":7489:7491   */\n      0x40\n        /* \"#utility.yul\":7478:7487   */\n      dup5\n        /* \"#utility.yul\":7474:7492   */\n      add\n        /* \"#utility.yul\":7461:7493   */\n      calldataload\n        /* \"#utility.yul\":7520:7538   */\n      0xffffffffffffffff\n        /* \"#utility.yul\":7512:7518   */\n      dup2\n        /* \"#utility.yul\":7509:7539   */\n      gt\n        /* \"#utility.yul\":7506:7623   */\n      iszero\n      tag_251\n      jumpi\n        /* \"#utility.yul\":7542:7621   */\n      tag_252\n      tag_108\n      jump\t// in\n    tag_252:\n        /* \"#utility.yul\":7506:7623   */\n    tag_251:\n        /* \"#utility.yul\":7647:7709   */\n      tag_253\n        /* \"#utility.yul\":7701:7708   */\n      dup7\n        /* \"#utility.yul\":7692:7698   */\n      dup3\n        /* \"#utility.yul\":7681:7690   */\n      dup8\n        /* \"#utility.yul\":7677:7699   */\n      add\n        /* \"#utility.yul\":7647:7709   */\n      tag_134\n      jump\t// in\n    tag_253:\n        /* \"#utility.yul\":7637:7709   */\n      swap2\n      pop\n        /* \"#utility.yul\":7432:7719   */\n      pop\n        /* \"#utility.yul\":6913:7726   */\n      swap3\n      pop\n      swap3\n      pop\n      swap3\n      jump\t// out\n        /* \"#utility.yul\":7732:7830   */\n    tag_135:\n        /* \"#utility.yul\":7783:7789   */\n      0x00\n        /* \"#utility.yul\":7817:7822   */\n      dup2\n        /* \"#utility.yul\":7811:7823   */\n      mload\n        /* \"#utility.yul\":7801:7823   */\n      swap1\n      pop\n        /* \"#utility.yul\":7732:7830   */\n      swap2\n      swap1\n      pop\n      jump\t// out\n        /* \"#utility.yul\":7836:8004   */\n    tag_136:\n        /* \"#utility.yul\":7919:7930   */\n      0x00\n        /* \"#utility.yul\":7953:7959   */\n      dup3\n        /* \"#utility.yul\":7948:7951   */\n      dup3\n        /* \"#utility.yul\":7941:7960   */\n      mstore\n        /* \"#utility.yul\":7993:7997   */\n      0x20\n        /* \"#utility.yul\":7988:7991   */\n      dup3\n        /* \"#utility.yul\":7984:7998   */\n      add\n        /* \"#utility.yul\":7969:7998   */\n      swap1\n      pop\n        /* \"#utility.yul\":7836:8004   */\n      swap3\n      swap2\n      pop\n      pop\n      jump\t// out\n        /* \"#utility.yul\":8010:8256   */\n    tag_137:\n        /* \"#utility.yul\":8091:8092   */\n      0x00\n        /* \"#utility.yul\":8101:8214   */\n    tag_257:\n        /* \"#utility.yul\":8115:8121   */\n      dup4\n        /* \"#utility.yul\":8112:8113   */\n      dup2\n        /* \"#utility.yul\":8109:8122   */\n      lt\n        /* \"#utility.yul\":8101:8214   */\n      iszero\n      tag_259\n      jumpi\n        /* \"#utility.yul\":8200:8201   */\n      dup1\n        /* \"#utility.yul\":8195:8198   */\n      dup3\n        /* \"#utility.yul\":8191:8202   */\n      add\n        /* \"#utility.yul\":8185:8203   */\n      mload\n        /* \"#utility.yul\":8181:8182   */\n      dup2\n        /* \"#utility.yul\":8176:8179   */\n      dup5\n        /* \"#utility.yul\":8172:8183   */\n      add\n        /* \"#utility.yul\":8165:8204   */\n      mstore\n        /* \"#utility.yul\":8137:8139   */\n      0x20\n        /* \"#utility.yul\":8134:8135   */\n      dup2\n        /* \"#utility.yul\":8130:8140   */\n      add\n        /* \"#utility.yul\":8125:8140   */\n      swap1\n      pop\n        /* \"#utility.yul\":8101:8214   */\n      jump(tag_257)\n    tag_259:\n        /* \"#utility.yul\":8248:8249   */\n      0x00\n        /* \"#utility.yul\":8239:8245   */\n      dup5\n        /* \"#utility.yul\":8234:8237   */\n      dup5\n        /* \"#utility.yul\":8230:8246   */\n      add\n        /* \"#utility.yul\":8223:8250   */\n      mstore\n        /* \"#utility.yul\":8072:8256   */\n      pop\n        /* \"#utility.yul\":8010:8256   */\n      pop\n      pop\n      pop\n      jump\t// out\n        /* \"#utility.yul\":8262:8635   */\n    tag_138:\n        /* \"#utility.yul\":8348:8351   */\n      0x00\n        /* \"#utility.yul\":8376:8414   */\n      tag_261\n        /* \"#utility.yul\":8408:8413   */\n      dup3\n        /* \"#utility.yul\":8376:8414   */\n      tag_135\n      jump\t// in\n    tag_261:\n        /* \"#utility.yul\":8430:8500   */\n      tag_262\n        /* \"#utility.yul\":8493:8499   */\n      dup2\n        /* \"#utility.yul\":8488:8491   */\n      dup6\n        /* \"#utility.yul\":8430:8500   */\n      tag_136\n      jump\t// in\n    tag_262:\n        /* \"#utility.yul\":8423:8500   */\n      swap4\n      pop\n        /* \"#utility.yul\":8509:8574   */\n      tag_263\n        /* \"#utility.yul\":8567:8573   */\n      dup2\n        /* \"#utility.yul\":8562:8565   */\n      dup6\n        /* \"#utility.yul\":8555:8559   */\n      0x20\n        /* \"#utility.yul\":8548:8553   */\n      dup7\n        /* \"#utility.yul\":8544:8560   */\n      add\n        /* \"#utility.yul\":8509:8574   */\n      tag_137\n      jump\t// in\n    tag_263:\n        /* \"#utility.yul\":8599:8628   */\n      tag_264\n        /* \"#utility.yul\":8621:8627   */\n      dup2\n        /* \"#utility.yul\":8599:8628   */\n      tag_127\n      jump\t// in\n    tag_264:\n        /* \"#utility.yul\":8594:8597   */\n      dup5\n        /* \"#utility.yul\":8590:8629   */\n      add\n        /* \"#utility.yul\":8583:8629   */\n      swap2\n      pop\n        /* \"#utility.yul\":8352:8635   */\n      pop\n        /* \"#utility.yul\":8262:8635   */\n      swap3\n      swap2\n      pop\n      pop\n      jump\t// out\n        /* \"#utility.yul\":8641:8950   */\n    tag_63:\n        /* \"#utility.yul\":8752:8756   */\n      0x00\n        /* \"#utility.yul\":8790:8792   */\n      0x20\n        /* \"#utility.yul\":8779:8788   */\n      dup3\n        /* \"#utility.yul\":8775:8793   */\n      add\n        /* \"#utility.yul\":8767:8793   */\n      swap1\n      pop\n        /* \"#utility.yul\":8839:8848   */\n      dup2\n        /* \"#utility.yul\":8833:8837   */\n      dup2\n        /* \"#utility.yul\":8829:8849   */\n      sub\n        /* \"#utility.yul\":8825:8826   */\n      0x00\n        /* \"#utility.yul\":8814:8823   */\n      dup4\n        /* \"#utility.yul\":8810:8827   */\n      add\n        /* \"#utility.yul\":8803:8850   */\n      mstore\n        /* \"#utility.yul\":8867:8943   */\n      tag_266\n        /* \"#utility.yul\":8938:8942   */\n      dup2\n        /* \"#utility.yul\":8929:8935   */\n      dup5\n        /* \"#utility.yul\":8867:8943   */\n      tag_138\n      jump\t// in\n    tag_266:\n        /* \"#utility.yul\":8859:8943   */\n      swap1\n      pop\n        /* \"#utility.yul\":8641:8950   */\n      swap3\n      swap2\n      pop\n      pop\n      jump\t// out\n        /* \"#utility.yul\":8956:9125   */\n    tag_139:\n        /* \"#utility.yul\":9040:9051   */\n      0x00\n        /* \"#utility.yul\":9074:9080   */\n      dup3\n        /* \"#utility.yul\":9069:9072   */\n      dup3\n        /* \"#utility.yul\":9062:9081   */\n      mstore\n        /* \"#utility.yul\":9114:9118   */\n      0x20\n        /* \"#utility.yul\":9109:9112   */\n      dup3\n        /* \"#utility.yul\":9105:9119   */\n      add\n        /* \"#utility.yul\":9090:9119   */\n      swap1\n      pop\n        /* \"#utility.yul\":8956:9125   */\n      swap3\n      swap2\n      pop\n      pop\n      jump\t// out\n        /* \"#utility.yul\":9131:9302   */\n    tag_140:\n        /* \"#utility.yul\":9271:9294   */\n      0x796f7520617265206e6f7420746865206f776e65720000000000000000000000\n        /* \"#utility.yul\":9267:9268   */\n      0x00\n        /* \"#utility.yul\":9259:9265   */\n      dup3\n        /* \"#utility.yul\":9255:9269   */\n      add\n        /* \"#utility.yul\":9248:9295   */\n      mstore\n        /* \"#utility.yul\":9131:9302   */\n      pop\n      jump\t// out\n        /* \"#utility.yul\":9308:9674   */\n    tag_141:\n        /* \"#utility.yul\":9450:9453   */\n      0x00\n        /* \"#utility.yul\":9471:9538   */\n      tag_270\n        /* \"#utility.yul\":9535:9537   */\n      0x15\n        /* \"#utility.yul\":9530:9533   */\n      dup4\n        /* \"#utility.yul\":9471:9538   */\n      tag_139\n      jump\t// in\n    tag_270:\n        /* \"#utility.yul\":9464:9538   */\n      swap2\n      pop\n        /* \"#utility.yul\":9547:9640   */\n      tag_271\n        /* \"#utility.yul\":9636:9639   */\n      dup3\n        /* \"#utility.yul\":9547:9640   */\n      tag_140\n      jump\t// in\n    tag_271:\n        /* \"#utility.yul\":9665:9667   */\n      0x20\n        /* \"#utility.yul\":9660:9663   */\n      dup3\n        /* \"#utility.yul\":9656:9668   */\n      add\n        /* \"#utility.yul\":9649:9668   */\n      swap1\n      pop\n        /* \"#utility.yul\":9308:9674   */\n      swap2\n      swap1\n      pop\n      jump\t// out\n        /* \"#utility.yul\":9680:10099   */\n    tag_67:\n        /* \"#utility.yul\":9846:9850   */\n      0x00\n        /* \"#utility.yul\":9884:9886   */\n      0x20\n        /* \"#utility.yul\":9873:9882   */\n      dup3\n        /* \"#utility.yul\":9869:9887   */\n      add\n        /* \"#utility.yul\":9861:9887   */\n      swap1\n      pop\n        /* \"#utility.yul\":9933:9942   */\n      dup2\n        /* \"#utility.yul\":9927:9931   */\n      dup2\n        /* \"#utility.yul\":9923:9943   */\n      sub\n        /* \"#utility.yul\":9919:9920   */\n      0x00\n        /* \"#utility.yul\":9908:9917   */\n      dup4\n        /* \"#utility.yul\":9904:9921   */\n      add\n        /* \"#utility.yul\":9897:9944   */\n      mstore\n        /* \"#utility.yul\":9961:10092   */\n      tag_273\n        /* \"#utility.yul\":10087:10091   */\n      dup2\n        /* \"#utility.yul\":9961:10092   */\n      tag_141\n      jump\t// in\n    tag_273:\n        /* \"#utility.yul\":9953:10092   */\n      swap1\n      pop\n        /* \"#utility.yul\":9680:10099   */\n      swap2\n      swap1\n      pop\n      jump\t// out\n        /* \"#utility.yul\":10105:10287   */\n    tag_142:\n        /* \"#utility.yul\":10245:10279   */\n      0x796f7520617265206e6f7420746865206f776e65722c2061626f7274696e6721\n        /* \"#utility.yul\":10241:10242   */\n      0x00\n        /* \"#utility.yul\":10233:10239   */\n      dup3\n        /* \"#utility.yul\":10229:10243   */\n      add\n        /* \"#utility.yul\":10222:10280   */\n      mstore\n        /* \"#utility.yul\":10105:10287   */\n      pop\n      jump\t// out\n        /* \"#utility.yul\":10293:10659   */\n    tag_143:\n        /* \"#utility.yul\":10435:10438   */\n      0x00\n        /* \"#utility.yul\":10456:10523   */\n      tag_276\n        /* \"#utility.yul\":10520:10522   */\n      0x20\n        /* \"#utility.yul\":10515:10518   */\n      dup4\n        /* \"#utility.yul\":10456:10523   */\n      tag_139\n      jump\t// in\n    tag_276:\n        /* \"#utility.yul\":10449:10523   */\n      swap2\n      pop\n        /* \"#utility.yul\":10532:10625   */\n      tag_277\n        /* \"#utility.yul\":10621:10624   */\n      dup3\n        /* \"#utility.yul\":10532:10625   */\n      tag_142\n      jump\t// in\n    tag_277:\n        /* \"#utility.yul\":10650:10652   */\n      0x20\n        /* \"#utility.yul\":10645:10648   */\n      dup3\n        /* \"#utility.yul\":10641:10653   */\n      add\n        /* \"#utility.yul\":10634:10653   */\n      swap1\n      pop\n        /* \"#utility.yul\":10293:10659   */\n      swap2\n      swap1\n      pop\n      jump\t// out\n        /* \"#utility.yul\":10665:11084   */\n    tag_71:\n        /* \"#utility.yul\":10831:10835   */\n      0x00\n        /* \"#utility.yul\":10869:10871   */\n      0x20\n        /* \"#utility.yul\":10858:10867   */\n      dup3\n        /* \"#utility.yul\":10854:10872   */\n      add\n        /* \"#utility.yul\":10846:10872   */\n      swap1\n      pop\n        /* \"#utility.yul\":10918:10927   */\n      dup2\n        /* \"#utility.yul\":10912:10916   */\n      dup2\n        /* \"#utility.yul\":10908:10928   */\n      sub\n        /* \"#utility.yul\":10904:10905   */\n      0x00\n        /* \"#utility.yul\":10893:10902   */\n      dup4\n        /* \"#utility.yul\":10889:10906   */\n      add\n        /* \"#utility.yul\":10882:10929   */\n      mstore\n        /* \"#utility.yul\":10946:11077   */\n      tag_279\n        /* \"#utility.yul\":11072:11076   */\n      dup2\n        /* \"#utility.yul\":10946:11077   */\n      tag_143\n      jump\t// in\n    tag_279:\n        /* \"#utility.yul\":10938:11077   */\n      swap1\n      pop\n        /* \"#utility.yul\":10665:11084   */\n      swap2\n      swap1\n      pop\n      jump\t// out\n        /* \"#utility.yul\":11090:11312   */\n    tag_144:\n        /* \"#utility.yul\":11230:11264   */\n      0x796f7520617265206e6f7420677561726469616e206f6620746869732077616c\n        /* \"#utility.yul\":11226:11227   */\n      0x00\n        /* \"#utility.yul\":11218:11224   */\n      dup3\n        /* \"#utility.yul\":11214:11228   */\n      add\n        /* \"#utility.yul\":11207:11265   */\n      mstore\n        /* \"#utility.yul\":11299:11304   */\n      0x6c65740000000000000000000000000000000000000000000000000000000000\n        /* \"#utility.yul\":11294:11296   */\n      0x20\n        /* \"#utility.yul\":11286:11292   */\n      dup3\n        /* \"#utility.yul\":11282:11297   */\n      add\n        /* \"#utility.yul\":11275:11305   */\n      mstore\n        /* \"#utility.yul\":11090:11312   */\n      pop\n      jump\t// out\n        /* \"#utility.yul\":11318:11684   */\n    tag_145:\n        /* \"#utility.yul\":11460:11463   */\n      0x00\n        /* \"#utility.yul\":11481:11548   */\n      tag_282\n        /* \"#utility.yul\":11545:11547   */\n      0x23\n        /* \"#utility.yul\":11540:11543   */\n      dup4\n        /* \"#utility.yul\":11481:11548   */\n      tag_139\n      jump\t// in\n    tag_282:\n        /* \"#utility.yul\":11474:11548   */\n      swap2\n      pop\n        /* \"#utility.yul\":11557:11650   */\n      tag_283\n        /* \"#utility.yul\":11646:11649   */\n      dup3\n        /* \"#utility.yul\":11557:11650   */\n      tag_144\n      jump\t// in\n    tag_283:\n        /* \"#utility.yul\":11675:11677   */\n      0x40\n        /* \"#utility.yul\":11670:11673   */\n      dup3\n        /* \"#utility.yul\":11666:11678   */\n      add\n        /* \"#utility.yul\":11659:11678   */\n      swap1\n      pop\n        /* \"#utility.yul\":11318:11684   */\n      swap2\n      swap1\n      pop\n      jump\t// out\n        /* \"#utility.yul\":11690:12109   */\n    tag_77:\n        /* \"#utility.yul\":11856:11860   */\n      0x00\n        /* \"#utility.yul\":11894:11896   */\n      0x20\n        /* \"#utility.yul\":11883:11892   */\n      dup3\n        /* \"#utility.yul\":11879:11897   */\n      add\n        /* \"#utility.yul\":11871:11897   */\n      swap1\n      pop\n        /* \"#utility.yul\":11943:11952   */\n      dup2\n        /* \"#utility.yul\":11937:11941   */\n      dup2\n        /* \"#utility.yul\":11933:11953   */\n      sub\n        /* \"#utility.yul\":11929:11930   */\n      0x00\n        /* \"#utility.yul\":11918:11927   */\n      dup4\n        /* \"#utility.yul\":11914:11931   */\n      add\n        /* \"#utility.yul\":11907:11954   */\n      mstore\n        /* \"#utility.yul\":11971:12102   */\n      tag_285\n        /* \"#utility.yul\":12097:12101   */\n      dup2\n        /* \"#utility.yul\":11971:12102   */\n      tag_145\n      jump\t// in\n    tag_285:\n        /* \"#utility.yul\":11963:12102   */\n      swap1\n      pop\n        /* \"#utility.yul\":11690:12109   */\n      swap2\n      swap1\n      pop\n      jump\t// out\n        /* \"#utility.yul\":12115:12286   */\n    tag_146:\n        /* \"#utility.yul\":12255:12278   */\n      0x596f752061726520616c726561647920766f7465640000000000000000000000\n        /* \"#utility.yul\":12251:12252   */\n      0x00\n        /* \"#utility.yul\":12243:12249   */\n      dup3\n        /* \"#utility.yul\":12239:12253   */\n      add\n        /* \"#utility.yul\":12232:12279   */\n      mstore\n        /* \"#utility.yul\":12115:12286   */\n      pop\n      jump\t// out\n        /* \"#utility.yul\":12292:12658   */\n    tag_147:\n        /* \"#utility.yul\":12434:12437   */\n      0x00\n        /* \"#utility.yul\":12455:12522   */\n      tag_288\n        /* \"#utility.yul\":12519:12521   */\n      0x15\n        /* \"#utility.yul\":12514:12517   */\n      dup4\n        /* \"#utility.yul\":12455:12522   */\n      tag_139\n      jump\t// in\n    tag_288:\n        /* \"#utility.yul\":12448:12522   */\n      swap2\n      pop\n        /* \"#utility.yul\":12531:12624   */\n      tag_289\n        /* \"#utility.yul\":12620:12623   */\n      dup3\n        /* \"#utility.yul\":12531:12624   */\n      tag_146\n      jump\t// in\n    tag_289:\n        /* \"#utility.yul\":12649:12651   */\n      0x20\n        /* \"#utility.yul\":12644:12647   */\n      dup3\n        /* \"#utility.yul\":12640:12652   */\n      add\n        /* \"#utility.yul\":12633:12652   */\n      swap1\n      pop\n        /* \"#utility.yul\":12292:12658   */\n      swap2\n      swap1\n      pop\n      jump\t// out\n        /* \"#utility.yul\":12664:13083   */\n    tag_80:\n        /* \"#utility.yul\":12830:12834   */\n      0x00\n        /* \"#utility.yul\":12868:12870   */\n      0x20\n        /* \"#utility.yul\":12857:12866   */\n      dup3\n        /* \"#utility.yul\":12853:12871   */\n      add\n        /* \"#utility.yul\":12845:12871   */\n      swap1\n      pop\n        /* \"#utility.yul\":12917:12926   */\n      dup2\n        /* \"#utility.yul\":12911:12915   */\n      dup2\n        /* \"#utility.yul\":12907:12927   */\n      sub\n        /* \"#utility.yul\":12903:12904   */\n      0x00\n        /* \"#utility.yul\":12892:12901   */\n      dup4\n        /* \"#utility.yul\":12888:12905   */\n      add\n        /* \"#utility.yul\":12881:12928   */\n      mstore\n        /* \"#utility.yul\":12945:13076   */\n      tag_291\n        /* \"#utility.yul\":13071:13075   */\n      dup2\n        /* \"#utility.yul\":12945:13076   */\n      tag_147\n      jump\t// in\n    tag_291:\n        /* \"#utility.yul\":12937:13076   */\n      swap1\n      pop\n        /* \"#utility.yul\":12664:13083   */\n      swap2\n      swap1\n      pop\n      jump\t// out\n        /* \"#utility.yul\":13089:13269   */\n    tag_148:\n        /* \"#utility.yul\":13137:13214   */\n      0x4e487b7100000000000000000000000000000000000000000000000000000000\n        /* \"#utility.yul\":13134:13135   */\n      0x00\n        /* \"#utility.yul\":13127:13215   */\n      mstore\n        /* \"#utility.yul\":13234:13238   */\n      0x11\n        /* \"#utility.yul\":13231:13232   */\n      0x04\n        /* \"#utility.yul\":13224:13239   */\n      mstore\n        /* \"#utility.yul\":13258:13262   */\n      0x24\n        /* \"#utility.yul\":13255:13256   */\n      0x00\n        /* \"#utility.yul\":13248:13263   */\n      revert\n        /* \"#utility.yul\":13275:13508   */\n    tag_83:\n        /* \"#utility.yul\":13314:13317   */\n      0x00\n        /* \"#utility.yul\":13337:13361   */\n      tag_294\n        /* \"#utility.yul\":13355:13360   */\n      dup3\n        /* \"#utility.yul\":13337:13361   */\n      tag_117\n      jump\t// in\n    tag_294:\n        /* \"#utility.yul\":13328:13361   */\n      swap2\n      pop\n        /* \"#utility.yul\":13383:13449   */\n      0xffffffffffffffffffffffffffffffffffffffffffffffffffffffffffffffff\n        /* \"#utility.yul\":13376:13381   */\n      dup3\n        /* \"#utility.yul\":13373:13450   */\n      sub\n        /* \"#utility.yul\":13370:13473   */\n      tag_295\n      jumpi\n        /* \"#utility.yul\":13453:13471   */\n      tag_296\n      tag_148\n      jump\t// in\n    tag_296:\n        /* \"#utility.yul\":13370:13473   */\n    tag_295:\n        /* \"#utility.yul\":13500:13501   */\n      0x01\n        /* \"#utility.yul\":13493:13498   */\n      dup3\n        /* \"#utility.yul\":13489:13502   */\n      add\n        /* \"#utility.yul\":13482:13502   */\n      swap1\n      pop\n        /* \"#utility.yul\":13275:13508   */\n      swap2\n      swap1\n      pop\n      jump\t// out\n        /* \"#utility.yul\":13514:13696   */\n    tag_149:\n        /* \"#utility.yul\":13654:13688   */\n      0x596f7520617265206e6f7420746865206f776e65722c2061626f7274696e6721\n        /* \"#utility.yul\":13650:13651   */\n      0x00\n        /* \"#utility.yul\":13642:13648   */\n      dup3\n        /* \"#utility.yul\":13638:13652   */\n      add\n        /* \"#utility.yul\":13631:13689   */\n      mstore\n        /* \"#utility.yul\":13514:13696   */\n      pop\n      jump\t// out\n        /* \"#utility.yul\":13702:14068   */\n    tag_150:\n        /* \"#utility.yul\":13844:13847   */\n      0x00\n        /* \"#utility.yul\":13865:13932   */\n      tag_299\n        /* \"#utility.yul\":13929:13931   */\n      0x20\n        /* \"#utility.yul\":13924:13927   */\n      dup4\n        /* \"#utility.yul\":13865:13932   */\n      tag_139\n      jump\t// in\n    tag_299:\n        /* \"#utility.yul\":13858:13932   */\n      swap2\n      pop\n        /* \"#utility.yul\":13941:14034   */\n      tag_300\n        /* \"#utility.yul\":14030:14033   */\n      dup3\n        /* \"#utility.yul\":13941:14034   */\n      tag_149\n      jump\t// in\n    tag_300:\n        /* \"#utility.yul\":14059:14061   */\n      0x20\n        /* \"#utility.yul\":14054:14057   */\n      dup3\n        /* \"#utility.yul\":14050:14062   */\n      add\n        /* \"#utility.yul\":14043:14062   */\n      swap1\n      pop\n        /* \"#utility.yul\":13702:14068   */\n      swap2\n      swap1\n      pop\n      jump\t// out\n        /* \"#utility.yul\":14074:14493   */\n    tag_88:\n        /* \"#utility.yul\":14240:14244   */\n      0x00\n        /* \"#utility.yul\":14278:14280   */\n      0x20\n        /* \"#utility.yul\":14267:14276   */\n      dup3\n        /* \"#utility.yul\":14263:14281   */\n      add\n        /* \"#utility.yul\":14255:14281   */\n      swap1\n      pop\n        /* \"#utility.yul\":14327:14336   */\n      dup2\n        /* \"#utility.yul\":14321:14325   */\n      dup2\n        /* \"#utility.yul\":14317:14337   */\n      sub\n        /* \"#utility.yul\":14313:14314   */\n      0x00\n        /* \"#utility.yul\":14302:14311   */\n      dup4\n        /* \"#utility.yul\":14298:14315   */\n      add\n        /* \"#utility.yul\":14291:14338   */\n      mstore\n        /* \"#utility.yul\":14355:14486   */\n      tag_302\n        /* \"#utility.yul\":14481:14485   */\n      dup2\n        /* \"#utility.yul\":14355:14486   */\n      tag_150\n      jump\t// in\n    tag_302:\n        /* \"#utility.yul\":14347:14486   */\n      swap1\n      pop\n        /* \"#utility.yul\":14074:14493   */\n      swap2\n      swap1\n      pop\n      jump\t// out\n        /* \"#utility.yul\":14499:14795   */\n    tag_151:\n        /* \"#utility.yul\":14639:14673   */\n      0x596f7520617265206e6f7420616c6c6f77656420746f2073656e6420616e7974\n        /* \"#utility.yul\":14635:14636   */\n      0x00\n        /* \"#utility.yul\":14627:14633   */\n      dup3\n        /* \"#utility.yul\":14623:14637   */\n      add\n        /* \"#utility.yul\":14616:14674   */\n      mstore\n        /* \"#utility.yul\":14708:14742   */\n      0x68696e672066726f6d207468697320736d61727420636f6e74726163742c2041\n        /* \"#utility.yul\":14703:14705   */\n      0x20\n        /* \"#utility.yul\":14695:14701   */\n      dup3\n        /* \"#utility.yul\":14691:14706   */\n      add\n        /* \"#utility.yul\":14684:14743   */\n      mstore\n        /* \"#utility.yul\":14777:14787   */\n      0x626f7274696e6721000000000000000000000000000000000000000000000000\n        /* \"#utility.yul\":14772:14774   */\n      0x40\n        /* \"#utility.yul\":14764:14770   */\n      dup3\n        /* \"#utility.yul\":14760:14775   */\n      add\n        /* \"#utility.yul\":14753:14788   */\n      mstore\n        /* \"#utility.yul\":14499:14795   */\n      pop\n      jump\t// out\n        /* \"#utility.yul\":14801:15167   */\n    tag_152:\n        /* \"#utility.yul\":14943:14946   */\n      0x00\n        /* \"#utility.yul\":14964:15031   */\n      tag_305\n        /* \"#utility.yul\":15028:15030   */\n      0x48\n        /* \"#utility.yul\":15023:15026   */\n      dup4\n        /* \"#utility.yul\":14964:15031   */\n      tag_139\n      jump\t// in\n    tag_305:\n        /* \"#utility.yul\":14957:15031   */\n      swap2\n      pop\n        /* \"#utility.yul\":15040:15133   */\n      tag_306\n        /* \"#utility.yul\":15129:15132   */\n      dup3\n        /* \"#utility.yul\":15040:15133   */\n      tag_151\n      jump\t// in\n    tag_306:\n        /* \"#utility.yul\":15158:15160   */\n      0x60\n        /* \"#utility.yul\":15153:15156   */\n      dup3\n        /* \"#utility.yul\":15149:15161   */\n      add\n        /* \"#utility.yul\":15142:15161   */\n      swap1\n      pop\n        /* \"#utility.yul\":14801:15167   */\n      swap2\n      swap1\n      pop\n      jump\t// out\n        /* \"#utility.yul\":15173:15592   */\n    tag_92:\n        /* \"#utility.yul\":15339:15343   */\n      0x00\n        /* \"#utility.yul\":15377:15379   */\n      0x20\n        /* \"#utility.yul\":15366:15375   */\n      dup3\n        /* \"#utility.yul\":15362:15380   */\n      add\n        /* \"#utility.yul\":15354:15380   */\n      swap1\n      pop\n        /* \"#utility.yul\":15426:15435   */\n      dup2\n        /* \"#utility.yul\":15420:15424   */\n      dup2\n        /* \"#utility.yul\":15416:15436   */\n      sub\n        /* \"#utility.yul\":15412:15413   */\n      0x00\n        /* \"#utility.yul\":15401:15410   */\n      dup4\n        /* \"#utility.yul\":15397:15414   */\n      add\n        /* \"#utility.yul\":15390:15437   */\n      mstore\n        /* \"#utility.yul\":15454:15585   */\n      tag_308\n        /* \"#utility.yul\":15580:15584   */\n      dup2\n        /* \"#utility.yul\":15454:15585   */\n      tag_152\n      jump\t// in\n    tag_308:\n        /* \"#utility.yul\":15446:15585   */\n      swap1\n      pop\n        /* \"#utility.yul\":15173:15592   */\n      swap2\n      swap1\n      pop\n      jump\t// out\n        /* \"#utility.yul\":15598:15825   */\n    tag_153:\n        /* \"#utility.yul\":15738:15772   */\n      0x596f75206172652073656e64696e67206d6f7265207468616e20796f75722061\n        /* \"#utility.yul\":15734:15735   */\n      0x00\n        /* \"#utility.yul\":15726:15732   */\n      dup3\n        /* \"#utility.yul\":15722:15736   */\n      add\n        /* \"#utility.yul\":15715:15773   */\n      mstore\n        /* \"#utility.yul\":15807:15817   */\n      0x6c6c6f77616e6365000000000000000000000000000000000000000000000000\n        /* \"#utility.yul\":15802:15804   */\n      0x20\n        /* \"#utility.yul\":15794:15800   */\n      dup3\n        /* \"#utility.yul\":15790:15805   */\n      add\n        /* \"#utility.yul\":15783:15818   */\n      mstore\n        /* \"#utility.yul\":15598:15825   */\n      pop\n      jump\t// out\n        /* \"#utility.yul\":15831:16197   */\n    tag_154:\n        /* \"#utility.yul\":15973:15976   */\n      0x00\n        /* \"#utility.yul\":15994:16061   */\n      tag_311\n        /* \"#utility.yul\":16058:16060   */\n      0x28\n        /* \"#utility.yul\":16053:16056   */\n      dup4\n        /* \"#utility.yul\":15994:16061   */\n      tag_139\n      jump\t// in\n    tag_311:\n        /* \"#utility.yul\":15987:16061   */\n      swap2\n      pop\n        /* \"#utility.yul\":16070:16163   */\n      tag_312\n        /* \"#utility.yul\":16159:16162   */\n      dup3\n        /* \"#utility.yul\":16070:16163   */\n      tag_153\n      jump\t// in\n    tag_312:\n        /* \"#utility.yul\":16188:16190   */\n      0x40\n        /* \"#utility.yul\":16183:16186   */\n      dup3\n        /* \"#utility.yul\":16179:16191   */\n      add\n        /* \"#utility.yul\":16172:16191   */\n      swap1\n      pop\n        /* \"#utility.yul\":15831:16197   */\n      swap2\n      swap1\n      pop\n      jump\t// out\n        /* \"#utility.yul\":16203:16622   */\n    tag_95:\n        /* \"#utility.yul\":16369:16373   */\n      0x00\n        /* \"#utility.yul\":16407:16409   */\n      0x20\n        /* \"#utility.yul\":16396:16405   */\n      dup3\n        /* \"#utility.yul\":16392:16410   */\n      add\n        /* \"#utility.yul\":16384:16410   */\n      swap1\n      pop\n        /* \"#utility.yul\":16456:16465   */\n      dup2\n        /* \"#utility.yul\":16450:16454   */\n      dup2\n        /* \"#utility.yul\":16446:16466   */\n      sub\n        /* \"#utility.yul\":16442:16443   */\n      0x00\n        /* \"#utility.yul\":16431:16440   */\n      dup4\n        /* \"#utility.yul\":16427:16444   */\n      add\n        /* \"#utility.yul\":16420:16467   */\n      mstore\n        /* \"#utility.yul\":16484:16615   */\n      tag_314\n        /* \"#utility.yul\":16610:16614   */\n      dup2\n        /* \"#utility.yul\":16484:16615   */\n      tag_154\n      jump\t// in\n    tag_314:\n        /* \"#utility.yul\":16476:16615   */\n      swap1\n      pop\n        /* \"#utility.yul\":16203:16622   */\n      swap2\n      swap1\n      pop\n      jump\t// out\n        /* \"#utility.yul\":16628:16822   */\n    tag_97:\n        /* \"#utility.yul\":16668:16672   */\n      0x00\n        /* \"#utility.yul\":16688:16708   */\n      tag_316\n        /* \"#utility.yul\":16706:16707   */\n      dup3\n        /* \"#utility.yul\":16688:16708   */\n      tag_117\n      jump\t// in\n    tag_316:\n        /* \"#utility.yul\":16683:16708   */\n      swap2\n      pop\n        /* \"#utility.yul\":16722:16742   */\n      tag_317\n        /* \"#utility.yul\":16740:16741   */\n      dup4\n        /* \"#utility.yul\":16722:16742   */\n      tag_117\n      jump\t// in\n    tag_317:\n        /* \"#utility.yul\":16717:16742   */\n      swap3\n      pop\n        /* \"#utility.yul\":16766:16767   */\n      dup3\n        /* \"#utility.yul\":16763:16764   */\n      dup3\n        /* \"#utility.yul\":16759:16768   */\n      sub\n        /* \"#utility.yul\":16751:16768   */\n      swap1\n      pop\n        /* \"#utility.yul\":16790:16791   */\n      dup2\n        /* \"#utility.yul\":16784:16788   */\n      dup2\n        /* \"#utility.yul\":16781:16792   */\n      gt\n        /* \"#utility.yul\":16778:16815   */\n      iszero\n      tag_318\n      jumpi\n        /* \"#utility.yul\":16795:16813   */\n      tag_319\n      tag_148\n      jump\t// in\n    tag_319:\n        /* \"#utility.yul\":16778:16815   */\n    tag_318:\n        /* \"#utility.yul\":16628:16822   */\n      swap3\n      swap2\n      pop\n      pop\n      jump\t// out\n        /* \"#utility.yul\":16828:16975   */\n    tag_155:\n        /* \"#utility.yul\":16929:16940   */\n      0x00\n        /* \"#utility.yul\":16966:16969   */\n      dup2\n        /* \"#utility.yul\":16951:16969   */\n      swap1\n      pop\n        /* \"#utility.yul\":16828:16975   */\n      swap3\n      swap2\n      pop\n      pop\n      jump\t// out\n        /* \"#utility.yul\":16981:17367   */\n    tag_156:\n        /* \"#utility.yul\":17085:17088   */\n      0x00\n        /* \"#utility.yul\":17113:17151   */\n      tag_322\n        /* \"#utility.yul\":17145:17150   */\n      dup3\n        /* \"#utility.yul\":17113:17151   */\n      tag_135\n      jump\t// in\n    tag_322:\n        /* \"#utility.yul\":17167:17255   */\n      tag_323\n        /* \"#utility.yul\":17248:17254   */\n      dup2\n        /* \"#utility.yul\":17243:17246   */\n      dup6\n        /* \"#utility.yul\":17167:17255   */\n      tag_155\n      jump\t// in\n    tag_323:\n        /* \"#utility.yul\":17160:17255   */\n      swap4\n      pop\n        /* \"#utility.yul\":17264:17329   */\n      tag_324\n        /* \"#utility.yul\":17322:17328   */\n      dup2\n        /* \"#utility.yul\":17317:17320   */\n      dup6\n        /* \"#utility.yul\":17310:17314   */\n      0x20\n        /* \"#utility.yul\":17303:17308   */\n      dup7\n        /* \"#utility.yul\":17299:17315   */\n      add\n        /* \"#utility.yul\":17264:17329   */\n      tag_137\n      jump\t// in\n    tag_324:\n        /* \"#utility.yul\":17354:17360   */\n      dup1\n        /* \"#utility.yul\":17349:17352   */\n      dup5\n        /* \"#utility.yul\":17345:17361   */\n      add\n        /* \"#utility.yul\":17338:17361   */\n      swap2\n      pop\n        /* \"#utility.yul\":17089:17367   */\n      pop\n        /* \"#utility.yul\":16981:17367   */\n      swap3\n      swap2\n      pop\n      pop\n      jump\t// out\n        /* \"#utility.yul\":17373:17644   */\n    tag_99:\n        /* \"#utility.yul\":17503:17506   */\n      0x00\n        /* \"#utility.yul\":17525:17618   */\n      tag_326\n        /* \"#utility.yul\":17614:17617   */\n      dup3\n        /* \"#utility.yul\":17605:17611   */\n      dup5\n        /* \"#utility.yul\":17525:17618   */\n      tag_156\n      jump\t// in\n    tag_326:\n        /* \"#utility.yul\":17518:17618   */\n      swap2\n      pop\n        /* \"#utility.yul\":17635:17638   */\n      dup2\n        /* \"#utility.yul\":17628:17638   */\n      swap1\n      pop\n        /* \"#utility.yul\":17373:17644   */\n      swap3\n      swap2\n      pop\n      pop\n      jump\t// out\n        /* \"#utility.yul\":17650:17831   */\n    tag_157:\n        /* \"#utility.yul\":17790:17823   */\n      0x41626f7274696e672c2063616c6c20776173206e6f7420657865637574656400\n        /* \"#utility.yul\":17786:17787   */\n      0x00\n        /* \"#utility.yul\":17778:17784   */\n      dup3\n        /* \"#utility.yul\":17774:17788   */\n      add\n        /* \"#utility.yul\":17767:17824   */\n      mstore\n        /* \"#utility.yul\":17650:17831   */\n      pop\n      jump\t// out\n        /* \"#utility.yul\":17837:18203   */\n    tag_158:\n        /* \"#utility.yul\":17979:17982   */\n      0x00\n        /* \"#utility.yul\":18000:18067   */\n      tag_329\n        /* \"#utility.yul\":18064:18066   */\n      0x1f\n        /* \"#utility.yul\":18059:18062   */\n      dup4\n        /* \"#utility.yul\":18000:18067   */\n      tag_139\n      jump\t// in\n    tag_329:\n        /* \"#utility.yul\":17993:18067   */\n      swap2\n      pop\n        /* \"#utility.yul\":18076:18169   */\n      tag_330\n        /* \"#utility.yul\":18165:18168   */\n      dup3\n        /* \"#utility.yul\":18076:18169   */\n      tag_157\n      jump\t// in\n    tag_330:\n        /* \"#utility.yul\":18194:18196   */\n      0x20\n        /* \"#utility.yul\":18189:18192   */\n      dup3\n        /* \"#utility.yul\":18185:18197   */\n      add\n        /* \"#utility.yul\":18178:18197   */\n      swap1\n      pop\n        /* \"#utility.yul\":17837:18203   */\n      swap2\n      swap1\n      pop\n      jump\t// out\n        /* \"#utility.yul\":18209:18628   */\n    tag_105:\n        /* \"#utility.yul\":18375:18379   */\n      0x00\n        /* \"#utility.yul\":18413:18415   */\n      0x20\n        /* \"#utility.yul\":18402:18411   */\n      dup3\n        /* \"#utility.yul\":18398:18416   */\n      add\n        /* \"#utility.yul\":18390:18416   */\n      swap1\n      pop\n        /* \"#utility.yul\":18462:18471   */\n      dup2\n        /* \"#utility.yul\":18456:18460   */\n      dup2\n        /* \"#utility.yul\":18452:18472   */\n      sub\n        /* \"#utility.yul\":18448:18449   */\n      0x00\n        /* \"#utility.yul\":18437:18446   */\n      dup4\n        /* \"#utility.yul\":18433:18450   */\n      add\n        /* \"#utility.yul\":18426:18473   */\n      mstore\n        /* \"#utility.yul\":18490:18621   */\n      tag_332\n        /* \"#utility.yul\":18616:18620   */\n      dup2\n        /* \"#utility.yul\":18490:18621   */\n      tag_158\n      jump\t// in\n    tag_332:\n        /* \"#utility.yul\":18482:18621   */\n      swap1\n      pop\n        /* \"#utility.yul\":18209:18628   */\n      swap2\n      swap1\n      pop\n      jump\t// out\n\n    auxdata: 0xa264697066735822122050bb85cacc5157c754ee65b7a103188c95864818e573178204b62a45229bdfc964736f6c63430008100033\n}\n",
				"bytecode": {
					"linkReferences": {},
					"object": "608060405234801561001057600080fd5b50336000806101000a81548173ffffffffffffffffffffffffffffffffffffffff021916908373ffffffffffffffffffffffffffffffffffffffff16021790555061152c806100606000396000f3fe60806040526004361061008a5760003560e01c80633e5beab9116100595780633e5beab91461016257806383012be11461019f5780638da5cb5b146101ca578063b1f8100d146101f5578063be45fd621461021e57610091565b80630633b14a146100965780630bc605ad146100d35780632b8a1c5a14610110578063310ec4a71461013957610091565b3661009157005b600080fd5b3480156100a257600080fd5b506100bd60048036038101906100b89190610b95565b61025b565b6040516100ca9190610bdd565b60405180910390f35b3480156100df57600080fd5b506100fa60048036038101906100f59190610b95565b61027b565b6040516101079190610bdd565b60405180910390f35b34801561011c57600080fd5b5061013760048036038101906101329190610c24565b61029b565b005b34801561014557600080fd5b50610160600480360381019061015b9190610c9a565b610384565b005b34801561016e57600080fd5b5061018960048036038101906101849190610b95565b610519565b6040516101969190610ce9565b60405180910390f35b3480156101ab57600080fd5b506101b4610531565b6040516101c19190610ce9565b60405180910390f35b3480156101d657600080fd5b506101df610536565b6040516101ec9190610d25565b60405180910390f35b34801561020157600080fd5b5061021c60048036038101906102179190610d6c565b61055a565b005b34801561022a57600080fd5b5061024560048036038101906102409190610edf565b61081f565b6040516102529190610fcd565b60405180910390f35b60036020528060005260406000206000915054906101000a900460ff1681565b60026020528060005260406000206000915054906101000a900460ff1681565b60008054906101000a900473ffffffffffffffffffffffffffffffffffffffff1673ffffffffffffffffffffffffffffffffffffffff163373ffffffffffffffffffffffffffffffffffffffff1614610329576040517f08c379a00000000000000000000000000000000000000000000000000000000081526004016103209061104c565b60405180910390fd5b80600360008473ffffffffffffffffffffffffffffffffffffffff1673ffffffffffffffffffffffffffffffffffffffff16815260200190815260200160002060006101000a81548160ff0219169083151502179055505050565b60008054906101000a900473ffffffffffffffffffffffffffffffffffffffff1673ffffffffffffffffffffffffffffffffffffffff163373ffffffffffffffffffffffffffffffffffffffff1614610412576040517f08c379a0000000000000000000000000000000000000000000000000000000008152600401610409906110b8565b60405180910390fd5b80600160008473ffffffffffffffffffffffffffffffffffffffff1673ffffffffffffffffffffffffffffffffffffffff1681526020019081526020016000208190555060008111156104bc576001600260008473ffffffffffffffffffffffffffffffffffffffff1673ffffffffffffffffffffffffffffffffffffffff16815260200190815260200160002060006101000a81548160ff021916908315150217905550610515565b6000600260008473ffffffffffffffffffffffffffffffffffffffff1673ffffffffffffffffffffffffffffffffffffffff16815260200190815260200160002060006101000a81548160ff0219169083151502179055505b5050565b60016020528060005260406000206000915090505481565b600381565b60008054906101000a900473ffffffffffffffffffffffffffffffffffffffff1681565b600360003373ffffffffffffffffffffffffffffffffffffffff1673ffffffffffffffffffffffffffffffffffffffff16815260200190815260200160002060009054906101000a900460ff166105e6576040517f08c379a00000000000000000000000000000000000000000000000000000000081526004016105dd9061114a565b60405180910390fd5b60001515600560008373ffffffffffffffffffffffffffffffffffffffff1673ffffffffffffffffffffffffffffffffffffffff16815260200190815260200160002060003373ffffffffffffffffffffffffffffffffffffffff1673ffffffffffffffffffffffffffffffffffffffff16815260200190815260200160002060009054906101000a900460ff161515146106b6576040517f08c379a00000000000000000000000000000000000000000000000000000000081526004016106ad906111b6565b60405180910390fd5b600460009054906101000a900473ffffffffffffffffffffffffffffffffffffffff1673ffffffffffffffffffffffffffffffffffffffff168173ffffffffffffffffffffffffffffffffffffffff16146107555780600460006101000a81548173ffffffffffffffffffffffffffffffffffffffff021916908373ffffffffffffffffffffffffffffffffffffffff16021790555060006006819055505b6006600081548092919061076890611205565b919050555060036006541061081c57600460009054906101000a900473ffffffffffffffffffffffffffffffffffffffff166000806101000a81548173ffffffffffffffffffffffffffffffffffffffff021916908373ffffffffffffffffffffffffffffffffffffffff1602179055506000600460006101000a81548173ffffffffffffffffffffffffffffffffffffffff021916908373ffffffffffffffffffffffffffffffffffffffff1602179055505b50565b606060008054906101000a900473ffffffffffffffffffffffffffffffffffffffff1673ffffffffffffffffffffffffffffffffffffffff163373ffffffffffffffffffffffffffffffffffffffff16146108af576040517f08c379a00000000000000000000000000000000000000000000000000000000081526004016108a690611299565b60405180910390fd5b60008054906101000a900473ffffffffffffffffffffffffffffffffffffffff1673ffffffffffffffffffffffffffffffffffffffff163373ffffffffffffffffffffffffffffffffffffffff1614610a6757600260003373ffffffffffffffffffffffffffffffffffffffff1673ffffffffffffffffffffffffffffffffffffffff16815260200190815260200160002060009054906101000a900460ff1661098e576040517f08c379a000000000000000000000000000000000000000000000000000000000815260040161098590611351565b60405180910390fd5b82600160003373ffffffffffffffffffffffffffffffffffffffff1673ffffffffffffffffffffffffffffffffffffffff168152602001908152602001600020541015610a10576040517f08c379a0000000000000000000000000000000000000000000000000000000008152600401610a07906113e3565b60405180910390fd5b82600160003373ffffffffffffffffffffffffffffffffffffffff1673ffffffffffffffffffffffffffffffffffffffff1681526020019081526020016000206000828254610a5f9190611403565b925050819055505b6000808573ffffffffffffffffffffffffffffffffffffffff168585604051610a909190611473565b60006040518083038185875af1925050503d8060008114610acd576040519150601f19603f3d011682016040523d82523d6000602084013e610ad2565b606091505b509150915081610b17576040517f08c379a0000000000000000000000000000000000000000000000000000000008152600401610b0e906114d6565b60405180910390fd5b80925050509392505050565b6000604051905090565b600080fd5b600080fd5b600073ffffffffffffffffffffffffffffffffffffffff82169050919050565b6000610b6282610b37565b9050919050565b610b7281610b57565b8114610b7d57600080fd5b50565b600081359050610b8f81610b69565b92915050565b600060208284031215610bab57610baa610b2d565b5b6000610bb984828501610b80565b91505092915050565b60008115159050919050565b610bd781610bc2565b82525050565b6000602082019050610bf26000830184610bce565b92915050565b610c0181610bc2565b8114610c0c57600080fd5b50565b600081359050610c1e81610bf8565b92915050565b60008060408385031215610c3b57610c3a610b2d565b5b6000610c4985828601610b80565b9250506020610c5a85828601610c0f565b9150509250929050565b6000819050919050565b610c7781610c64565b8114610c8257600080fd5b50565b600081359050610c9481610c6e565b92915050565b60008060408385031215610cb157610cb0610b2d565b5b6000610cbf85828601610b80565b9250506020610cd085828601610c85565b9150509250929050565b610ce381610c64565b82525050565b6000602082019050610cfe6000830184610cda565b92915050565b6000610d0f82610b37565b9050919050565b610d1f81610d04565b82525050565b6000602082019050610d3a6000830184610d16565b92915050565b610d4981610d04565b8114610d5457600080fd5b50565b600081359050610d6681610d40565b92915050565b600060208284031215610d8257610d81610b2d565b5b6000610d9084828501610d57565b91505092915050565b600080fd5b600080fd5b6000601f19601f8301169050919050565b7f4e487b7100000000000000000000000000000000000000000000000000000000600052604160045260246000fd5b610dec82610da3565b810181811067ffffffffffffffff82111715610e0b57610e0a610db4565b5b80604052505050565b6000610e1e610b23565b9050610e2a8282610de3565b919050565b600067ffffffffffffffff821115610e4a57610e49610db4565b5b610e5382610da3565b9050602081019050919050565b82818337600083830152505050565b6000610e82610e7d84610e2f565b610e14565b905082815260208101848484011115610e9e57610e9d610d9e565b5b610ea9848285610e60565b509392505050565b600082601f830112610ec657610ec5610d99565b5b8135610ed6848260208601610e6f565b91505092915050565b600080600060608486031215610ef857610ef7610b2d565b5b6000610f0686828701610d57565b9350506020610f1786828701610c85565b925050604084013567ffffffffffffffff811115610f3857610f37610b32565b5b610f4486828701610eb1565b9150509250925092565b600081519050919050565b600082825260208201905092915050565b60005b83811015610f88578082015181840152602081019050610f6d565b60008484015250505050565b6000610f9f82610f4e565b610fa98185610f59565b9350610fb9818560208601610f6a565b610fc281610da3565b840191505092915050565b60006020820190508181036000830152610fe78184610f94565b905092915050565b600082825260208201905092915050565b7f796f7520617265206e6f7420746865206f776e65720000000000000000000000600082015250565b6000611036601583610fef565b915061104182611000565b602082019050919050565b6000602082019050818103600083015261106581611029565b9050919050565b7f796f7520617265206e6f7420746865206f776e65722c2061626f7274696e6721600082015250565b60006110a2602083610fef565b91506110ad8261106c565b602082019050919050565b600060208201905081810360008301526110d181611095565b9050919050565b7f796f7520617265206e6f7420677561726469616e206f6620746869732077616c60008201527f6c65740000000000000000000000000000000000000000000000000000000000602082015250565b6000611134602383610fef565b915061113f826110d8565b604082019050919050565b6000602082019050818103600083015261116381611127565b9050919050565b7f596f752061726520616c726561647920766f7465640000000000000000000000600082015250565b60006111a0601583610fef565b91506111ab8261116a565b602082019050919050565b600060208201905081810360008301526111cf81611193565b9050919050565b7f4e487b7100000000000000000000000000000000000000000000000000000000600052601160045260246000fd5b600061121082610c64565b91507fffffffffffffffffffffffffffffffffffffffffffffffffffffffffffffffff8203611242576112416111d6565b5b600182019050919050565b7f596f7520617265206e6f7420746865206f776e65722c2061626f7274696e6721600082015250565b6000611283602083610fef565b915061128e8261124d565b602082019050919050565b600060208201905081810360008301526112b281611276565b9050919050565b7f596f7520617265206e6f7420616c6c6f77656420746f2073656e6420616e797460008201527f68696e672066726f6d207468697320736d61727420636f6e74726163742c204160208201527f626f7274696e6721000000000000000000000000000000000000000000000000604082015250565b600061133b604883610fef565b9150611346826112b9565b606082019050919050565b6000602082019050818103600083015261136a8161132e565b9050919050565b7f596f75206172652073656e64696e67206d6f7265207468616e20796f7572206160008201527f6c6c6f77616e6365000000000000000000000000000000000000000000000000602082015250565b60006113cd602883610fef565b91506113d882611371565b604082019050919050565b600060208201905081810360008301526113fc816113c0565b9050919050565b600061140e82610c64565b915061141983610c64565b9250828203905081811115611431576114306111d6565b5b92915050565b600081905092915050565b600061144d82610f4e565b6114578185611437565b9350611467818560208601610f6a565b80840191505092915050565b600061147f8284611442565b915081905092915050565b7f41626f7274696e672c2063616c6c20776173206e6f7420657865637574656400600082015250565b60006114c0601f83610fef565b91506114cb8261148a565b602082019050919050565b600060208201905081810360008301526114ef816114b3565b905091905056fea264697066735822122050bb85cacc5157c754ee65b7a103188c95864818e573178204b62a45229bdfc964736f6c63430008100033",
					"opcodes": "PUSH1 0x80 PUSH1 0x40 MSTORE CALLVALUE DUP1 ISZERO PUSH2 0x10 JUMPI PUSH1 0x0 DUP1 REVERT JUMPDEST POP CALLER PUSH1 0x0 DUP1 PUSH2 0x100 EXP DUP2 SLOAD DUP2 PUSH20 0xFFFFFFFFFFFFFFFFFFFFFFFFFFFFFFFFFFFFFFFF MUL NOT AND SWAP1 DUP4 PUSH20 0xFFFFFFFFFFFFFFFFFFFFFFFFFFFFFFFFFFFFFFFF AND MUL OR SWAP1 SSTORE POP PUSH2 0x152C DUP1 PUSH2 0x60 PUSH1 0x0 CODECOPY PUSH1 0x0 RETURN INVALID PUSH1 0x80 PUSH1 0x40 MSTORE PUSH1 0x4 CALLDATASIZE LT PUSH2 0x8A JUMPI PUSH1 0x0 CALLDATALOAD PUSH1 0xE0 SHR DUP1 PUSH4 0x3E5BEAB9 GT PUSH2 0x59 JUMPI DUP1 PUSH4 0x3E5BEAB9 EQ PUSH2 0x162 JUMPI DUP1 PUSH4 0x83012BE1 EQ PUSH2 0x19F JUMPI DUP1 PUSH4 0x8DA5CB5B EQ PUSH2 0x1CA JUMPI DUP1 PUSH4 0xB1F8100D EQ PUSH2 0x1F5 JUMPI DUP1 PUSH4 0xBE45FD62 EQ PUSH2 0x21E JUMPI PUSH2 0x91 JUMP JUMPDEST DUP1 PUSH4 0x633B14A EQ PUSH2 0x96 JUMPI DUP1 PUSH4 0xBC605AD EQ PUSH2 0xD3 JUMPI DUP1 PUSH4 0x2B8A1C5A EQ PUSH2 0x110 JUMPI DUP1 PUSH4 0x310EC4A7 EQ PUSH2 0x139 JUMPI PUSH2 0x91 JUMP JUMPDEST CALLDATASIZE PUSH2 0x91 JUMPI STOP JUMPDEST PUSH1 0x0 DUP1 REVERT JUMPDEST CALLVALUE DUP1 ISZERO PUSH2 0xA2 JUMPI PUSH1 0x0 DUP1 REVERT JUMPDEST POP PUSH2 0xBD PUSH1 0x4 DUP1 CALLDATASIZE SUB DUP2 ADD SWAP1 PUSH2 0xB8 SWAP2 SWAP1 PUSH2 0xB95 JUMP JUMPDEST PUSH2 0x25B JUMP JUMPDEST PUSH1 0x40 MLOAD PUSH2 0xCA SWAP2 SWAP1 PUSH2 0xBDD JUMP JUMPDEST PUSH1 0x40 MLOAD DUP1 SWAP2 SUB SWAP1 RETURN JUMPDEST CALLVALUE DUP1 ISZERO PUSH2 0xDF JUMPI PUSH1 0x0 DUP1 REVERT JUMPDEST POP PUSH2 0xFA PUSH1 0x4 DUP1 CALLDATASIZE SUB DUP2 ADD SWAP1 PUSH2 0xF5 SWAP2 SWAP1 PUSH2 0xB95 JUMP JUMPDEST PUSH2 0x27B JUMP JUMPDEST PUSH1 0x40 MLOAD PUSH2 0x107 SWAP2 SWAP1 PUSH2 0xBDD JUMP JUMPDEST PUSH1 0x40 MLOAD DUP1 SWAP2 SUB SWAP1 RETURN JUMPDEST CALLVALUE DUP1 ISZERO PUSH2 0x11C JUMPI PUSH1 0x0 DUP1 REVERT JUMPDEST POP PUSH2 0x137 PUSH1 0x4 DUP1 CALLDATASIZE SUB DUP2 ADD SWAP1 PUSH2 0x132 SWAP2 SWAP1 PUSH2 0xC24 JUMP JUMPDEST PUSH2 0x29B JUMP JUMPDEST STOP JUMPDEST CALLVALUE DUP1 ISZERO PUSH2 0x145 JUMPI PUSH1 0x0 DUP1 REVERT JUMPDEST POP PUSH2 0x160 PUSH1 0x4 DUP1 CALLDATASIZE SUB DUP2 ADD SWAP1 PUSH2 0x15B SWAP2 SWAP1 PUSH2 0xC9A JUMP JUMPDEST PUSH2 0x384 JUMP JUMPDEST STOP JUMPDEST CALLVALUE DUP1 ISZERO PUSH2 0x16E JUMPI PUSH1 0x0 DUP1 REVERT JUMPDEST POP PUSH2 0x189 PUSH1 0x4 DUP1 CALLDATASIZE SUB DUP2 ADD SWAP1 PUSH2 0x184 SWAP2 SWAP1 PUSH2 0xB95 JUMP JUMPDEST PUSH2 0x519 JUMP JUMPDEST PUSH1 0x40 MLOAD PUSH2 0x196 SWAP2 SWAP1 PUSH2 0xCE9 JUMP JUMPDEST PUSH1 0x40 MLOAD DUP1 SWAP2 SUB SWAP1 RETURN JUMPDEST CALLVALUE DUP1 ISZERO PUSH2 0x1AB JUMPI PUSH1 0x0 DUP1 REVERT JUMPDEST POP PUSH2 0x1B4 PUSH2 0x531 JUMP JUMPDEST PUSH1 0x40 MLOAD PUSH2 0x1C1 SWAP2 SWAP1 PUSH2 0xCE9 JUMP JUMPDEST PUSH1 0x40 MLOAD DUP1 SWAP2 SUB SWAP1 RETURN JUMPDEST CALLVALUE DUP1 ISZERO PUSH2 0x1D6 JUMPI PUSH1 0x0 DUP1 REVERT JUMPDEST POP PUSH2 0x1DF PUSH2 0x536 JUMP JUMPDEST PUSH1 0x40 MLOAD PUSH2 0x1EC SWAP2 SWAP1 PUSH2 0xD25 JUMP JUMPDEST PUSH1 0x40 MLOAD DUP1 SWAP2 SUB SWAP1 RETURN JUMPDEST CALLVALUE DUP1 ISZERO PUSH2 0x201 JUMPI PUSH1 0x0 DUP1 REVERT JUMPDEST POP PUSH2 0x21C PUSH1 0x4 DUP1 CALLDATASIZE SUB DUP2 ADD SWAP1 PUSH2 0x217 SWAP2 SWAP1 PUSH2 0xD6C JUMP JUMPDEST PUSH2 0x55A JUMP JUMPDEST STOP JUMPDEST CALLVALUE DUP1 ISZERO PUSH2 0x22A JUMPI PUSH1 0x0 DUP1 REVERT JUMPDEST POP PUSH2 0x245 PUSH1 0x4 DUP1 CALLDATASIZE SUB DUP2 ADD SWAP1 PUSH2 0x240 SWAP2 SWAP1 PUSH2 0xEDF JUMP JUMPDEST PUSH2 0x81F JUMP JUMPDEST PUSH1 0x40 MLOAD PUSH2 0x252 SWAP2 SWAP1 PUSH2 0xFCD JUMP JUMPDEST PUSH1 0x40 MLOAD DUP1 SWAP2 SUB SWAP1 RETURN JUMPDEST PUSH1 0x3 PUSH1 0x20 MSTORE DUP1 PUSH1 0x0 MSTORE PUSH1 0x40 PUSH1 0x0 KECCAK256 PUSH1 0x0 SWAP2 POP SLOAD SWAP1 PUSH2 0x100 EXP SWAP1 DIV PUSH1 0xFF AND DUP2 JUMP JUMPDEST PUSH1 0x2 PUSH1 0x20 MSTORE DUP1 PUSH1 0x0 MSTORE PUSH1 0x40 PUSH1 0x0 KECCAK256 PUSH1 0x0 SWAP2 POP SLOAD SWAP1 PUSH2 0x100 EXP SWAP1 DIV PUSH1 0xFF AND DUP2 JUMP JUMPDEST PUSH1 0x0 DUP1 SLOAD SWAP1 PUSH2 0x100 EXP SWAP1 DIV PUSH20 0xFFFFFFFFFFFFFFFFFFFFFFFFFFFFFFFFFFFFFFFF AND PUSH20 0xFFFFFFFFFFFFFFFFFFFFFFFFFFFFFFFFFFFFFFFF AND CALLER PUSH20 0xFFFFFFFFFFFFFFFFFFFFFFFFFFFFFFFFFFFFFFFF AND EQ PUSH2 0x329 JUMPI PUSH1 0x40 MLOAD PUSH32 0x8C379A000000000000000000000000000000000000000000000000000000000 DUP2 MSTORE PUSH1 0x4 ADD PUSH2 0x320 SWAP1 PUSH2 0x104C JUMP JUMPDEST PUSH1 0x40 MLOAD DUP1 SWAP2 SUB SWAP1 REVERT JUMPDEST DUP1 PUSH1 0x3 PUSH1 0x0 DUP5 PUSH20 0xFFFFFFFFFFFFFFFFFFFFFFFFFFFFFFFFFFFFFFFF AND PUSH20 0xFFFFFFFFFFFFFFFFFFFFFFFFFFFFFFFFFFFFFFFF AND DUP2 MSTORE PUSH1 0x20 ADD SWAP1 DUP2 MSTORE PUSH1 0x20 ADD PUSH1 0x0 KECCAK256 PUSH1 0x0 PUSH2 0x100 EXP DUP2 SLOAD DUP2 PUSH1 0xFF MUL NOT AND SWAP1 DUP4 ISZERO ISZERO MUL OR SWAP1 SSTORE POP POP POP JUMP JUMPDEST PUSH1 0x0 DUP1 SLOAD SWAP1 PUSH2 0x100 EXP SWAP1 DIV PUSH20 0xFFFFFFFFFFFFFFFFFFFFFFFFFFFFFFFFFFFFFFFF AND PUSH20 0xFFFFFFFFFFFFFFFFFFFFFFFFFFFFFFFFFFFFFFFF AND CALLER PUSH20 0xFFFFFFFFFFFFFFFFFFFFFFFFFFFFFFFFFFFFFFFF AND EQ PUSH2 0x412 JUMPI PUSH1 0x40 MLOAD PUSH32 0x8C379A000000000000000000000000000000000000000000000000000000000 DUP2 MSTORE PUSH1 0x4 ADD PUSH2 0x409 SWAP1 PUSH2 0x10B8 JUMP JUMPDEST PUSH1 0x40 MLOAD DUP1 SWAP2 SUB SWAP1 REVERT JUMPDEST DUP1 PUSH1 0x1 PUSH1 0x0 DUP5 PUSH20 0xFFFFFFFFFFFFFFFFFFFFFFFFFFFFFFFFFFFFFFFF AND PUSH20 0xFFFFFFFFFFFFFFFFFFFFFFFFFFFFFFFFFFFFFFFF AND DUP2 MSTORE PUSH1 0x20 ADD SWAP1 DUP2 MSTORE PUSH1 0x20 ADD PUSH1 0x0 KECCAK256 DUP2 SWAP1 SSTORE POP PUSH1 0x0 DUP2 GT ISZERO PUSH2 0x4BC JUMPI PUSH1 0x1 PUSH1 0x2 PUSH1 0x0 DUP5 PUSH20 0xFFFFFFFFFFFFFFFFFFFFFFFFFFFFFFFFFFFFFFFF AND PUSH20 0xFFFFFFFFFFFFFFFFFFFFFFFFFFFFFFFFFFFFFFFF AND DUP2 MSTORE PUSH1 0x20 ADD SWAP1 DUP2 MSTORE PUSH1 0x20 ADD PUSH1 0x0 KECCAK256 PUSH1 0x0 PUSH2 0x100 EXP DUP2 SLOAD DUP2 PUSH1 0xFF MUL NOT AND SWAP1 DUP4 ISZERO ISZERO MUL OR SWAP1 SSTORE POP PUSH2 0x515 JUMP JUMPDEST PUSH1 0x0 PUSH1 0x2 PUSH1 0x0 DUP5 PUSH20 0xFFFFFFFFFFFFFFFFFFFFFFFFFFFFFFFFFFFFFFFF AND PUSH20 0xFFFFFFFFFFFFFFFFFFFFFFFFFFFFFFFFFFFFFFFF AND DUP2 MSTORE PUSH1 0x20 ADD SWAP1 DUP2 MSTORE PUSH1 0x20 ADD PUSH1 0x0 KECCAK256 PUSH1 0x0 PUSH2 0x100 EXP DUP2 SLOAD DUP2 PUSH1 0xFF MUL NOT AND SWAP1 DUP4 ISZERO ISZERO MUL OR SWAP1 SSTORE POP JUMPDEST POP POP JUMP JUMPDEST PUSH1 0x1 PUSH1 0x20 MSTORE DUP1 PUSH1 0x0 MSTORE PUSH1 0x40 PUSH1 0x0 KECCAK256 PUSH1 0x0 SWAP2 POP SWAP1 POP SLOAD DUP2 JUMP JUMPDEST PUSH1 0x3 DUP2 JUMP JUMPDEST PUSH1 0x0 DUP1 SLOAD SWAP1 PUSH2 0x100 EXP SWAP1 DIV PUSH20 0xFFFFFFFFFFFFFFFFFFFFFFFFFFFFFFFFFFFFFFFF AND DUP2 JUMP JUMPDEST PUSH1 0x3 PUSH1 0x0 CALLER PUSH20 0xFFFFFFFFFFFFFFFFFFFFFFFFFFFFFFFFFFFFFFFF AND PUSH20 0xFFFFFFFFFFFFFFFFFFFFFFFFFFFFFFFFFFFFFFFF AND DUP2 MSTORE PUSH1 0x20 ADD SWAP1 DUP2 MSTORE PUSH1 0x20 ADD PUSH1 0x0 KECCAK256 PUSH1 0x0 SWAP1 SLOAD SWAP1 PUSH2 0x100 EXP SWAP1 DIV PUSH1 0xFF AND PUSH2 0x5E6 JUMPI PUSH1 0x40 MLOAD PUSH32 0x8C379A000000000000000000000000000000000000000000000000000000000 DUP2 MSTORE PUSH1 0x4 ADD PUSH2 0x5DD SWAP1 PUSH2 0x114A JUMP JUMPDEST PUSH1 0x40 MLOAD DUP1 SWAP2 SUB SWAP1 REVERT JUMPDEST PUSH1 0x0 ISZERO ISZERO PUSH1 0x5 PUSH1 0x0 DUP4 PUSH20 0xFFFFFFFFFFFFFFFFFFFFFFFFFFFFFFFFFFFFFFFF AND PUSH20 0xFFFFFFFFFFFFFFFFFFFFFFFFFFFFFFFFFFFFFFFF AND DUP2 MSTORE PUSH1 0x20 ADD SWAP1 DUP2 MSTORE PUSH1 0x20 ADD PUSH1 0x0 KECCAK256 PUSH1 0x0 CALLER PUSH20 0xFFFFFFFFFFFFFFFFFFFFFFFFFFFFFFFFFFFFFFFF AND PUSH20 0xFFFFFFFFFFFFFFFFFFFFFFFFFFFFFFFFFFFFFFFF AND DUP2 MSTORE PUSH1 0x20 ADD SWAP1 DUP2 MSTORE PUSH1 0x20 ADD PUSH1 0x0 KECCAK256 PUSH1 0x0 SWAP1 SLOAD SWAP1 PUSH2 0x100 EXP SWAP1 DIV PUSH1 0xFF AND ISZERO ISZERO EQ PUSH2 0x6B6 JUMPI PUSH1 0x40 MLOAD PUSH32 0x8C379A000000000000000000000000000000000000000000000000000000000 DUP2 MSTORE PUSH1 0x4 ADD PUSH2 0x6AD SWAP1 PUSH2 0x11B6 JUMP JUMPDEST PUSH1 0x40 MLOAD DUP1 SWAP2 SUB SWAP1 REVERT JUMPDEST PUSH1 0x4 PUSH1 0x0 SWAP1 SLOAD SWAP1 PUSH2 0x100 EXP SWAP1 DIV PUSH20 0xFFFFFFFFFFFFFFFFFFFFFFFFFFFFFFFFFFFFFFFF AND PUSH20 0xFFFFFFFFFFFFFFFFFFFFFFFFFFFFFFFFFFFFFFFF AND DUP2 PUSH20 0xFFFFFFFFFFFFFFFFFFFFFFFFFFFFFFFFFFFFFFFF AND EQ PUSH2 0x755 JUMPI DUP1 PUSH1 0x4 PUSH1 0x0 PUSH2 0x100 EXP DUP2 SLOAD DUP2 PUSH20 0xFFFFFFFFFFFFFFFFFFFFFFFFFFFFFFFFFFFFFFFF MUL NOT AND SWAP1 DUP4 PUSH20 0xFFFFFFFFFFFFFFFFFFFFFFFFFFFFFFFFFFFFFFFF AND MUL OR SWAP1 SSTORE POP PUSH1 0x0 PUSH1 0x6 DUP2 SWAP1 SSTORE POP JUMPDEST PUSH1 0x6 PUSH1 0x0 DUP2 SLOAD DUP1 SWAP3 SWAP2 SWAP1 PUSH2 0x768 SWAP1 PUSH2 0x1205 JUMP JUMPDEST SWAP2 SWAP1 POP SSTORE POP PUSH1 0x3 PUSH1 0x6 SLOAD LT PUSH2 0x81C JUMPI PUSH1 0x4 PUSH1 0x0 SWAP1 SLOAD SWAP1 PUSH2 0x100 EXP SWAP1 DIV PUSH20 0xFFFFFFFFFFFFFFFFFFFFFFFFFFFFFFFFFFFFFFFF AND PUSH1 0x0 DUP1 PUSH2 0x100 EXP DUP2 SLOAD DUP2 PUSH20 0xFFFFFFFFFFFFFFFFFFFFFFFFFFFFFFFFFFFFFFFF MUL NOT AND SWAP1 DUP4 PUSH20 0xFFFFFFFFFFFFFFFFFFFFFFFFFFFFFFFFFFFFFFFF AND MUL OR SWAP1 SSTORE POP PUSH1 0x0 PUSH1 0x4 PUSH1 0x0 PUSH2 0x100 EXP DUP2 SLOAD DUP2 PUSH20 0xFFFFFFFFFFFFFFFFFFFFFFFFFFFFFFFFFFFFFFFF MUL NOT AND SWAP1 DUP4 PUSH20 0xFFFFFFFFFFFFFFFFFFFFFFFFFFFFFFFFFFFFFFFF AND MUL OR SWAP1 SSTORE POP JUMPDEST POP JUMP JUMPDEST PUSH1 0x60 PUSH1 0x0 DUP1 SLOAD SWAP1 PUSH2 0x100 EXP SWAP1 DIV PUSH20 0xFFFFFFFFFFFFFFFFFFFFFFFFFFFFFFFFFFFFFFFF AND PUSH20 0xFFFFFFFFFFFFFFFFFFFFFFFFFFFFFFFFFFFFFFFF AND CALLER PUSH20 0xFFFFFFFFFFFFFFFFFFFFFFFFFFFFFFFFFFFFFFFF AND EQ PUSH2 0x8AF JUMPI PUSH1 0x40 MLOAD PUSH32 0x8C379A000000000000000000000000000000000000000000000000000000000 DUP2 MSTORE PUSH1 0x4 ADD PUSH2 0x8A6 SWAP1 PUSH2 0x1299 JUMP JUMPDEST PUSH1 0x40 MLOAD DUP1 SWAP2 SUB SWAP1 REVERT JUMPDEST PUSH1 0x0 DUP1 SLOAD SWAP1 PUSH2 0x100 EXP SWAP1 DIV PUSH20 0xFFFFFFFFFFFFFFFFFFFFFFFFFFFFFFFFFFFFFFFF AND PUSH20 0xFFFFFFFFFFFFFFFFFFFFFFFFFFFFFFFFFFFFFFFF AND CALLER PUSH20 0xFFFFFFFFFFFFFFFFFFFFFFFFFFFFFFFFFFFFFFFF AND EQ PUSH2 0xA67 JUMPI PUSH1 0x2 PUSH1 0x0 CALLER PUSH20 0xFFFFFFFFFFFFFFFFFFFFFFFFFFFFFFFFFFFFFFFF AND PUSH20 0xFFFFFFFFFFFFFFFFFFFFFFFFFFFFFFFFFFFFFFFF AND DUP2 MSTORE PUSH1 0x20 ADD SWAP1 DUP2 MSTORE PUSH1 0x20 ADD PUSH1 0x0 KECCAK256 PUSH1 0x0 SWAP1 SLOAD SWAP1 PUSH2 0x100 EXP SWAP1 DIV PUSH1 0xFF AND PUSH2 0x98E JUMPI PUSH1 0x40 MLOAD PUSH32 0x8C379A000000000000000000000000000000000000000000000000000000000 DUP2 MSTORE PUSH1 0x4 ADD PUSH2 0x985 SWAP1 PUSH2 0x1351 JUMP JUMPDEST PUSH1 0x40 MLOAD DUP1 SWAP2 SUB SWAP1 REVERT JUMPDEST DUP3 PUSH1 0x1 PUSH1 0x0 CALLER PUSH20 0xFFFFFFFFFFFFFFFFFFFFFFFFFFFFFFFFFFFFFFFF AND PUSH20 0xFFFFFFFFFFFFFFFFFFFFFFFFFFFFFFFFFFFFFFFF AND DUP2 MSTORE PUSH1 0x20 ADD SWAP1 DUP2 MSTORE PUSH1 0x20 ADD PUSH1 0x0 KECCAK256 SLOAD LT ISZERO PUSH2 0xA10 JUMPI PUSH1 0x40 MLOAD PUSH32 0x8C379A000000000000000000000000000000000000000000000000000000000 DUP2 MSTORE PUSH1 0x4 ADD PUSH2 0xA07 SWAP1 PUSH2 0x13E3 JUMP JUMPDEST PUSH1 0x40 MLOAD DUP1 SWAP2 SUB SWAP1 REVERT JUMPDEST DUP3 PUSH1 0x1 PUSH1 0x0 CALLER PUSH20 0xFFFFFFFFFFFFFFFFFFFFFFFFFFFFFFFFFFFFFFFF AND PUSH20 0xFFFFFFFFFFFFFFFFFFFFFFFFFFFFFFFFFFFFFFFF AND DUP2 MSTORE PUSH1 0x20 ADD SWAP1 DUP2 MSTORE PUSH1 0x20 ADD PUSH1 0x0 KECCAK256 PUSH1 0x0 DUP3 DUP3 SLOAD PUSH2 0xA5F SWAP2 SWAP1 PUSH2 0x1403 JUMP JUMPDEST SWAP3 POP POP DUP2 SWAP1 SSTORE POP JUMPDEST PUSH1 0x0 DUP1 DUP6 PUSH20 0xFFFFFFFFFFFFFFFFFFFFFFFFFFFFFFFFFFFFFFFF AND DUP6 DUP6 PUSH1 0x40 MLOAD PUSH2 0xA90 SWAP2 SWAP1 PUSH2 0x1473 JUMP JUMPDEST PUSH1 0x0 PUSH1 0x40 MLOAD DUP1 DUP4 SUB DUP2 DUP6 DUP8 GAS CALL SWAP3 POP POP POP RETURNDATASIZE DUP1 PUSH1 0x0 DUP2 EQ PUSH2 0xACD JUMPI PUSH1 0x40 MLOAD SWAP2 POP PUSH1 0x1F NOT PUSH1 0x3F RETURNDATASIZE ADD AND DUP3 ADD PUSH1 0x40 MSTORE RETURNDATASIZE DUP3 MSTORE RETURNDATASIZE PUSH1 0x0 PUSH1 0x20 DUP5 ADD RETURNDATACOPY PUSH2 0xAD2 JUMP JUMPDEST PUSH1 0x60 SWAP2 POP JUMPDEST POP SWAP2 POP SWAP2 POP DUP2 PUSH2 0xB17 JUMPI PUSH1 0x40 MLOAD PUSH32 0x8C379A000000000000000000000000000000000000000000000000000000000 DUP2 MSTORE PUSH1 0x4 ADD PUSH2 0xB0E SWAP1 PUSH2 0x14D6 JUMP JUMPDEST PUSH1 0x40 MLOAD DUP1 SWAP2 SUB SWAP1 REVERT JUMPDEST DUP1 SWAP3 POP POP POP SWAP4 SWAP3 POP POP POP JUMP JUMPDEST PUSH1 0x0 PUSH1 0x40 MLOAD SWAP1 POP SWAP1 JUMP JUMPDEST PUSH1 0x0 DUP1 REVERT JUMPDEST PUSH1 0x0 DUP1 REVERT JUMPDEST PUSH1 0x0 PUSH20 0xFFFFFFFFFFFFFFFFFFFFFFFFFFFFFFFFFFFFFFFF DUP3 AND SWAP1 POP SWAP2 SWAP1 POP JUMP JUMPDEST PUSH1 0x0 PUSH2 0xB62 DUP3 PUSH2 0xB37 JUMP JUMPDEST SWAP1 POP SWAP2 SWAP1 POP JUMP JUMPDEST PUSH2 0xB72 DUP2 PUSH2 0xB57 JUMP JUMPDEST DUP2 EQ PUSH2 0xB7D JUMPI PUSH1 0x0 DUP1 REVERT JUMPDEST POP JUMP JUMPDEST PUSH1 0x0 DUP2 CALLDATALOAD SWAP1 POP PUSH2 0xB8F DUP2 PUSH2 0xB69 JUMP JUMPDEST SWAP3 SWAP2 POP POP JUMP JUMPDEST PUSH1 0x0 PUSH1 0x20 DUP3 DUP5 SUB SLT ISZERO PUSH2 0xBAB JUMPI PUSH2 0xBAA PUSH2 0xB2D JUMP JUMPDEST JUMPDEST PUSH1 0x0 PUSH2 0xBB9 DUP5 DUP3 DUP6 ADD PUSH2 0xB80 JUMP JUMPDEST SWAP2 POP POP SWAP3 SWAP2 POP POP JUMP JUMPDEST PUSH1 0x0 DUP2 ISZERO ISZERO SWAP1 POP SWAP2 SWAP1 POP JUMP JUMPDEST PUSH2 0xBD7 DUP2 PUSH2 0xBC2 JUMP JUMPDEST DUP3 MSTORE POP POP JUMP JUMPDEST PUSH1 0x0 PUSH1 0x20 DUP3 ADD SWAP1 POP PUSH2 0xBF2 PUSH1 0x0 DUP4 ADD DUP5 PUSH2 0xBCE JUMP JUMPDEST SWAP3 SWAP2 POP POP JUMP JUMPDEST PUSH2 0xC01 DUP2 PUSH2 0xBC2 JUMP JUMPDEST DUP2 EQ PUSH2 0xC0C JUMPI PUSH1 0x0 DUP1 REVERT JUMPDEST POP JUMP JUMPDEST PUSH1 0x0 DUP2 CALLDATALOAD SWAP1 POP PUSH2 0xC1E DUP2 PUSH2 0xBF8 JUMP JUMPDEST SWAP3 SWAP2 POP POP JUMP JUMPDEST PUSH1 0x0 DUP1 PUSH1 0x40 DUP4 DUP6 SUB SLT ISZERO PUSH2 0xC3B JUMPI PUSH2 0xC3A PUSH2 0xB2D JUMP JUMPDEST JUMPDEST PUSH1 0x0 PUSH2 0xC49 DUP6 DUP3 DUP7 ADD PUSH2 0xB80 JUMP JUMPDEST SWAP3 POP POP PUSH1 0x20 PUSH2 0xC5A DUP6 DUP3 DUP7 ADD PUSH2 0xC0F JUMP JUMPDEST SWAP2 POP POP SWAP3 POP SWAP3 SWAP1 POP JUMP JUMPDEST PUSH1 0x0 DUP2 SWAP1 POP SWAP2 SWAP1 POP JUMP JUMPDEST PUSH2 0xC77 DUP2 PUSH2 0xC64 JUMP JUMPDEST DUP2 EQ PUSH2 0xC82 JUMPI PUSH1 0x0 DUP1 REVERT JUMPDEST POP JUMP JUMPDEST PUSH1 0x0 DUP2 CALLDATALOAD SWAP1 POP PUSH2 0xC94 DUP2 PUSH2 0xC6E JUMP JUMPDEST SWAP3 SWAP2 POP POP JUMP JUMPDEST PUSH1 0x0 DUP1 PUSH1 0x40 DUP4 DUP6 SUB SLT ISZERO PUSH2 0xCB1 JUMPI PUSH2 0xCB0 PUSH2 0xB2D JUMP JUMPDEST JUMPDEST PUSH1 0x0 PUSH2 0xCBF DUP6 DUP3 DUP7 ADD PUSH2 0xB80 JUMP JUMPDEST SWAP3 POP POP PUSH1 0x20 PUSH2 0xCD0 DUP6 DUP3 DUP7 ADD PUSH2 0xC85 JUMP JUMPDEST SWAP2 POP POP SWAP3 POP SWAP3 SWAP1 POP JUMP JUMPDEST PUSH2 0xCE3 DUP2 PUSH2 0xC64 JUMP JUMPDEST DUP3 MSTORE POP POP JUMP JUMPDEST PUSH1 0x0 PUSH1 0x20 DUP3 ADD SWAP1 POP PUSH2 0xCFE PUSH1 0x0 DUP4 ADD DUP5 PUSH2 0xCDA JUMP JUMPDEST SWAP3 SWAP2 POP POP JUMP JUMPDEST PUSH1 0x0 PUSH2 0xD0F DUP3 PUSH2 0xB37 JUMP JUMPDEST SWAP1 POP SWAP2 SWAP1 POP JUMP JUMPDEST PUSH2 0xD1F DUP2 PUSH2 0xD04 JUMP JUMPDEST DUP3 MSTORE POP POP JUMP JUMPDEST PUSH1 0x0 PUSH1 0x20 DUP3 ADD SWAP1 POP PUSH2 0xD3A PUSH1 0x0 DUP4 ADD DUP5 PUSH2 0xD16 JUMP JUMPDEST SWAP3 SWAP2 POP POP JUMP JUMPDEST PUSH2 0xD49 DUP2 PUSH2 0xD04 JUMP JUMPDEST DUP2 EQ PUSH2 0xD54 JUMPI PUSH1 0x0 DUP1 REVERT JUMPDEST POP JUMP JUMPDEST PUSH1 0x0 DUP2 CALLDATALOAD SWAP1 POP PUSH2 0xD66 DUP2 PUSH2 0xD40 JUMP JUMPDEST SWAP3 SWAP2 POP POP JUMP JUMPDEST PUSH1 0x0 PUSH1 0x20 DUP3 DUP5 SUB SLT ISZERO PUSH2 0xD82 JUMPI PUSH2 0xD81 PUSH2 0xB2D JUMP JUMPDEST JUMPDEST PUSH1 0x0 PUSH2 0xD90 DUP5 DUP3 DUP6 ADD PUSH2 0xD57 JUMP JUMPDEST SWAP2 POP POP SWAP3 SWAP2 POP POP JUMP JUMPDEST PUSH1 0x0 DUP1 REVERT JUMPDEST PUSH1 0x0 DUP1 REVERT JUMPDEST PUSH1 0x0 PUSH1 0x1F NOT PUSH1 0x1F DUP4 ADD AND SWAP1 POP SWAP2 SWAP1 POP JUMP JUMPDEST PUSH32 0x4E487B7100000000000000000000000000000000000000000000000000000000 PUSH1 0x0 MSTORE PUSH1 0x41 PUSH1 0x4 MSTORE PUSH1 0x24 PUSH1 0x0 REVERT JUMPDEST PUSH2 0xDEC DUP3 PUSH2 0xDA3 JUMP JUMPDEST DUP2 ADD DUP2 DUP2 LT PUSH8 0xFFFFFFFFFFFFFFFF DUP3 GT OR ISZERO PUSH2 0xE0B JUMPI PUSH2 0xE0A PUSH2 0xDB4 JUMP JUMPDEST JUMPDEST DUP1 PUSH1 0x40 MSTORE POP POP POP JUMP JUMPDEST PUSH1 0x0 PUSH2 0xE1E PUSH2 0xB23 JUMP JUMPDEST SWAP1 POP PUSH2 0xE2A DUP3 DUP3 PUSH2 0xDE3 JUMP JUMPDEST SWAP2 SWAP1 POP JUMP JUMPDEST PUSH1 0x0 PUSH8 0xFFFFFFFFFFFFFFFF DUP3 GT ISZERO PUSH2 0xE4A JUMPI PUSH2 0xE49 PUSH2 0xDB4 JUMP JUMPDEST JUMPDEST PUSH2 0xE53 DUP3 PUSH2 0xDA3 JUMP JUMPDEST SWAP1 POP PUSH1 0x20 DUP2 ADD SWAP1 POP SWAP2 SWAP1 POP JUMP JUMPDEST DUP3 DUP2 DUP4 CALLDATACOPY PUSH1 0x0 DUP4 DUP4 ADD MSTORE POP POP POP JUMP JUMPDEST PUSH1 0x0 PUSH2 0xE82 PUSH2 0xE7D DUP5 PUSH2 0xE2F JUMP JUMPDEST PUSH2 0xE14 JUMP JUMPDEST SWAP1 POP DUP3 DUP2 MSTORE PUSH1 0x20 DUP2 ADD DUP5 DUP5 DUP5 ADD GT ISZERO PUSH2 0xE9E JUMPI PUSH2 0xE9D PUSH2 0xD9E JUMP JUMPDEST JUMPDEST PUSH2 0xEA9 DUP5 DUP3 DUP6 PUSH2 0xE60 JUMP JUMPDEST POP SWAP4 SWAP3 POP POP POP JUMP JUMPDEST PUSH1 0x0 DUP3 PUSH1 0x1F DUP4 ADD SLT PUSH2 0xEC6 JUMPI PUSH2 0xEC5 PUSH2 0xD99 JUMP JUMPDEST JUMPDEST DUP2 CALLDATALOAD PUSH2 0xED6 DUP5 DUP3 PUSH1 0x20 DUP7 ADD PUSH2 0xE6F JUMP JUMPDEST SWAP2 POP POP SWAP3 SWAP2 POP POP JUMP JUMPDEST PUSH1 0x0 DUP1 PUSH1 0x0 PUSH1 0x60 DUP5 DUP7 SUB SLT ISZERO PUSH2 0xEF8 JUMPI PUSH2 0xEF7 PUSH2 0xB2D JUMP JUMPDEST JUMPDEST PUSH1 0x0 PUSH2 0xF06 DUP7 DUP3 DUP8 ADD PUSH2 0xD57 JUMP JUMPDEST SWAP4 POP POP PUSH1 0x20 PUSH2 0xF17 DUP7 DUP3 DUP8 ADD PUSH2 0xC85 JUMP JUMPDEST SWAP3 POP POP PUSH1 0x40 DUP5 ADD CALLDATALOAD PUSH8 0xFFFFFFFFFFFFFFFF DUP2 GT ISZERO PUSH2 0xF38 JUMPI PUSH2 0xF37 PUSH2 0xB32 JUMP JUMPDEST JUMPDEST PUSH2 0xF44 DUP7 DUP3 DUP8 ADD PUSH2 0xEB1 JUMP JUMPDEST SWAP2 POP POP SWAP3 POP SWAP3 POP SWAP3 JUMP JUMPDEST PUSH1 0x0 DUP2 MLOAD SWAP1 POP SWAP2 SWAP1 POP JUMP JUMPDEST PUSH1 0x0 DUP3 DUP3 MSTORE PUSH1 0x20 DUP3 ADD SWAP1 POP SWAP3 SWAP2 POP POP JUMP JUMPDEST PUSH1 0x0 JUMPDEST DUP4 DUP2 LT ISZERO PUSH2 0xF88 JUMPI DUP1 DUP3 ADD MLOAD DUP2 DUP5 ADD MSTORE PUSH1 0x20 DUP2 ADD SWAP1 POP PUSH2 0xF6D JUMP JUMPDEST PUSH1 0x0 DUP5 DUP5 ADD MSTORE POP POP POP POP JUMP JUMPDEST PUSH1 0x0 PUSH2 0xF9F DUP3 PUSH2 0xF4E JUMP JUMPDEST PUSH2 0xFA9 DUP2 DUP6 PUSH2 0xF59 JUMP JUMPDEST SWAP4 POP PUSH2 0xFB9 DUP2 DUP6 PUSH1 0x20 DUP7 ADD PUSH2 0xF6A JUMP JUMPDEST PUSH2 0xFC2 DUP2 PUSH2 0xDA3 JUMP JUMPDEST DUP5 ADD SWAP2 POP POP SWAP3 SWAP2 POP POP JUMP JUMPDEST PUSH1 0x0 PUSH1 0x20 DUP3 ADD SWAP1 POP DUP2 DUP2 SUB PUSH1 0x0 DUP4 ADD MSTORE PUSH2 0xFE7 DUP2 DUP5 PUSH2 0xF94 JUMP JUMPDEST SWAP1 POP SWAP3 SWAP2 POP POP JUMP JUMPDEST PUSH1 0x0 DUP3 DUP3 MSTORE PUSH1 0x20 DUP3 ADD SWAP1 POP SWAP3 SWAP2 POP POP JUMP JUMPDEST PUSH32 0x796F7520617265206E6F7420746865206F776E65720000000000000000000000 PUSH1 0x0 DUP3 ADD MSTORE POP JUMP JUMPDEST PUSH1 0x0 PUSH2 0x1036 PUSH1 0x15 DUP4 PUSH2 0xFEF JUMP JUMPDEST SWAP2 POP PUSH2 0x1041 DUP3 PUSH2 0x1000 JUMP JUMPDEST PUSH1 0x20 DUP3 ADD SWAP1 POP SWAP2 SWAP1 POP JUMP JUMPDEST PUSH1 0x0 PUSH1 0x20 DUP3 ADD SWAP1 POP DUP2 DUP2 SUB PUSH1 0x0 DUP4 ADD MSTORE PUSH2 0x1065 DUP2 PUSH2 0x1029 JUMP JUMPDEST SWAP1 POP SWAP2 SWAP1 POP JUMP JUMPDEST PUSH32 0x796F7520617265206E6F7420746865206F776E65722C2061626F7274696E6721 PUSH1 0x0 DUP3 ADD MSTORE POP JUMP JUMPDEST PUSH1 0x0 PUSH2 0x10A2 PUSH1 0x20 DUP4 PUSH2 0xFEF JUMP JUMPDEST SWAP2 POP PUSH2 0x10AD DUP3 PUSH2 0x106C JUMP JUMPDEST PUSH1 0x20 DUP3 ADD SWAP1 POP SWAP2 SWAP1 POP JUMP JUMPDEST PUSH1 0x0 PUSH1 0x20 DUP3 ADD SWAP1 POP DUP2 DUP2 SUB PUSH1 0x0 DUP4 ADD MSTORE PUSH2 0x10D1 DUP2 PUSH2 0x1095 JUMP JUMPDEST SWAP1 POP SWAP2 SWAP1 POP JUMP JUMPDEST PUSH32 0x796F7520617265206E6F7420677561726469616E206F6620746869732077616C PUSH1 0x0 DUP3 ADD MSTORE PUSH32 0x6C65740000000000000000000000000000000000000000000000000000000000 PUSH1 0x20 DUP3 ADD MSTORE POP JUMP JUMPDEST PUSH1 0x0 PUSH2 0x1134 PUSH1 0x23 DUP4 PUSH2 0xFEF JUMP JUMPDEST SWAP2 POP PUSH2 0x113F DUP3 PUSH2 0x10D8 JUMP JUMPDEST PUSH1 0x40 DUP3 ADD SWAP1 POP SWAP2 SWAP1 POP JUMP JUMPDEST PUSH1 0x0 PUSH1 0x20 DUP3 ADD SWAP1 POP DUP2 DUP2 SUB PUSH1 0x0 DUP4 ADD MSTORE PUSH2 0x1163 DUP2 PUSH2 0x1127 JUMP JUMPDEST SWAP1 POP SWAP2 SWAP1 POP JUMP JUMPDEST PUSH32 0x596F752061726520616C726561647920766F7465640000000000000000000000 PUSH1 0x0 DUP3 ADD MSTORE POP JUMP JUMPDEST PUSH1 0x0 PUSH2 0x11A0 PUSH1 0x15 DUP4 PUSH2 0xFEF JUMP JUMPDEST SWAP2 POP PUSH2 0x11AB DUP3 PUSH2 0x116A JUMP JUMPDEST PUSH1 0x20 DUP3 ADD SWAP1 POP SWAP2 SWAP1 POP JUMP JUMPDEST PUSH1 0x0 PUSH1 0x20 DUP3 ADD SWAP1 POP DUP2 DUP2 SUB PUSH1 0x0 DUP4 ADD MSTORE PUSH2 0x11CF DUP2 PUSH2 0x1193 JUMP JUMPDEST SWAP1 POP SWAP2 SWAP1 POP JUMP JUMPDEST PUSH32 0x4E487B7100000000000000000000000000000000000000000000000000000000 PUSH1 0x0 MSTORE PUSH1 0x11 PUSH1 0x4 MSTORE PUSH1 0x24 PUSH1 0x0 REVERT JUMPDEST PUSH1 0x0 PUSH2 0x1210 DUP3 PUSH2 0xC64 JUMP JUMPDEST SWAP2 POP PUSH32 0xFFFFFFFFFFFFFFFFFFFFFFFFFFFFFFFFFFFFFFFFFFFFFFFFFFFFFFFFFFFFFFFF DUP3 SUB PUSH2 0x1242 JUMPI PUSH2 0x1241 PUSH2 0x11D6 JUMP JUMPDEST JUMPDEST PUSH1 0x1 DUP3 ADD SWAP1 POP SWAP2 SWAP1 POP JUMP JUMPDEST PUSH32 0x596F7520617265206E6F7420746865206F776E65722C2061626F7274696E6721 PUSH1 0x0 DUP3 ADD MSTORE POP JUMP JUMPDEST PUSH1 0x0 PUSH2 0x1283 PUSH1 0x20 DUP4 PUSH2 0xFEF JUMP JUMPDEST SWAP2 POP PUSH2 0x128E DUP3 PUSH2 0x124D JUMP JUMPDEST PUSH1 0x20 DUP3 ADD SWAP1 POP SWAP2 SWAP1 POP JUMP JUMPDEST PUSH1 0x0 PUSH1 0x20 DUP3 ADD SWAP1 POP DUP2 DUP2 SUB PUSH1 0x0 DUP4 ADD MSTORE PUSH2 0x12B2 DUP2 PUSH2 0x1276 JUMP JUMPDEST SWAP1 POP SWAP2 SWAP1 POP JUMP JUMPDEST PUSH32 0x596F7520617265206E6F7420616C6C6F77656420746F2073656E6420616E7974 PUSH1 0x0 DUP3 ADD MSTORE PUSH32 0x68696E672066726F6D207468697320736D61727420636F6E74726163742C2041 PUSH1 0x20 DUP3 ADD MSTORE PUSH32 0x626F7274696E6721000000000000000000000000000000000000000000000000 PUSH1 0x40 DUP3 ADD MSTORE POP JUMP JUMPDEST PUSH1 0x0 PUSH2 0x133B PUSH1 0x48 DUP4 PUSH2 0xFEF JUMP JUMPDEST SWAP2 POP PUSH2 0x1346 DUP3 PUSH2 0x12B9 JUMP JUMPDEST PUSH1 0x60 DUP3 ADD SWAP1 POP SWAP2 SWAP1 POP JUMP JUMPDEST PUSH1 0x0 PUSH1 0x20 DUP3 ADD SWAP1 POP DUP2 DUP2 SUB PUSH1 0x0 DUP4 ADD MSTORE PUSH2 0x136A DUP2 PUSH2 0x132E JUMP JUMPDEST SWAP1 POP SWAP2 SWAP1 POP JUMP JUMPDEST PUSH32 0x596F75206172652073656E64696E67206D6F7265207468616E20796F75722061 PUSH1 0x0 DUP3 ADD MSTORE PUSH32 0x6C6C6F77616E6365000000000000000000000000000000000000000000000000 PUSH1 0x20 DUP3 ADD MSTORE POP JUMP JUMPDEST PUSH1 0x0 PUSH2 0x13CD PUSH1 0x28 DUP4 PUSH2 0xFEF JUMP JUMPDEST SWAP2 POP PUSH2 0x13D8 DUP3 PUSH2 0x1371 JUMP JUMPDEST PUSH1 0x40 DUP3 ADD SWAP1 POP SWAP2 SWAP1 POP JUMP JUMPDEST PUSH1 0x0 PUSH1 0x20 DUP3 ADD SWAP1 POP DUP2 DUP2 SUB PUSH1 0x0 DUP4 ADD MSTORE PUSH2 0x13FC DUP2 PUSH2 0x13C0 JUMP JUMPDEST SWAP1 POP SWAP2 SWAP1 POP JUMP JUMPDEST PUSH1 0x0 PUSH2 0x140E DUP3 PUSH2 0xC64 JUMP JUMPDEST SWAP2 POP PUSH2 0x1419 DUP4 PUSH2 0xC64 JUMP JUMPDEST SWAP3 POP DUP3 DUP3 SUB SWAP1 POP DUP2 DUP2 GT ISZERO PUSH2 0x1431 JUMPI PUSH2 0x1430 PUSH2 0x11D6 JUMP JUMPDEST JUMPDEST SWAP3 SWAP2 POP POP JUMP JUMPDEST PUSH1 0x0 DUP2 SWAP1 POP SWAP3 SWAP2 POP POP JUMP JUMPDEST PUSH1 0x0 PUSH2 0x144D DUP3 PUSH2 0xF4E JUMP JUMPDEST PUSH2 0x1457 DUP2 DUP6 PUSH2 0x1437 JUMP JUMPDEST SWAP4 POP PUSH2 0x1467 DUP2 DUP6 PUSH1 0x20 DUP7 ADD PUSH2 0xF6A JUMP JUMPDEST DUP1 DUP5 ADD SWAP2 POP POP SWAP3 SWAP2 POP POP JUMP JUMPDEST PUSH1 0x0 PUSH2 0x147F DUP3 DUP5 PUSH2 0x1442 JUMP JUMPDEST SWAP2 POP DUP2 SWAP1 POP SWAP3 SWAP2 POP POP JUMP JUMPDEST PUSH32 0x41626F7274696E672C2063616C6C20776173206E6F7420657865637574656400 PUSH1 0x0 DUP3 ADD MSTORE POP JUMP JUMPDEST PUSH1 0x0 PUSH2 0x14C0 PUSH1 0x1F DUP4 PUSH2 0xFEF JUMP JUMPDEST SWAP2 POP PUSH2 0x14CB DUP3 PUSH2 0x148A JUMP JUMPDEST PUSH1 0x20 DUP3 ADD SWAP1 POP SWAP2 SWAP1 POP JUMP JUMPDEST PUSH1 0x0 PUSH1 0x20 DUP3 ADD SWAP1 POP DUP2 DUP2 SUB PUSH1 0x0 DUP4 ADD MSTORE PUSH2 0x14EF DUP2 PUSH2 0x14B3 JUMP JUMPDEST SWAP1 POP SWAP2 SWAP1 POP JUMP INVALID LOG2 PUSH5 0x6970667358 0x22 SLT KECCAK256 POP 0xBB DUP6 0xCA 0xCC MLOAD JUMPI 0xC7 SLOAD 0xEE PUSH6 0xB7A103188C95 DUP7 BASEFEE XOR 0xE5 PUSH20 0x178204B62A45229BDFC964736F6C634300081000 CALLER "
				},
				"gasEstimates": {
					"creation": {
						"codeDepositCost": "1084000",
						"executionCost": "25393",
						"totalCost": "1109393"
					},
					"external": {
						"allowance(address)": "2814",
						"confirmationsFromGuardiansForReset()": "351",
						"guardians(address)": "2846",
						"isAllowedToSend(address)": "2868",
						"owner()": "2555",
						"proposeNewOwner(address)": "63045",
						"setAllowance(address,uint256)": "49460",
						"setGuardian(address,bool)": "27203",
						"transfer(address,uint256,bytes)": "infinite"
					}
				},
				"methodIdentifiers": {
					"allowance(address)": "3e5beab9",
					"confirmationsFromGuardiansForReset()": "83012be1",
					"guardians(address)": "0633b14a",
					"isAllowedToSend(address)": "0bc605ad",
					"owner()": "8da5cb5b",
					"proposeNewOwner(address)": "b1f8100d",
					"setAllowance(address,uint256)": "310ec4a7",
					"setGuardian(address,bool)": "2b8a1c5a",
					"transfer(address,uint256,bytes)": "be45fd62"
				}
			},
			"storageLayout": {
				"storage": [
					{
						"astId": 3,
						"contract": "contracts/SmartContractWallet.sol:SmartContractWallet",
						"label": "owner",
						"offset": 0,
						"slot": "0",
						"type": "t_address_payable"
					},
					{
						"astId": 7,
						"contract": "contracts/SmartContractWallet.sol:SmartContractWallet",
						"label": "allowance",
						"offset": 0,
						"slot": "1",
						"type": "t_mapping(t_address,t_uint256)"
					},
					{
						"astId": 11,
						"contract": "contracts/SmartContractWallet.sol:SmartContractWallet",
						"label": "isAllowedToSend",
						"offset": 0,
						"slot": "2",
						"type": "t_mapping(t_address,t_bool)"
					},
					{
						"astId": 15,
						"contract": "contracts/SmartContractWallet.sol:SmartContractWallet",
						"label": "guardians",
						"offset": 0,
						"slot": "3",
						"type": "t_mapping(t_address,t_bool)"
					},
					{
						"astId": 17,
						"contract": "contracts/SmartContractWallet.sol:SmartContractWallet",
						"label": "nextOwner",
						"offset": 0,
						"slot": "4",
						"type": "t_address_payable"
					},
					{
						"astId": 23,
						"contract": "contracts/SmartContractWallet.sol:SmartContractWallet",
						"label": "nextOwnerGuardianVotedBool",
						"offset": 0,
						"slot": "5",
						"type": "t_mapping(t_address,t_mapping(t_address,t_bool))"
					},
					{
						"astId": 25,
						"contract": "contracts/SmartContractWallet.sol:SmartContractWallet",
						"label": "guardiansReserCount",
						"offset": 0,
						"slot": "6",
						"type": "t_uint256"
					}
				],
				"types": {
					"t_address": {
						"encoding": "inplace",
						"label": "address",
						"numberOfBytes": "20"
					},
					"t_address_payable": {
						"encoding": "inplace",
						"label": "address payable",
						"numberOfBytes": "20"
					},
					"t_bool": {
						"encoding": "inplace",
						"label": "bool",
						"numberOfBytes": "1"
					},
					"t_mapping(t_address,t_bool)": {
						"encoding": "mapping",
						"key": "t_address",
						"label": "mapping(address => bool)",
						"numberOfBytes": "32",
						"value": "t_bool"
					},
					"t_mapping(t_address,t_mapping(t_address,t_bool))": {
						"encoding": "mapping",
						"key": "t_address",
						"label": "mapping(address => mapping(address => bool))",
						"numberOfBytes": "32",
						"value": "t_mapping(t_address,t_bool)"
					},
					"t_mapping(t_address,t_uint256)": {
						"encoding": "mapping",
						"key": "t_address",
						"label": "mapping(address => uint256)",
						"numberOfBytes": "32",
						"value": "t_uint256"
					},
					"t_uint256": {
						"encoding": "inplace",
						"label": "uint256",
						"numberOfBytes": "32"
					}
				}
			},
			"userdoc": {
				"kind": "user",
				"methods": {},
				"version": 1
			}
		}
	}
}