{
	"contracts/SampleFallback.sol": {
		"SampleFallback": {
			"abi": [
				{
					"stateMutability": "payable",
					"type": "fallback"
				},
				{
					"inputs": [],
					"name": "lastFuntionCalled",
					"outputs": [
						{
							"internalType": "string",
							"name": "",
							"type": "string"
						}
					],
					"stateMutability": "view",
					"type": "function"
				},
				{
					"inputs": [],
					"name": "lastValueSent",
					"outputs": [
						{
							"internalType": "uint256",
							"name": "",
							"type": "uint256"
						}
					],
					"stateMutability": "view",
					"type": "function"
				},
				{
					"inputs": [],
					"name": "myUint",
					"outputs": [
						{
							"internalType": "uint256",
							"name": "",
							"type": "uint256"
						}
					],
					"stateMutability": "view",
					"type": "function"
				},
				{
					"inputs": [
						{
							"internalType": "uint256",
							"name": "_myUint",
							"type": "uint256"
						}
					],
					"name": "setMyUint",
					"outputs": [],
					"stateMutability": "nonpayable",
					"type": "function"
				},
				{
					"stateMutability": "payable",
					"type": "receive"
				}
			],
			"devdoc": {
				"kind": "dev",
				"methods": {},
				"version": 1
			},
			"evm": {
				"assembly": "    /* \"contracts/SampleFallback.sol\":57:486  contract SampleFallback{... */\n  mstore(0x40, 0x80)\n  callvalue\n  dup1\n  iszero\n  tag_1\n  jumpi\n  0x00\n  dup1\n  revert\ntag_1:\n  pop\n  dataSize(sub_0)\n  dup1\n  dataOffset(sub_0)\n  0x00\n  codecopy\n  0x00\n  return\nstop\n\nsub_0: assembly {\n        /* \"contracts/SampleFallback.sol\":57:486  contract SampleFallback{... */\n      mstore(0x40, 0x80)\n      jumpi(tag_1, lt(calldatasize, 0x04))\n      shr(0xe0, calldataload(0x00))\n      dup1\n      0x022ac74c\n      eq\n      tag_3\n      jumpi\n      dup1\n      0x06540f7e\n      eq\n      tag_4\n      jumpi\n      dup1\n      0xe36a6655\n      eq\n      tag_5\n      jumpi\n      dup1\n      0xe492fd84\n      eq\n      tag_6\n      jumpi\n      jump(tag_2)\n    tag_1:\n      jumpi(tag_2, calldatasize)\n        /* \"contracts/SampleFallback.sol\":311:320  msg.value */\n      callvalue\n        /* \"contracts/SampleFallback.sol\":295:308  lastValueSent */\n      0x00\n        /* \"contracts/SampleFallback.sol\":295:320  lastValueSent = msg.value */\n      dup2\n      swap1\n      sstore\n      pop\n        /* \"contracts/SampleFallback.sol\":330:359  lastFuntionCalled = \"receive\" */\n      mload(0x40)\n      dup1\n      0x40\n      add\n      0x40\n      mstore\n      dup1\n      0x07\n      dup2\n      mstore\n      0x20\n      add\n      0x7265636569766500000000000000000000000000000000000000000000000000\n      dup2\n      mstore\n      pop\n        /* \"contracts/SampleFallback.sol\":330:347  lastFuntionCalled */\n      0x01\n        /* \"contracts/SampleFallback.sol\":330:359  lastFuntionCalled = \"receive\" */\n      swap1\n      dup2\n      tag_9\n      swap2\n      swap1\n      tag_10\n      jump\t// in\n    tag_9:\n      stop\n        /* \"contracts/SampleFallback.sol\":57:486  contract SampleFallback{... */\n    tag_2:\n        /* \"contracts/SampleFallback.sol\":426:435  msg.value */\n      callvalue\n        /* \"contracts/SampleFallback.sol\":410:423  lastValueSent */\n      0x00\n        /* \"contracts/SampleFallback.sol\":410:435  lastValueSent = msg.value */\n      dup2\n      swap1\n      sstore\n      pop\n        /* \"contracts/SampleFallback.sol\":445:475  lastFuntionCalled = \"fallback\" */\n      mload(0x40)\n      dup1\n      0x40\n      add\n      0x40\n      mstore\n      dup1\n      0x08\n      dup2\n      mstore\n      0x20\n      add\n      0x66616c6c6261636b000000000000000000000000000000000000000000000000\n      dup2\n      mstore\n      pop\n        /* \"contracts/SampleFallback.sol\":445:462  lastFuntionCalled */\n      0x01\n        /* \"contracts/SampleFallback.sol\":445:475  lastFuntionCalled = \"fallback\" */\n      swap1\n      dup2\n      tag_13\n      swap2\n      swap1\n      tag_10\n      jump\t// in\n    tag_13:\n      stop\n        /* \"contracts/SampleFallback.sol\":117:148  string public lastFuntionCalled */\n    tag_3:\n      callvalue\n      dup1\n      iszero\n      tag_14\n      jumpi\n      0x00\n      dup1\n      revert\n    tag_14:\n      pop\n      tag_15\n      tag_16\n      jump\t// in\n    tag_15:\n      mload(0x40)\n      tag_17\n      swap2\n      swap1\n      tag_18\n      jump\t// in\n    tag_17:\n      mload(0x40)\n      dup1\n      swap2\n      sub\n      swap1\n      return\n        /* \"contracts/SampleFallback.sol\":155:173  uint public myUint */\n    tag_4:\n      callvalue\n      dup1\n      iszero\n      tag_19\n      jumpi\n      0x00\n      dup1\n      revert\n    tag_19:\n      pop\n      tag_20\n      tag_21\n      jump\t// in\n    tag_20:\n      mload(0x40)\n      tag_22\n      swap2\n      swap1\n      tag_23\n      jump\t// in\n    tag_22:\n      mload(0x40)\n      dup1\n      swap2\n      sub\n      swap1\n      return\n        /* \"contracts/SampleFallback.sol\":86:111  uint public lastValueSent */\n    tag_5:\n      callvalue\n      dup1\n      iszero\n      tag_24\n      jumpi\n      0x00\n      dup1\n      revert\n    tag_24:\n      pop\n      tag_25\n      tag_26\n      jump\t// in\n    tag_25:\n      mload(0x40)\n      tag_27\n      swap2\n      swap1\n      tag_23\n      jump\t// in\n    tag_27:\n      mload(0x40)\n      dup1\n      swap2\n      sub\n      swap1\n      return\n        /* \"contracts/SampleFallback.sol\":180:254  function setMyUint(uint _myUint) public {... */\n    tag_6:\n      callvalue\n      dup1\n      iszero\n      tag_28\n      jumpi\n      0x00\n      dup1\n      revert\n    tag_28:\n      pop\n      tag_29\n      0x04\n      dup1\n      calldatasize\n      sub\n      dup2\n      add\n      swap1\n      tag_30\n      swap2\n      swap1\n      tag_31\n      jump\t// in\n    tag_30:\n      tag_32\n      jump\t// in\n    tag_29:\n      stop\n        /* \"contracts/SampleFallback.sol\":117:148  string public lastFuntionCalled */\n    tag_16:\n      0x01\n      dup1\n      sload\n      tag_33\n      swap1\n      tag_34\n      jump\t// in\n    tag_33:\n      dup1\n      0x1f\n      add\n      0x20\n      dup1\n      swap2\n      div\n      mul\n      0x20\n      add\n      mload(0x40)\n      swap1\n      dup2\n      add\n      0x40\n      mstore\n      dup1\n      swap3\n      swap2\n      swap1\n      dup2\n      dup2\n      mstore\n      0x20\n      add\n      dup3\n      dup1\n      sload\n      tag_35\n      swap1\n      tag_34\n      jump\t// in\n    tag_35:\n      dup1\n      iszero\n      tag_36\n      jumpi\n      dup1\n      0x1f\n      lt\n      tag_37\n      jumpi\n      0x0100\n      dup1\n      dup4\n      sload\n      div\n      mul\n      dup4\n      mstore\n      swap2\n      0x20\n      add\n      swap2\n      jump(tag_36)\n    tag_37:\n      dup3\n      add\n      swap2\n      swap1\n      0x00\n      mstore\n      keccak256(0x00, 0x20)\n      swap1\n    tag_38:\n      dup2\n      sload\n      dup2\n      mstore\n      swap1\n      0x01\n      add\n      swap1\n      0x20\n      add\n      dup1\n      dup4\n      gt\n      tag_38\n      jumpi\n      dup3\n      swap1\n      sub\n      0x1f\n      and\n      dup3\n      add\n      swap2\n    tag_36:\n      pop\n      pop\n      pop\n      pop\n      pop\n      dup2\n      jump\t// out\n        /* \"contracts/SampleFallback.sol\":155:173  uint public myUint */\n    tag_21:\n      sload(0x02)\n      dup2\n      jump\t// out\n        /* \"contracts/SampleFallback.sol\":86:111  uint public lastValueSent */\n    tag_26:\n      sload(0x00)\n      dup2\n      jump\t// out\n        /* \"contracts/SampleFallback.sol\":180:254  function setMyUint(uint _myUint) public {... */\n    tag_32:\n        /* \"contracts/SampleFallback.sol\":239:246  _myUint */\n      dup1\n        /* \"contracts/SampleFallback.sol\":230:236  myUint */\n      0x02\n        /* \"contracts/SampleFallback.sol\":230:246  myUint = _myUint */\n      dup2\n      swap1\n      sstore\n      pop\n        /* \"contracts/SampleFallback.sol\":180:254  function setMyUint(uint _myUint) public {... */\n      pop\n      jump\t// out\n        /* \"#utility.yul\":7:106   */\n    tag_40:\n        /* \"#utility.yul\":59:65   */\n      0x00\n        /* \"#utility.yul\":93:98   */\n      dup2\n        /* \"#utility.yul\":87:99   */\n      mload\n        /* \"#utility.yul\":77:99   */\n      swap1\n      pop\n        /* \"#utility.yul\":7:106   */\n      swap2\n      swap1\n      pop\n      jump\t// out\n        /* \"#utility.yul\":112:292   */\n    tag_41:\n        /* \"#utility.yul\":160:237   */\n      0x4e487b7100000000000000000000000000000000000000000000000000000000\n        /* \"#utility.yul\":157:158   */\n      0x00\n        /* \"#utility.yul\":150:238   */\n      mstore\n        /* \"#utility.yul\":257:261   */\n      0x41\n        /* \"#utility.yul\":254:255   */\n      0x04\n        /* \"#utility.yul\":247:262   */\n      mstore\n        /* \"#utility.yul\":281:285   */\n      0x24\n        /* \"#utility.yul\":278:279   */\n      0x00\n        /* \"#utility.yul\":271:286   */\n      revert\n        /* \"#utility.yul\":298:478   */\n    tag_42:\n        /* \"#utility.yul\":346:423   */\n      0x4e487b7100000000000000000000000000000000000000000000000000000000\n        /* \"#utility.yul\":343:344   */\n      0x00\n        /* \"#utility.yul\":336:424   */\n      mstore\n        /* \"#utility.yul\":443:447   */\n      0x22\n        /* \"#utility.yul\":440:441   */\n      0x04\n        /* \"#utility.yul\":433:448   */\n      mstore\n        /* \"#utility.yul\":467:471   */\n      0x24\n        /* \"#utility.yul\":464:465   */\n      0x00\n        /* \"#utility.yul\":457:472   */\n      revert\n        /* \"#utility.yul\":484:804   */\n    tag_34:\n        /* \"#utility.yul\":528:534   */\n      0x00\n        /* \"#utility.yul\":565:566   */\n      0x02\n        /* \"#utility.yul\":559:563   */\n      dup3\n        /* \"#utility.yul\":555:567   */\n      div\n        /* \"#utility.yul\":545:567   */\n      swap1\n      pop\n        /* \"#utility.yul\":612:613   */\n      0x01\n        /* \"#utility.yul\":606:610   */\n      dup3\n        /* \"#utility.yul\":602:614   */\n      and\n        /* \"#utility.yul\":633:651   */\n      dup1\n        /* \"#utility.yul\":623:704   */\n      tag_74\n      jumpi\n        /* \"#utility.yul\":689:693   */\n      0x7f\n        /* \"#utility.yul\":681:687   */\n      dup3\n        /* \"#utility.yul\":677:694   */\n      and\n        /* \"#utility.yul\":667:694   */\n      swap2\n      pop\n        /* \"#utility.yul\":623:704   */\n    tag_74:\n        /* \"#utility.yul\":751:753   */\n      0x20\n        /* \"#utility.yul\":743:749   */\n      dup3\n        /* \"#utility.yul\":740:754   */\n      lt\n        /* \"#utility.yul\":720:738   */\n      dup2\n        /* \"#utility.yul\":717:755   */\n      sub\n        /* \"#utility.yul\":714:798   */\n      tag_75\n      jumpi\n        /* \"#utility.yul\":770:788   */\n      tag_76\n      tag_42\n      jump\t// in\n    tag_76:\n        /* \"#utility.yul\":714:798   */\n    tag_75:\n        /* \"#utility.yul\":535:804   */\n      pop\n        /* \"#utility.yul\":484:804   */\n      swap2\n      swap1\n      pop\n      jump\t// out\n        /* \"#utility.yul\":810:951   */\n    tag_43:\n        /* \"#utility.yul\":859:863   */\n      0x00\n        /* \"#utility.yul\":882:885   */\n      dup2\n        /* \"#utility.yul\":874:885   */\n      swap1\n      pop\n        /* \"#utility.yul\":905:908   */\n      dup2\n        /* \"#utility.yul\":902:903   */\n      0x00\n        /* \"#utility.yul\":895:909   */\n      mstore\n        /* \"#utility.yul\":939:943   */\n      0x20\n        /* \"#utility.yul\":936:937   */\n      0x00\n        /* \"#utility.yul\":926:944   */\n      keccak256\n        /* \"#utility.yul\":918:944   */\n      swap1\n      pop\n        /* \"#utility.yul\":810:951   */\n      swap2\n      swap1\n      pop\n      jump\t// out\n        /* \"#utility.yul\":957:1050   */\n    tag_44:\n        /* \"#utility.yul\":994:1000   */\n      0x00\n        /* \"#utility.yul\":1041:1043   */\n      0x20\n        /* \"#utility.yul\":1036:1038   */\n      0x1f\n        /* \"#utility.yul\":1029:1034   */\n      dup4\n        /* \"#utility.yul\":1025:1039   */\n      add\n        /* \"#utility.yul\":1021:1044   */\n      div\n        /* \"#utility.yul\":1011:1044   */\n      swap1\n      pop\n        /* \"#utility.yul\":957:1050   */\n      swap2\n      swap1\n      pop\n      jump\t// out\n        /* \"#utility.yul\":1056:1163   */\n    tag_45:\n        /* \"#utility.yul\":1100:1108   */\n      0x00\n        /* \"#utility.yul\":1150:1155   */\n      dup3\n        /* \"#utility.yul\":1144:1148   */\n      dup3\n        /* \"#utility.yul\":1140:1156   */\n      shl\n        /* \"#utility.yul\":1119:1156   */\n      swap1\n      pop\n        /* \"#utility.yul\":1056:1163   */\n      swap3\n      swap2\n      pop\n      pop\n      jump\t// out\n        /* \"#utility.yul\":1169:1562   */\n    tag_46:\n        /* \"#utility.yul\":1238:1244   */\n      0x00\n        /* \"#utility.yul\":1288:1289   */\n      0x08\n        /* \"#utility.yul\":1276:1286   */\n      dup4\n        /* \"#utility.yul\":1272:1290   */\n      mul\n        /* \"#utility.yul\":1311:1408   */\n      tag_81\n        /* \"#utility.yul\":1341:1407   */\n      0xffffffffffffffffffffffffffffffffffffffffffffffffffffffffffffffff\n        /* \"#utility.yul\":1330:1339   */\n      dup3\n        /* \"#utility.yul\":1311:1408   */\n      tag_45\n      jump\t// in\n    tag_81:\n        /* \"#utility.yul\":1429:1468   */\n      tag_82\n        /* \"#utility.yul\":1459:1467   */\n      dup7\n        /* \"#utility.yul\":1448:1457   */\n      dup4\n        /* \"#utility.yul\":1429:1468   */\n      tag_45\n      jump\t// in\n    tag_82:\n        /* \"#utility.yul\":1417:1468   */\n      swap6\n      pop\n        /* \"#utility.yul\":1501:1505   */\n      dup1\n        /* \"#utility.yul\":1497:1506   */\n      not\n        /* \"#utility.yul\":1490:1495   */\n      dup5\n        /* \"#utility.yul\":1486:1507   */\n      and\n        /* \"#utility.yul\":1477:1507   */\n      swap4\n      pop\n        /* \"#utility.yul\":1550:1554   */\n      dup1\n        /* \"#utility.yul\":1540:1548   */\n      dup7\n        /* \"#utility.yul\":1536:1555   */\n      and\n        /* \"#utility.yul\":1529:1534   */\n      dup5\n        /* \"#utility.yul\":1526:1556   */\n      or\n        /* \"#utility.yul\":1516:1556   */\n      swap3\n      pop\n        /* \"#utility.yul\":1245:1562   */\n      pop\n      pop\n        /* \"#utility.yul\":1169:1562   */\n      swap4\n      swap3\n      pop\n      pop\n      pop\n      jump\t// out\n        /* \"#utility.yul\":1568:1645   */\n    tag_47:\n        /* \"#utility.yul\":1605:1612   */\n      0x00\n        /* \"#utility.yul\":1634:1639   */\n      dup2\n        /* \"#utility.yul\":1623:1639   */\n      swap1\n      pop\n        /* \"#utility.yul\":1568:1645   */\n      swap2\n      swap1\n      pop\n      jump\t// out\n        /* \"#utility.yul\":1651:1711   */\n    tag_48:\n        /* \"#utility.yul\":1679:1682   */\n      0x00\n        /* \"#utility.yul\":1700:1705   */\n      dup2\n        /* \"#utility.yul\":1693:1705   */\n      swap1\n      pop\n        /* \"#utility.yul\":1651:1711   */\n      swap2\n      swap1\n      pop\n      jump\t// out\n        /* \"#utility.yul\":1717:1859   */\n    tag_49:\n        /* \"#utility.yul\":1767:1776   */\n      0x00\n        /* \"#utility.yul\":1800:1853   */\n      tag_86\n        /* \"#utility.yul\":1818:1852   */\n      tag_87\n        /* \"#utility.yul\":1827:1851   */\n      tag_88\n        /* \"#utility.yul\":1845:1850   */\n      dup5\n        /* \"#utility.yul\":1827:1851   */\n      tag_47\n      jump\t// in\n    tag_88:\n        /* \"#utility.yul\":1818:1852   */\n      tag_48\n      jump\t// in\n    tag_87:\n        /* \"#utility.yul\":1800:1853   */\n      tag_47\n      jump\t// in\n    tag_86:\n        /* \"#utility.yul\":1787:1853   */\n      swap1\n      pop\n        /* \"#utility.yul\":1717:1859   */\n      swap2\n      swap1\n      pop\n      jump\t// out\n        /* \"#utility.yul\":1865:1940   */\n    tag_50:\n        /* \"#utility.yul\":1908:1911   */\n      0x00\n        /* \"#utility.yul\":1929:1934   */\n      dup2\n        /* \"#utility.yul\":1922:1934   */\n      swap1\n      pop\n        /* \"#utility.yul\":1865:1940   */\n      swap2\n      swap1\n      pop\n      jump\t// out\n        /* \"#utility.yul\":1946:2215   */\n    tag_51:\n        /* \"#utility.yul\":2056:2095   */\n      tag_91\n        /* \"#utility.yul\":2087:2094   */\n      dup4\n        /* \"#utility.yul\":2056:2095   */\n      tag_49\n      jump\t// in\n    tag_91:\n        /* \"#utility.yul\":2117:2208   */\n      tag_92\n        /* \"#utility.yul\":2166:2207   */\n      tag_93\n        /* \"#utility.yul\":2190:2206   */\n      dup3\n        /* \"#utility.yul\":2166:2207   */\n      tag_50\n      jump\t// in\n    tag_93:\n        /* \"#utility.yul\":2158:2164   */\n      dup5\n        /* \"#utility.yul\":2151:2155   */\n      dup5\n        /* \"#utility.yul\":2145:2156   */\n      sload\n        /* \"#utility.yul\":2117:2208   */\n      tag_46\n      jump\t// in\n    tag_92:\n        /* \"#utility.yul\":2111:2115   */\n      dup3\n        /* \"#utility.yul\":2104:2209   */\n      sstore\n        /* \"#utility.yul\":2022:2215   */\n      pop\n        /* \"#utility.yul\":1946:2215   */\n      pop\n      pop\n      pop\n      jump\t// out\n        /* \"#utility.yul\":2221:2294   */\n    tag_52:\n        /* \"#utility.yul\":2266:2269   */\n      0x00\n        /* \"#utility.yul\":2221:2294   */\n      swap1\n      jump\t// out\n        /* \"#utility.yul\":2300:2489   */\n    tag_53:\n        /* \"#utility.yul\":2377:2409   */\n      tag_96\n      tag_52\n      jump\t// in\n    tag_96:\n        /* \"#utility.yul\":2418:2483   */\n      tag_97\n        /* \"#utility.yul\":2476:2482   */\n      dup2\n        /* \"#utility.yul\":2468:2474   */\n      dup5\n        /* \"#utility.yul\":2462:2466   */\n      dup5\n        /* \"#utility.yul\":2418:2483   */\n      tag_51\n      jump\t// in\n    tag_97:\n        /* \"#utility.yul\":2353:2489   */\n      pop\n        /* \"#utility.yul\":2300:2489   */\n      pop\n      pop\n      jump\t// out\n        /* \"#utility.yul\":2495:2681   */\n    tag_54:\n        /* \"#utility.yul\":2555:2675   */\n    tag_99:\n        /* \"#utility.yul\":2572:2575   */\n      dup2\n        /* \"#utility.yul\":2565:2570   */\n      dup2\n        /* \"#utility.yul\":2562:2576   */\n      lt\n        /* \"#utility.yul\":2555:2675   */\n      iszero\n      tag_101\n      jumpi\n        /* \"#utility.yul\":2626:2665   */\n      tag_102\n        /* \"#utility.yul\":2663:2664   */\n      0x00\n        /* \"#utility.yul\":2656:2661   */\n      dup3\n        /* \"#utility.yul\":2626:2665   */\n      tag_53\n      jump\t// in\n    tag_102:\n        /* \"#utility.yul\":2599:2600   */\n      0x01\n        /* \"#utility.yul\":2592:2597   */\n      dup2\n        /* \"#utility.yul\":2588:2601   */\n      add\n        /* \"#utility.yul\":2579:2601   */\n      swap1\n      pop\n        /* \"#utility.yul\":2555:2675   */\n      jump(tag_99)\n    tag_101:\n        /* \"#utility.yul\":2495:2681   */\n      pop\n      pop\n      jump\t// out\n        /* \"#utility.yul\":2687:3230   */\n    tag_55:\n        /* \"#utility.yul\":2788:2790   */\n      0x1f\n        /* \"#utility.yul\":2783:2786   */\n      dup3\n        /* \"#utility.yul\":2780:2791   */\n      gt\n        /* \"#utility.yul\":2777:3223   */\n      iszero\n      tag_104\n      jumpi\n        /* \"#utility.yul\":2822:2860   */\n      tag_105\n        /* \"#utility.yul\":2854:2859   */\n      dup2\n        /* \"#utility.yul\":2822:2860   */\n      tag_43\n      jump\t// in\n    tag_105:\n        /* \"#utility.yul\":2906:2935   */\n      tag_106\n        /* \"#utility.yul\":2924:2934   */\n      dup5\n        /* \"#utility.yul\":2906:2935   */\n      tag_44\n      jump\t// in\n    tag_106:\n        /* \"#utility.yul\":2896:2904   */\n      dup2\n        /* \"#utility.yul\":2892:2936   */\n      add\n        /* \"#utility.yul\":3089:3091   */\n      0x20\n        /* \"#utility.yul\":3077:3087   */\n      dup6\n        /* \"#utility.yul\":3074:3092   */\n      lt\n        /* \"#utility.yul\":3071:3120   */\n      iszero\n      tag_107\n      jumpi\n        /* \"#utility.yul\":3110:3118   */\n      dup2\n        /* \"#utility.yul\":3095:3118   */\n      swap1\n      pop\n        /* \"#utility.yul\":3071:3120   */\n    tag_107:\n        /* \"#utility.yul\":3133:3213   */\n      tag_108\n        /* \"#utility.yul\":3189:3211   */\n      tag_109\n        /* \"#utility.yul\":3207:3210   */\n      dup6\n        /* \"#utility.yul\":3189:3211   */\n      tag_44\n      jump\t// in\n    tag_109:\n        /* \"#utility.yul\":3179:3187   */\n      dup4\n        /* \"#utility.yul\":3175:3212   */\n      add\n        /* \"#utility.yul\":3162:3173   */\n      dup3\n        /* \"#utility.yul\":3133:3213   */\n      tag_54\n      jump\t// in\n    tag_108:\n        /* \"#utility.yul\":2792:3223   */\n      pop\n      pop\n        /* \"#utility.yul\":2777:3223   */\n    tag_104:\n        /* \"#utility.yul\":2687:3230   */\n      pop\n      pop\n      pop\n      jump\t// out\n        /* \"#utility.yul\":3236:3353   */\n    tag_56:\n        /* \"#utility.yul\":3290:3298   */\n      0x00\n        /* \"#utility.yul\":3340:3345   */\n      dup3\n        /* \"#utility.yul\":3334:3338   */\n      dup3\n        /* \"#utility.yul\":3330:3346   */\n      shr\n        /* \"#utility.yul\":3309:3346   */\n      swap1\n      pop\n        /* \"#utility.yul\":3236:3353   */\n      swap3\n      swap2\n      pop\n      pop\n      jump\t// out\n        /* \"#utility.yul\":3359:3528   */\n    tag_57:\n        /* \"#utility.yul\":3403:3409   */\n      0x00\n        /* \"#utility.yul\":3436:3487   */\n      tag_112\n        /* \"#utility.yul\":3484:3485   */\n      0x00\n        /* \"#utility.yul\":3480:3486   */\n      not\n        /* \"#utility.yul\":3472:3477   */\n      dup5\n        /* \"#utility.yul\":3469:3470   */\n      0x08\n        /* \"#utility.yul\":3465:3478   */\n      mul\n        /* \"#utility.yul\":3436:3487   */\n      tag_56\n      jump\t// in\n    tag_112:\n        /* \"#utility.yul\":3432:3488   */\n      not\n        /* \"#utility.yul\":3517:3521   */\n      dup1\n        /* \"#utility.yul\":3511:3515   */\n      dup4\n        /* \"#utility.yul\":3507:3522   */\n      and\n        /* \"#utility.yul\":3497:3522   */\n      swap2\n      pop\n        /* \"#utility.yul\":3410:3528   */\n      pop\n        /* \"#utility.yul\":3359:3528   */\n      swap3\n      swap2\n      pop\n      pop\n      jump\t// out\n        /* \"#utility.yul\":3533:3828   */\n    tag_58:\n        /* \"#utility.yul\":3609:3613   */\n      0x00\n        /* \"#utility.yul\":3755:3784   */\n      tag_114\n        /* \"#utility.yul\":3780:3783   */\n      dup4\n        /* \"#utility.yul\":3774:3778   */\n      dup4\n        /* \"#utility.yul\":3755:3784   */\n      tag_57\n      jump\t// in\n    tag_114:\n        /* \"#utility.yul\":3747:3784   */\n      swap2\n      pop\n        /* \"#utility.yul\":3817:3820   */\n      dup3\n        /* \"#utility.yul\":3814:3815   */\n      0x02\n        /* \"#utility.yul\":3810:3821   */\n      mul\n        /* \"#utility.yul\":3804:3808   */\n      dup3\n        /* \"#utility.yul\":3801:3822   */\n      or\n        /* \"#utility.yul\":3793:3822   */\n      swap1\n      pop\n        /* \"#utility.yul\":3533:3828   */\n      swap3\n      swap2\n      pop\n      pop\n      jump\t// out\n        /* \"#utility.yul\":3833:5228   */\n    tag_10:\n        /* \"#utility.yul\":3950:3987   */\n      tag_116\n        /* \"#utility.yul\":3983:3986   */\n      dup3\n        /* \"#utility.yul\":3950:3987   */\n      tag_40\n      jump\t// in\n    tag_116:\n        /* \"#utility.yul\":4052:4070   */\n      0xffffffffffffffff\n        /* \"#utility.yul\":4044:4050   */\n      dup2\n        /* \"#utility.yul\":4041:4071   */\n      gt\n        /* \"#utility.yul\":4038:4094   */\n      iszero\n      tag_117\n      jumpi\n        /* \"#utility.yul\":4074:4092   */\n      tag_118\n      tag_41\n      jump\t// in\n    tag_118:\n        /* \"#utility.yul\":4038:4094   */\n    tag_117:\n        /* \"#utility.yul\":4118:4156   */\n      tag_119\n        /* \"#utility.yul\":4150:4154   */\n      dup3\n        /* \"#utility.yul\":4144:4155   */\n      sload\n        /* \"#utility.yul\":4118:4156   */\n      tag_34\n      jump\t// in\n    tag_119:\n        /* \"#utility.yul\":4203:4270   */\n      tag_120\n        /* \"#utility.yul\":4263:4269   */\n      dup3\n        /* \"#utility.yul\":4255:4261   */\n      dup3\n        /* \"#utility.yul\":4249:4253   */\n      dup6\n        /* \"#utility.yul\":4203:4270   */\n      tag_55\n      jump\t// in\n    tag_120:\n        /* \"#utility.yul\":4297:4298   */\n      0x00\n        /* \"#utility.yul\":4321:4325   */\n      0x20\n        /* \"#utility.yul\":4308:4325   */\n      swap1\n      pop\n        /* \"#utility.yul\":4353:4355   */\n      0x1f\n        /* \"#utility.yul\":4345:4351   */\n      dup4\n        /* \"#utility.yul\":4342:4356   */\n      gt\n        /* \"#utility.yul\":4370:4371   */\n      0x01\n        /* \"#utility.yul\":4365:4983   */\n      dup2\n      eq\n      tag_122\n      jumpi\n        /* \"#utility.yul\":5027:5028   */\n      0x00\n        /* \"#utility.yul\":5044:5050   */\n      dup5\n        /* \"#utility.yul\":5041:5118   */\n      iszero\n      tag_123\n      jumpi\n        /* \"#utility.yul\":5093:5102   */\n      dup3\n        /* \"#utility.yul\":5088:5091   */\n      dup8\n        /* \"#utility.yul\":5084:5103   */\n      add\n        /* \"#utility.yul\":5078:5104   */\n      mload\n        /* \"#utility.yul\":5069:5104   */\n      swap1\n      pop\n        /* \"#utility.yul\":5041:5118   */\n    tag_123:\n        /* \"#utility.yul\":5144:5211   */\n      tag_124\n        /* \"#utility.yul\":5204:5210   */\n      dup6\n        /* \"#utility.yul\":5197:5202   */\n      dup3\n        /* \"#utility.yul\":5144:5211   */\n      tag_58\n      jump\t// in\n    tag_124:\n        /* \"#utility.yul\":5138:5142   */\n      dup7\n        /* \"#utility.yul\":5131:5212   */\n      sstore\n        /* \"#utility.yul\":5000:5222   */\n      pop\n        /* \"#utility.yul\":4335:5222   */\n      jump(tag_121)\n        /* \"#utility.yul\":4365:4983   */\n    tag_122:\n        /* \"#utility.yul\":4417:4421   */\n      0x1f\n        /* \"#utility.yul\":4413:4422   */\n      not\n        /* \"#utility.yul\":4405:4411   */\n      dup5\n        /* \"#utility.yul\":4401:4423   */\n      and\n        /* \"#utility.yul\":4451:4488   */\n      tag_125\n        /* \"#utility.yul\":4483:4487   */\n      dup7\n        /* \"#utility.yul\":4451:4488   */\n      tag_43\n      jump\t// in\n    tag_125:\n        /* \"#utility.yul\":4510:4511   */\n      0x00\n        /* \"#utility.yul\":4524:4732   */\n    tag_126:\n        /* \"#utility.yul\":4538:4545   */\n      dup3\n        /* \"#utility.yul\":4535:4536   */\n      dup2\n        /* \"#utility.yul\":4532:4546   */\n      lt\n        /* \"#utility.yul\":4524:4732   */\n      iszero\n      tag_128\n      jumpi\n        /* \"#utility.yul\":4617:4626   */\n      dup5\n        /* \"#utility.yul\":4612:4615   */\n      dup10\n        /* \"#utility.yul\":4608:4627   */\n      add\n        /* \"#utility.yul\":4602:4628   */\n      mload\n        /* \"#utility.yul\":4594:4600   */\n      dup3\n        /* \"#utility.yul\":4587:4629   */\n      sstore\n        /* \"#utility.yul\":4668:4669   */\n      0x01\n        /* \"#utility.yul\":4660:4666   */\n      dup3\n        /* \"#utility.yul\":4656:4670   */\n      add\n        /* \"#utility.yul\":4646:4670   */\n      swap2\n      pop\n        /* \"#utility.yul\":4715:4717   */\n      0x20\n        /* \"#utility.yul\":4704:4713   */\n      dup6\n        /* \"#utility.yul\":4700:4718   */\n      add\n        /* \"#utility.yul\":4687:4718   */\n      swap5\n      pop\n        /* \"#utility.yul\":4561:4565   */\n      0x20\n        /* \"#utility.yul\":4558:4559   */\n      dup2\n        /* \"#utility.yul\":4554:4566   */\n      add\n        /* \"#utility.yul\":4549:4566   */\n      swap1\n      pop\n        /* \"#utility.yul\":4524:4732   */\n      jump(tag_126)\n    tag_128:\n        /* \"#utility.yul\":4760:4766   */\n      dup7\n        /* \"#utility.yul\":4751:4758   */\n      dup4\n        /* \"#utility.yul\":4748:4767   */\n      lt\n        /* \"#utility.yul\":4745:4924   */\n      iszero\n      tag_129\n      jumpi\n        /* \"#utility.yul\":4818:4827   */\n      dup5\n        /* \"#utility.yul\":4813:4816   */\n      dup10\n        /* \"#utility.yul\":4809:4828   */\n      add\n        /* \"#utility.yul\":4803:4829   */\n      mload\n        /* \"#utility.yul\":4861:4909   */\n      tag_130\n        /* \"#utility.yul\":4903:4907   */\n      0x1f\n        /* \"#utility.yul\":4895:4901   */\n      dup10\n        /* \"#utility.yul\":4891:4908   */\n      and\n        /* \"#utility.yul\":4880:4889   */\n      dup3\n        /* \"#utility.yul\":4861:4909   */\n      tag_57\n      jump\t// in\n    tag_130:\n        /* \"#utility.yul\":4853:4859   */\n      dup4\n        /* \"#utility.yul\":4846:4910   */\n      sstore\n        /* \"#utility.yul\":4768:4924   */\n      pop\n        /* \"#utility.yul\":4745:4924   */\n    tag_129:\n        /* \"#utility.yul\":4970:4971   */\n      0x01\n        /* \"#utility.yul\":4966:4967   */\n      0x02\n        /* \"#utility.yul\":4958:4964   */\n      dup9\n        /* \"#utility.yul\":4954:4968   */\n      mul\n        /* \"#utility.yul\":4950:4972   */\n      add\n        /* \"#utility.yul\":4944:4948   */\n      dup9\n        /* \"#utility.yul\":4937:4973   */\n      sstore\n        /* \"#utility.yul\":4372:4983   */\n      pop\n      pop\n      pop\n        /* \"#utility.yul\":4335:5222   */\n    tag_121:\n      pop\n        /* \"#utility.yul\":3925:5228   */\n      pop\n      pop\n      pop\n        /* \"#utility.yul\":3833:5228   */\n      pop\n      pop\n      jump\t// out\n        /* \"#utility.yul\":5234:5403   */\n    tag_59:\n        /* \"#utility.yul\":5318:5329   */\n      0x00\n        /* \"#utility.yul\":5352:5358   */\n      dup3\n        /* \"#utility.yul\":5347:5350   */\n      dup3\n        /* \"#utility.yul\":5340:5359   */\n      mstore\n        /* \"#utility.yul\":5392:5396   */\n      0x20\n        /* \"#utility.yul\":5387:5390   */\n      dup3\n        /* \"#utility.yul\":5383:5397   */\n      add\n        /* \"#utility.yul\":5368:5397   */\n      swap1\n      pop\n        /* \"#utility.yul\":5234:5403   */\n      swap3\n      swap2\n      pop\n      pop\n      jump\t// out\n        /* \"#utility.yul\":5409:5716   */\n    tag_60:\n        /* \"#utility.yul\":5477:5478   */\n      0x00\n        /* \"#utility.yul\":5487:5600   */\n    tag_133:\n        /* \"#utility.yul\":5501:5507   */\n      dup4\n        /* \"#utility.yul\":5498:5499   */\n      dup2\n        /* \"#utility.yul\":5495:5508   */\n      lt\n        /* \"#utility.yul\":5487:5600   */\n      iszero\n      tag_135\n      jumpi\n        /* \"#utility.yul\":5586:5587   */\n      dup1\n        /* \"#utility.yul\":5581:5584   */\n      dup3\n        /* \"#utility.yul\":5577:5588   */\n      add\n        /* \"#utility.yul\":5571:5589   */\n      mload\n        /* \"#utility.yul\":5567:5568   */\n      dup2\n        /* \"#utility.yul\":5562:5565   */\n      dup5\n        /* \"#utility.yul\":5558:5569   */\n      add\n        /* \"#utility.yul\":5551:5590   */\n      mstore\n        /* \"#utility.yul\":5523:5525   */\n      0x20\n        /* \"#utility.yul\":5520:5521   */\n      dup2\n        /* \"#utility.yul\":5516:5526   */\n      add\n        /* \"#utility.yul\":5511:5526   */\n      swap1\n      pop\n        /* \"#utility.yul\":5487:5600   */\n      jump(tag_133)\n    tag_135:\n        /* \"#utility.yul\":5618:5624   */\n      dup4\n        /* \"#utility.yul\":5615:5616   */\n      dup2\n        /* \"#utility.yul\":5612:5625   */\n      gt\n        /* \"#utility.yul\":5609:5710   */\n      iszero\n      tag_136\n      jumpi\n        /* \"#utility.yul\":5698:5699   */\n      0x00\n        /* \"#utility.yul\":5689:5695   */\n      dup5\n        /* \"#utility.yul\":5684:5687   */\n      dup5\n        /* \"#utility.yul\":5680:5696   */\n      add\n        /* \"#utility.yul\":5673:5700   */\n      mstore\n        /* \"#utility.yul\":5609:5710   */\n    tag_136:\n        /* \"#utility.yul\":5458:5716   */\n      pop\n        /* \"#utility.yul\":5409:5716   */\n      pop\n      pop\n      pop\n      jump\t// out\n        /* \"#utility.yul\":5722:5824   */\n    tag_61:\n        /* \"#utility.yul\":5763:5769   */\n      0x00\n        /* \"#utility.yul\":5814:5816   */\n      0x1f\n        /* \"#utility.yul\":5810:5817   */\n      not\n        /* \"#utility.yul\":5805:5807   */\n      0x1f\n        /* \"#utility.yul\":5798:5803   */\n      dup4\n        /* \"#utility.yul\":5794:5808   */\n      add\n        /* \"#utility.yul\":5790:5818   */\n      and\n        /* \"#utility.yul\":5780:5818   */\n      swap1\n      pop\n        /* \"#utility.yul\":5722:5824   */\n      swap2\n      swap1\n      pop\n      jump\t// out\n        /* \"#utility.yul\":5830:6194   */\n    tag_62:\n        /* \"#utility.yul\":5918:5921   */\n      0x00\n        /* \"#utility.yul\":5946:5985   */\n      tag_139\n        /* \"#utility.yul\":5979:5984   */\n      dup3\n        /* \"#utility.yul\":5946:5985   */\n      tag_40\n      jump\t// in\n    tag_139:\n        /* \"#utility.yul\":6001:6072   */\n      tag_140\n        /* \"#utility.yul\":6065:6071   */\n      dup2\n        /* \"#utility.yul\":6060:6063   */\n      dup6\n        /* \"#utility.yul\":6001:6072   */\n      tag_59\n      jump\t// in\n    tag_140:\n        /* \"#utility.yul\":5994:6072   */\n      swap4\n      pop\n        /* \"#utility.yul\":6081:6133   */\n      tag_141\n        /* \"#utility.yul\":6126:6132   */\n      dup2\n        /* \"#utility.yul\":6121:6124   */\n      dup6\n        /* \"#utility.yul\":6114:6118   */\n      0x20\n        /* \"#utility.yul\":6107:6112   */\n      dup7\n        /* \"#utility.yul\":6103:6119   */\n      add\n        /* \"#utility.yul\":6081:6133   */\n      tag_60\n      jump\t// in\n    tag_141:\n        /* \"#utility.yul\":6158:6187   */\n      tag_142\n        /* \"#utility.yul\":6180:6186   */\n      dup2\n        /* \"#utility.yul\":6158:6187   */\n      tag_61\n      jump\t// in\n    tag_142:\n        /* \"#utility.yul\":6153:6156   */\n      dup5\n        /* \"#utility.yul\":6149:6188   */\n      add\n        /* \"#utility.yul\":6142:6188   */\n      swap2\n      pop\n        /* \"#utility.yul\":5922:6194   */\n      pop\n        /* \"#utility.yul\":5830:6194   */\n      swap3\n      swap2\n      pop\n      pop\n      jump\t// out\n        /* \"#utility.yul\":6200:6513   */\n    tag_18:\n        /* \"#utility.yul\":6313:6317   */\n      0x00\n        /* \"#utility.yul\":6351:6353   */\n      0x20\n        /* \"#utility.yul\":6340:6349   */\n      dup3\n        /* \"#utility.yul\":6336:6354   */\n      add\n        /* \"#utility.yul\":6328:6354   */\n      swap1\n      pop\n        /* \"#utility.yul\":6400:6409   */\n      dup2\n        /* \"#utility.yul\":6394:6398   */\n      dup2\n        /* \"#utility.yul\":6390:6410   */\n      sub\n        /* \"#utility.yul\":6386:6387   */\n      0x00\n        /* \"#utility.yul\":6375:6384   */\n      dup4\n        /* \"#utility.yul\":6371:6388   */\n      add\n        /* \"#utility.yul\":6364:6411   */\n      mstore\n        /* \"#utility.yul\":6428:6506   */\n      tag_144\n        /* \"#utility.yul\":6501:6505   */\n      dup2\n        /* \"#utility.yul\":6492:6498   */\n      dup5\n        /* \"#utility.yul\":6428:6506   */\n      tag_62\n      jump\t// in\n    tag_144:\n        /* \"#utility.yul\":6420:6506   */\n      swap1\n      pop\n        /* \"#utility.yul\":6200:6513   */\n      swap3\n      swap2\n      pop\n      pop\n      jump\t// out\n        /* \"#utility.yul\":6519:6637   */\n    tag_63:\n        /* \"#utility.yul\":6606:6630   */\n      tag_146\n        /* \"#utility.yul\":6624:6629   */\n      dup2\n        /* \"#utility.yul\":6606:6630   */\n      tag_47\n      jump\t// in\n    tag_146:\n        /* \"#utility.yul\":6601:6604   */\n      dup3\n        /* \"#utility.yul\":6594:6631   */\n      mstore\n        /* \"#utility.yul\":6519:6637   */\n      pop\n      pop\n      jump\t// out\n        /* \"#utility.yul\":6643:6865   */\n    tag_23:\n        /* \"#utility.yul\":6736:6740   */\n      0x00\n        /* \"#utility.yul\":6774:6776   */\n      0x20\n        /* \"#utility.yul\":6763:6772   */\n      dup3\n        /* \"#utility.yul\":6759:6777   */\n      add\n        /* \"#utility.yul\":6751:6777   */\n      swap1\n      pop\n        /* \"#utility.yul\":6787:6858   */\n      tag_148\n        /* \"#utility.yul\":6855:6856   */\n      0x00\n        /* \"#utility.yul\":6844:6853   */\n      dup4\n        /* \"#utility.yul\":6840:6857   */\n      add\n        /* \"#utility.yul\":6831:6837   */\n      dup5\n        /* \"#utility.yul\":6787:6858   */\n      tag_63\n      jump\t// in\n    tag_148:\n        /* \"#utility.yul\":6643:6865   */\n      swap3\n      swap2\n      pop\n      pop\n      jump\t// out\n        /* \"#utility.yul\":6952:7069   */\n    tag_65:\n        /* \"#utility.yul\":7061:7062   */\n      0x00\n        /* \"#utility.yul\":7058:7059   */\n      dup1\n        /* \"#utility.yul\":7051:7063   */\n      revert\n        /* \"#utility.yul\":7198:7320   */\n    tag_67:\n        /* \"#utility.yul\":7271:7295   */\n      tag_153\n        /* \"#utility.yul\":7289:7294   */\n      dup2\n        /* \"#utility.yul\":7271:7295   */\n      tag_47\n      jump\t// in\n    tag_153:\n        /* \"#utility.yul\":7264:7269   */\n      dup2\n        /* \"#utility.yul\":7261:7296   */\n      eq\n        /* \"#utility.yul\":7251:7314   */\n      tag_154\n      jumpi\n        /* \"#utility.yul\":7310:7311   */\n      0x00\n        /* \"#utility.yul\":7307:7308   */\n      dup1\n        /* \"#utility.yul\":7300:7312   */\n      revert\n        /* \"#utility.yul\":7251:7314   */\n    tag_154:\n        /* \"#utility.yul\":7198:7320   */\n      pop\n      jump\t// out\n        /* \"#utility.yul\":7326:7465   */\n    tag_68:\n        /* \"#utility.yul\":7372:7377   */\n      0x00\n        /* \"#utility.yul\":7410:7416   */\n      dup2\n        /* \"#utility.yul\":7397:7417   */\n      calldataload\n        /* \"#utility.yul\":7388:7417   */\n      swap1\n      pop\n        /* \"#utility.yul\":7426:7459   */\n      tag_156\n        /* \"#utility.yul\":7453:7458   */\n      dup2\n        /* \"#utility.yul\":7426:7459   */\n      tag_67\n      jump\t// in\n    tag_156:\n        /* \"#utility.yul\":7326:7465   */\n      swap3\n      swap2\n      pop\n      pop\n      jump\t// out\n        /* \"#utility.yul\":7471:7800   */\n    tag_31:\n        /* \"#utility.yul\":7530:7536   */\n      0x00\n        /* \"#utility.yul\":7579:7581   */\n      0x20\n        /* \"#utility.yul\":7567:7576   */\n      dup3\n        /* \"#utility.yul\":7558:7565   */\n      dup5\n        /* \"#utility.yul\":7554:7577   */\n      sub\n        /* \"#utility.yul\":7550:7582   */\n      slt\n        /* \"#utility.yul\":7547:7666   */\n      iszero\n      tag_158\n      jumpi\n        /* \"#utility.yul\":7585:7664   */\n      tag_159\n      tag_65\n      jump\t// in\n    tag_159:\n        /* \"#utility.yul\":7547:7666   */\n    tag_158:\n        /* \"#utility.yul\":7705:7706   */\n      0x00\n        /* \"#utility.yul\":7730:7783   */\n      tag_160\n        /* \"#utility.yul\":7775:7782   */\n      dup5\n        /* \"#utility.yul\":7766:7772   */\n      dup3\n        /* \"#utility.yul\":7755:7764   */\n      dup6\n        /* \"#utility.yul\":7751:7773   */\n      add\n        /* \"#utility.yul\":7730:7783   */\n      tag_68\n      jump\t// in\n    tag_160:\n        /* \"#utility.yul\":7720:7783   */\n      swap2\n      pop\n        /* \"#utility.yul\":7676:7793   */\n      pop\n        /* \"#utility.yul\":7471:7800   */\n      swap3\n      swap2\n      pop\n      pop\n      jump\t// out\n\n    auxdata: 0xa264697066735822122064a7e2fb786581965102186743984a8eee8a3cc64acb7c6c7f50d7ebbddd440d64736f6c634300080f0033\n}\n",
				"bytecode": {
					"linkReferences": {},
					"object": "608060405234801561001057600080fd5b506106c0806100206000396000f3fe6080604052600436106100435760003560e01c8063022ac74c146100e257806306540f7e1461010d578063e36a665514610138578063e492fd841461016357610095565b3661009557346000819055506040518060400160405280600781526020017f7265636569766500000000000000000000000000000000000000000000000000815250600190816100939190610480565b005b346000819055506040518060400160405280600881526020017f66616c6c6261636b000000000000000000000000000000000000000000000000815250600190816100e09190610480565b005b3480156100ee57600080fd5b506100f761018c565b60405161010491906105e0565b60405180910390f35b34801561011957600080fd5b5061012261021a565b60405161012f9190610611565b60405180910390f35b34801561014457600080fd5b5061014d610220565b60405161015a9190610611565b60405180910390f35b34801561016f57600080fd5b5061018a6004803603810190610185919061065d565b610226565b005b6001805461019990610299565b80601f01602080910402602001604051908101604052809291908181526020018280546101c590610299565b80156102125780601f106101e757610100808354040283529160200191610212565b820191906000526020600020905b8154815290600101906020018083116101f557829003601f168201915b505050505081565b60025481565b60005481565b8060028190555050565b600081519050919050565b7f4e487b7100000000000000000000000000000000000000000000000000000000600052604160045260246000fd5b7f4e487b7100000000000000000000000000000000000000000000000000000000600052602260045260246000fd5b600060028204905060018216806102b157607f821691505b6020821081036102c4576102c361026a565b5b50919050565b60008190508160005260206000209050919050565b60006020601f8301049050919050565b600082821b905092915050565b60006008830261032c7fffffffffffffffffffffffffffffffffffffffffffffffffffffffffffffffff826102ef565b61033686836102ef565b95508019841693508086168417925050509392505050565b6000819050919050565b6000819050919050565b600061037d6103786103738461034e565b610358565b61034e565b9050919050565b6000819050919050565b61039783610362565b6103ab6103a382610384565b8484546102fc565b825550505050565b600090565b6103c06103b3565b6103cb81848461038e565b505050565b5b818110156103ef576103e46000826103b8565b6001810190506103d1565b5050565b601f82111561043457610405816102ca565b61040e846102df565b8101602085101561041d578190505b610431610429856102df565b8301826103d0565b50505b505050565b600082821c905092915050565b600061045760001984600802610439565b1980831691505092915050565b60006104708383610446565b9150826002028217905092915050565b61048982610230565b67ffffffffffffffff8111156104a2576104a161023b565b5b6104ac8254610299565b6104b78282856103f3565b600060209050601f8311600181146104ea57600084156104d8578287015190505b6104e28582610464565b86555061054a565b601f1984166104f8866102ca565b60005b82811015610520578489015182556001820191506020850194506020810190506104fb565b8683101561053d5784890151610539601f891682610446565b8355505b6001600288020188555050505b505050505050565b600082825260208201905092915050565b60005b83811015610581578082015181840152602081019050610566565b83811115610590576000848401525b50505050565b6000601f19601f8301169050919050565b60006105b282610230565b6105bc8185610552565b93506105cc818560208601610563565b6105d581610596565b840191505092915050565b600060208201905081810360008301526105fa81846105a7565b905092915050565b61060b8161034e565b82525050565b60006020820190506106266000830184610602565b92915050565b600080fd5b61063a8161034e565b811461064557600080fd5b50565b60008135905061065781610631565b92915050565b6000602082840312156106735761067261062c565b5b600061068184828501610648565b9150509291505056fea264697066735822122064a7e2fb786581965102186743984a8eee8a3cc64acb7c6c7f50d7ebbddd440d64736f6c634300080f0033",
					"opcodes": "PUSH1 0x80 PUSH1 0x40 MSTORE CALLVALUE DUP1 ISZERO PUSH2 0x10 JUMPI PUSH1 0x0 DUP1 REVERT JUMPDEST POP PUSH2 0x6C0 DUP1 PUSH2 0x20 PUSH1 0x0 CODECOPY PUSH1 0x0 RETURN INVALID PUSH1 0x80 PUSH1 0x40 MSTORE PUSH1 0x4 CALLDATASIZE LT PUSH2 0x43 JUMPI PUSH1 0x0 CALLDATALOAD PUSH1 0xE0 SHR DUP1 PUSH4 0x22AC74C EQ PUSH2 0xE2 JUMPI DUP1 PUSH4 0x6540F7E EQ PUSH2 0x10D JUMPI DUP1 PUSH4 0xE36A6655 EQ PUSH2 0x138 JUMPI DUP1 PUSH4 0xE492FD84 EQ PUSH2 0x163 JUMPI PUSH2 0x95 JUMP JUMPDEST CALLDATASIZE PUSH2 0x95 JUMPI CALLVALUE PUSH1 0x0 DUP2 SWAP1 SSTORE POP PUSH1 0x40 MLOAD DUP1 PUSH1 0x40 ADD PUSH1 0x40 MSTORE DUP1 PUSH1 0x7 DUP2 MSTORE PUSH1 0x20 ADD PUSH32 0x7265636569766500000000000000000000000000000000000000000000000000 DUP2 MSTORE POP PUSH1 0x1 SWAP1 DUP2 PUSH2 0x93 SWAP2 SWAP1 PUSH2 0x480 JUMP JUMPDEST STOP JUMPDEST CALLVALUE PUSH1 0x0 DUP2 SWAP1 SSTORE POP PUSH1 0x40 MLOAD DUP1 PUSH1 0x40 ADD PUSH1 0x40 MSTORE DUP1 PUSH1 0x8 DUP2 MSTORE PUSH1 0x20 ADD PUSH32 0x66616C6C6261636B000000000000000000000000000000000000000000000000 DUP2 MSTORE POP PUSH1 0x1 SWAP1 DUP2 PUSH2 0xE0 SWAP2 SWAP1 PUSH2 0x480 JUMP JUMPDEST STOP JUMPDEST CALLVALUE DUP1 ISZERO PUSH2 0xEE JUMPI PUSH1 0x0 DUP1 REVERT JUMPDEST POP PUSH2 0xF7 PUSH2 0x18C JUMP JUMPDEST PUSH1 0x40 MLOAD PUSH2 0x104 SWAP2 SWAP1 PUSH2 0x5E0 JUMP JUMPDEST PUSH1 0x40 MLOAD DUP1 SWAP2 SUB SWAP1 RETURN JUMPDEST CALLVALUE DUP1 ISZERO PUSH2 0x119 JUMPI PUSH1 0x0 DUP1 REVERT JUMPDEST POP PUSH2 0x122 PUSH2 0x21A JUMP JUMPDEST PUSH1 0x40 MLOAD PUSH2 0x12F SWAP2 SWAP1 PUSH2 0x611 JUMP JUMPDEST PUSH1 0x40 MLOAD DUP1 SWAP2 SUB SWAP1 RETURN JUMPDEST CALLVALUE DUP1 ISZERO PUSH2 0x144 JUMPI PUSH1 0x0 DUP1 REVERT JUMPDEST POP PUSH2 0x14D PUSH2 0x220 JUMP JUMPDEST PUSH1 0x40 MLOAD PUSH2 0x15A SWAP2 SWAP1 PUSH2 0x611 JUMP JUMPDEST PUSH1 0x40 MLOAD DUP1 SWAP2 SUB SWAP1 RETURN JUMPDEST CALLVALUE DUP1 ISZERO PUSH2 0x16F JUMPI PUSH1 0x0 DUP1 REVERT JUMPDEST POP PUSH2 0x18A PUSH1 0x4 DUP1 CALLDATASIZE SUB DUP2 ADD SWAP1 PUSH2 0x185 SWAP2 SWAP1 PUSH2 0x65D JUMP JUMPDEST PUSH2 0x226 JUMP JUMPDEST STOP JUMPDEST PUSH1 0x1 DUP1 SLOAD PUSH2 0x199 SWAP1 PUSH2 0x299 JUMP JUMPDEST DUP1 PUSH1 0x1F ADD PUSH1 0x20 DUP1 SWAP2 DIV MUL PUSH1 0x20 ADD PUSH1 0x40 MLOAD SWAP1 DUP2 ADD PUSH1 0x40 MSTORE DUP1 SWAP3 SWAP2 SWAP1 DUP2 DUP2 MSTORE PUSH1 0x20 ADD DUP3 DUP1 SLOAD PUSH2 0x1C5 SWAP1 PUSH2 0x299 JUMP JUMPDEST DUP1 ISZERO PUSH2 0x212 JUMPI DUP1 PUSH1 0x1F LT PUSH2 0x1E7 JUMPI PUSH2 0x100 DUP1 DUP4 SLOAD DIV MUL DUP4 MSTORE SWAP2 PUSH1 0x20 ADD SWAP2 PUSH2 0x212 JUMP JUMPDEST DUP3 ADD SWAP2 SWAP1 PUSH1 0x0 MSTORE PUSH1 0x20 PUSH1 0x0 KECCAK256 SWAP1 JUMPDEST DUP2 SLOAD DUP2 MSTORE SWAP1 PUSH1 0x1 ADD SWAP1 PUSH1 0x20 ADD DUP1 DUP4 GT PUSH2 0x1F5 JUMPI DUP3 SWAP1 SUB PUSH1 0x1F AND DUP3 ADD SWAP2 JUMPDEST POP POP POP POP POP DUP2 JUMP JUMPDEST PUSH1 0x2 SLOAD DUP2 JUMP JUMPDEST PUSH1 0x0 SLOAD DUP2 JUMP JUMPDEST DUP1 PUSH1 0x2 DUP2 SWAP1 SSTORE POP POP JUMP JUMPDEST PUSH1 0x0 DUP2 MLOAD SWAP1 POP SWAP2 SWAP1 POP JUMP JUMPDEST PUSH32 0x4E487B7100000000000000000000000000000000000000000000000000000000 PUSH1 0x0 MSTORE PUSH1 0x41 PUSH1 0x4 MSTORE PUSH1 0x24 PUSH1 0x0 REVERT JUMPDEST PUSH32 0x4E487B7100000000000000000000000000000000000000000000000000000000 PUSH1 0x0 MSTORE PUSH1 0x22 PUSH1 0x4 MSTORE PUSH1 0x24 PUSH1 0x0 REVERT JUMPDEST PUSH1 0x0 PUSH1 0x2 DUP3 DIV SWAP1 POP PUSH1 0x1 DUP3 AND DUP1 PUSH2 0x2B1 JUMPI PUSH1 0x7F DUP3 AND SWAP2 POP JUMPDEST PUSH1 0x20 DUP3 LT DUP2 SUB PUSH2 0x2C4 JUMPI PUSH2 0x2C3 PUSH2 0x26A JUMP JUMPDEST JUMPDEST POP SWAP2 SWAP1 POP JUMP JUMPDEST PUSH1 0x0 DUP2 SWAP1 POP DUP2 PUSH1 0x0 MSTORE PUSH1 0x20 PUSH1 0x0 KECCAK256 SWAP1 POP SWAP2 SWAP1 POP JUMP JUMPDEST PUSH1 0x0 PUSH1 0x20 PUSH1 0x1F DUP4 ADD DIV SWAP1 POP SWAP2 SWAP1 POP JUMP JUMPDEST PUSH1 0x0 DUP3 DUP3 SHL SWAP1 POP SWAP3 SWAP2 POP POP JUMP JUMPDEST PUSH1 0x0 PUSH1 0x8 DUP4 MUL PUSH2 0x32C PUSH32 0xFFFFFFFFFFFFFFFFFFFFFFFFFFFFFFFFFFFFFFFFFFFFFFFFFFFFFFFFFFFFFFFF DUP3 PUSH2 0x2EF JUMP JUMPDEST PUSH2 0x336 DUP7 DUP4 PUSH2 0x2EF JUMP JUMPDEST SWAP6 POP DUP1 NOT DUP5 AND SWAP4 POP DUP1 DUP7 AND DUP5 OR SWAP3 POP POP POP SWAP4 SWAP3 POP POP POP JUMP JUMPDEST PUSH1 0x0 DUP2 SWAP1 POP SWAP2 SWAP1 POP JUMP JUMPDEST PUSH1 0x0 DUP2 SWAP1 POP SWAP2 SWAP1 POP JUMP JUMPDEST PUSH1 0x0 PUSH2 0x37D PUSH2 0x378 PUSH2 0x373 DUP5 PUSH2 0x34E JUMP JUMPDEST PUSH2 0x358 JUMP JUMPDEST PUSH2 0x34E JUMP JUMPDEST SWAP1 POP SWAP2 SWAP1 POP JUMP JUMPDEST PUSH1 0x0 DUP2 SWAP1 POP SWAP2 SWAP1 POP JUMP JUMPDEST PUSH2 0x397 DUP4 PUSH2 0x362 JUMP JUMPDEST PUSH2 0x3AB PUSH2 0x3A3 DUP3 PUSH2 0x384 JUMP JUMPDEST DUP5 DUP5 SLOAD PUSH2 0x2FC JUMP JUMPDEST DUP3 SSTORE POP POP POP POP JUMP JUMPDEST PUSH1 0x0 SWAP1 JUMP JUMPDEST PUSH2 0x3C0 PUSH2 0x3B3 JUMP JUMPDEST PUSH2 0x3CB DUP2 DUP5 DUP5 PUSH2 0x38E JUMP JUMPDEST POP POP POP JUMP JUMPDEST JUMPDEST DUP2 DUP2 LT ISZERO PUSH2 0x3EF JUMPI PUSH2 0x3E4 PUSH1 0x0 DUP3 PUSH2 0x3B8 JUMP JUMPDEST PUSH1 0x1 DUP2 ADD SWAP1 POP PUSH2 0x3D1 JUMP JUMPDEST POP POP JUMP JUMPDEST PUSH1 0x1F DUP3 GT ISZERO PUSH2 0x434 JUMPI PUSH2 0x405 DUP2 PUSH2 0x2CA JUMP JUMPDEST PUSH2 0x40E DUP5 PUSH2 0x2DF JUMP JUMPDEST DUP2 ADD PUSH1 0x20 DUP6 LT ISZERO PUSH2 0x41D JUMPI DUP2 SWAP1 POP JUMPDEST PUSH2 0x431 PUSH2 0x429 DUP6 PUSH2 0x2DF JUMP JUMPDEST DUP4 ADD DUP3 PUSH2 0x3D0 JUMP JUMPDEST POP POP JUMPDEST POP POP POP JUMP JUMPDEST PUSH1 0x0 DUP3 DUP3 SHR SWAP1 POP SWAP3 SWAP2 POP POP JUMP JUMPDEST PUSH1 0x0 PUSH2 0x457 PUSH1 0x0 NOT DUP5 PUSH1 0x8 MUL PUSH2 0x439 JUMP JUMPDEST NOT DUP1 DUP4 AND SWAP2 POP POP SWAP3 SWAP2 POP POP JUMP JUMPDEST PUSH1 0x0 PUSH2 0x470 DUP4 DUP4 PUSH2 0x446 JUMP JUMPDEST SWAP2 POP DUP3 PUSH1 0x2 MUL DUP3 OR SWAP1 POP SWAP3 SWAP2 POP POP JUMP JUMPDEST PUSH2 0x489 DUP3 PUSH2 0x230 JUMP JUMPDEST PUSH8 0xFFFFFFFFFFFFFFFF DUP2 GT ISZERO PUSH2 0x4A2 JUMPI PUSH2 0x4A1 PUSH2 0x23B JUMP JUMPDEST JUMPDEST PUSH2 0x4AC DUP3 SLOAD PUSH2 0x299 JUMP JUMPDEST PUSH2 0x4B7 DUP3 DUP3 DUP6 PUSH2 0x3F3 JUMP JUMPDEST PUSH1 0x0 PUSH1 0x20 SWAP1 POP PUSH1 0x1F DUP4 GT PUSH1 0x1 DUP2 EQ PUSH2 0x4EA JUMPI PUSH1 0x0 DUP5 ISZERO PUSH2 0x4D8 JUMPI DUP3 DUP8 ADD MLOAD SWAP1 POP JUMPDEST PUSH2 0x4E2 DUP6 DUP3 PUSH2 0x464 JUMP JUMPDEST DUP7 SSTORE POP PUSH2 0x54A JUMP JUMPDEST PUSH1 0x1F NOT DUP5 AND PUSH2 0x4F8 DUP7 PUSH2 0x2CA JUMP JUMPDEST PUSH1 0x0 JUMPDEST DUP3 DUP2 LT ISZERO PUSH2 0x520 JUMPI DUP5 DUP10 ADD MLOAD DUP3 SSTORE PUSH1 0x1 DUP3 ADD SWAP2 POP PUSH1 0x20 DUP6 ADD SWAP5 POP PUSH1 0x20 DUP2 ADD SWAP1 POP PUSH2 0x4FB JUMP JUMPDEST DUP7 DUP4 LT ISZERO PUSH2 0x53D JUMPI DUP5 DUP10 ADD MLOAD PUSH2 0x539 PUSH1 0x1F DUP10 AND DUP3 PUSH2 0x446 JUMP JUMPDEST DUP4 SSTORE POP JUMPDEST PUSH1 0x1 PUSH1 0x2 DUP9 MUL ADD DUP9 SSTORE POP POP POP JUMPDEST POP POP POP POP POP POP JUMP JUMPDEST PUSH1 0x0 DUP3 DUP3 MSTORE PUSH1 0x20 DUP3 ADD SWAP1 POP SWAP3 SWAP2 POP POP JUMP JUMPDEST PUSH1 0x0 JUMPDEST DUP4 DUP2 LT ISZERO PUSH2 0x581 JUMPI DUP1 DUP3 ADD MLOAD DUP2 DUP5 ADD MSTORE PUSH1 0x20 DUP2 ADD SWAP1 POP PUSH2 0x566 JUMP JUMPDEST DUP4 DUP2 GT ISZERO PUSH2 0x590 JUMPI PUSH1 0x0 DUP5 DUP5 ADD MSTORE JUMPDEST POP POP POP POP JUMP JUMPDEST PUSH1 0x0 PUSH1 0x1F NOT PUSH1 0x1F DUP4 ADD AND SWAP1 POP SWAP2 SWAP1 POP JUMP JUMPDEST PUSH1 0x0 PUSH2 0x5B2 DUP3 PUSH2 0x230 JUMP JUMPDEST PUSH2 0x5BC DUP2 DUP6 PUSH2 0x552 JUMP JUMPDEST SWAP4 POP PUSH2 0x5CC DUP2 DUP6 PUSH1 0x20 DUP7 ADD PUSH2 0x563 JUMP JUMPDEST PUSH2 0x5D5 DUP2 PUSH2 0x596 JUMP JUMPDEST DUP5 ADD SWAP2 POP POP SWAP3 SWAP2 POP POP JUMP JUMPDEST PUSH1 0x0 PUSH1 0x20 DUP3 ADD SWAP1 POP DUP2 DUP2 SUB PUSH1 0x0 DUP4 ADD MSTORE PUSH2 0x5FA DUP2 DUP5 PUSH2 0x5A7 JUMP JUMPDEST SWAP1 POP SWAP3 SWAP2 POP POP JUMP JUMPDEST PUSH2 0x60B DUP2 PUSH2 0x34E JUMP JUMPDEST DUP3 MSTORE POP POP JUMP JUMPDEST PUSH1 0x0 PUSH1 0x20 DUP3 ADD SWAP1 POP PUSH2 0x626 PUSH1 0x0 DUP4 ADD DUP5 PUSH2 0x602 JUMP JUMPDEST SWAP3 SWAP2 POP POP JUMP JUMPDEST PUSH1 0x0 DUP1 REVERT JUMPDEST PUSH2 0x63A DUP2 PUSH2 0x34E JUMP JUMPDEST DUP2 EQ PUSH2 0x645 JUMPI PUSH1 0x0 DUP1 REVERT JUMPDEST POP JUMP JUMPDEST PUSH1 0x0 DUP2 CALLDATALOAD SWAP1 POP PUSH2 0x657 DUP2 PUSH2 0x631 JUMP JUMPDEST SWAP3 SWAP2 POP POP JUMP JUMPDEST PUSH1 0x0 PUSH1 0x20 DUP3 DUP5 SUB SLT ISZERO PUSH2 0x673 JUMPI PUSH2 0x672 PUSH2 0x62C JUMP JUMPDEST JUMPDEST PUSH1 0x0 PUSH2 0x681 DUP5 DUP3 DUP6 ADD PUSH2 0x648 JUMP JUMPDEST SWAP2 POP POP SWAP3 SWAP2 POP POP JUMP INVALID LOG2 PUSH5 0x6970667358 0x22 SLT KECCAK256 PUSH5 0xA7E2FB7865 DUP2 SWAP7 MLOAD MUL XOR PUSH8 0x43984A8EEE8A3CC6 0x4A 0xCB PUSH29 0x6C7F50D7EBBDDD440D64736F6C634300080F0033000000000000000000 "
				},
				"gasEstimates": {
					"creation": {
						"codeDepositCost": "345600",
						"executionCost": "380",
						"totalCost": "345980"
					},
					"external": {
						"": "infinite",
						"lastFuntionCalled()": "infinite",
						"lastValueSent()": "2451",
						"myUint()": "2429",
						"setMyUint(uint256)": "22564"
					}
				},
				"methodIdentifiers": {
					"lastFuntionCalled()": "022ac74c",
					"lastValueSent()": "e36a6655",
					"myUint()": "06540f7e",
					"setMyUint(uint256)": "e492fd84"
				}
			},
			"storageLayout": {
				"storage": [
					{
						"astId": 3,
						"contract": "contracts/SampleFallback.sol:SampleFallback",
						"label": "lastValueSent",
						"offset": 0,
						"slot": "0",
						"type": "t_uint256"
					},
					{
						"astId": 5,
						"contract": "contracts/SampleFallback.sol:SampleFallback",
						"label": "lastFuntionCalled",
						"offset": 0,
						"slot": "1",
						"type": "t_string_storage"
					},
					{
						"astId": 7,
						"contract": "contracts/SampleFallback.sol:SampleFallback",
						"label": "myUint",
						"offset": 0,
						"slot": "2",
						"type": "t_uint256"
					}
				],
				"types": {
					"t_string_storage": {
						"encoding": "bytes",
						"label": "string",
						"numberOfBytes": "32"
					},
					"t_uint256": {
						"encoding": "inplace",
						"label": "uint256",
						"numberOfBytes": "32"
					}
				}
			},
			"userdoc": {
				"kind": "user",
				"methods": {},
				"version": 1
			}
		}
	}
}